:1008000000380020110C00006D0C0000BB610100DD
:1008100000000000000000000000000000000000D8
:100820000000000000000000000000006D0C00004F
:1008300000000000000000006D0C000019610100C4
:1008400075F700007FF7000089F7000093F70000BC
:100850009DF700006D0C00006D0C00006D0C000099
:100860004D5B01006D0C0000F50D0100FF0D010056
:100870003D2001006D0C00006D0C00007720010090
:100880006D0C00006D0C00006D0C00006D0C000084
:100890006D0C00006D0C00006D0C00006D0C000074
:1008A0002F350100B50F0100633701006D0C00000A
:1008B0006D0C00006D0C00006D0C00006D0C000054
:100C0000FFFFFFFFFFFFFFFFFFFFFFFFFE7FFFFF75
:100C100072B610490F4A0F4B0E4C0E4D0D4E0D4F34
:100C2000B846B946BA46BB46BC460B490B4A521AAF
:100C3000013A05DD0020042308601944043AFBDA78
:100C400007488546074880470748804762B615F041
:100C5000B9FAFEE70000000000FDFF1F0038002089
:100C600000380020DDE0000055E00000D0E7C0467D
:100C700002B4714649084900095C49008E4402BC2F
:100C80007047C046002243088B4274D303098B424D
:100C90005FD3030A8B4244D3030B8B4228D3030C4C
:100CA0008B420DD3FF22090212BA030C8B4202D3EE
:100CB0001212090265D0030B8B4219D300E0090A16
:100CC000C30B8B4201D3CB03C01A5241830B8B421F
:100CD00001D38B03C01A5241430B8B4201D34B0308
:100CE000C01A5241030B8B4201D30B03C01A52416D
:100CF000C30A8B4201D3CB02C01A5241830A8B42F2
:100D000001D38B02C01A5241430A8B4201D34B02DA
:100D1000C01A5241030A8B4201D30B02C01A52413E
:100D2000CDD2C3098B4201D3CB01C01A52418309F2
:100D30008B4201D38B01C01A524143098B4201D32C
:100D40004B01C01A524103098B4201D30B01C01A57
:100D50005241C3088B4201D3CB00C01A52418308D1
:100D60008B4201D38B00C01A524143088B4201D3FE
:100D70004B00C01A5241411A00D20146524110465E
:100D80007047FFE701B5002000F0F0F802BDC04653
:100D90000029F7D076E7704703460B437FD4002243
:100DA00043088B4274D303098B425FD3030A8B42FF
:100DB00044D3030B8B4228D3030C8B420DD3FF2269
:100DC000090212BA030C8B4202D31212090265D037
:100DD000030B8B4219D300E0090AC30B8B4201D3EA
:100DE000CB03C01A5241830B8B4201D38B03C01A31
:100DF0005241430B8B4201D34B03C01A5241030BA8
:100E00008B4201D30B03C01A5241C30A8B4201D358
:100E1000CB02C01A5241830A8B4201D38B02C01A03
:100E20005241430A8B4201D34B02C01A5241030A7A
:100E30008B4201D30B02C01A5241CDD2C3098B425F
:100E400001D3CB01C01A524183098B4201D38B01DC
:100E5000C01A524143098B4201D34B01C01A52417F
:100E600003098B4201D30B01C01A5241C3088B42C4
:100E700001D3CB00C01A524183088B4201D38B00AF
:100E8000C01A524143088B4201D34B00C01A524151
:100E9000411A00D201465241104670475DE0CA0F28
:100EA00000D04942031000D34042534000229C46E8
:100EB00003098B422DD3030A8B4212D3FC228901F2
:100EC00012BA030A8B420CD3890192118B4208D3C8
:100ED000890192118B4204D389013AD0921100E02A
:100EE0008909C3098B4201D3CB01C01A524183093E
:100EF0008B4201D38B01C01A524143098B4201D36B
:100F00004B01C01A524103098B4201D30B01C01A95
:100F10005241C3088B4201D3CB00C01A524183080F
:100F20008B4201D38B00C01A5241D9D243088B4265
:100F300001D34B00C01A5241411A00D20146634608
:100F400052415B10104601D34042002B00D549426C
:100F5000704763465B1000D3404201B5002000F0AB
:100F600005F802BD0029F8D016E770477047C04663
:100F7000D0400B00D1409C46203AD3401843524207
:100F800063469340184370479140030090409C464D
:100F9000203A9340194352426346D3401943704765
:100FA0008446100062468C461900634600E0C04645
:100FB0001FB518F06FF9002801D40021C8421FBDE9
:100FC00010B518F0AFF84042013010BD10B518F060
:100FD00061F9002801DB002010BD012010BDC046D2
:100FE00010B518F057F9002801DD002010BD0120D0
:100FF00010BDC04610B518F0D9F8002801DC00205B
:1010000010BD012010BDC04610B518F0CFF8002863
:1010100001DA002010BD012010BDC0468446080042
:101020006146FFE71FB516F021FE002801D400211C
:10103000C8421FBD10B516F0A1FD4042013010BDE1
:1010400010B516F013FE002801DB002010BD0120B2
:1010500010BDC04610B516F009FE002801DD0020C5
:1010600010BD012010BDC04610B516F0AFFD002820
:1010700001DC002010BD012010BDC04610B516F0E7
:10108000A5FD002801DA002010BD012010BDC046DA
:10109000002B11D1002A0FD1002900D1002802D045
:1010A0000021C943080007B4024802A14018029079
:1010B00003BDC046B9FEFFFF03B4684601B5029800
:1010C00016F0E6F9019B9E4602B00CBC7047C04684
:1010D0001C2101231B04984201D3000C10391B0A68
:1010E000984201D3000A08391B09984201D300092C
:1010F000043902A2105C40187047C0460403020283
:1011000001010101000000000000000010B50029ED
:1011100003D1FFF7DDFF203002E00800FFF7D8FF22
:1011200010BDC04610B50800202115F0BCFD002000
:1011300010BD10B51C00080011009AB215F0E4FDB6
:10114000200010BD10B51C00080011009AB215F067
:101150004FFE200010BD10B50CF072FD10BD000058
:1011600010B51E2303220549054800F0A8F9002800
:1011700002D10122034B1A7010BDC046C0FDFF1FF3
:10118000600500208805002010B5094B1B78012B55
:101190000BD1084C200000F0CBF9002801D1C0464B
:1011A00010BD200000F098F9FAE701204042F7E76F
:1011B000880500206005002010B5064B01001B7853
:1011C000012B04D1044B180000F054FA10BD01208B
:1011D0004042FBE7880500206005002010B5064B63
:1011E00001001B78012B04D1044B180000F0A6FA73
:1011F00010BD01204042FBE788050020600500206B
:1012000070B5104B06001B78012B18D10E4D2B68C2
:101210009A68EB68013A53438B4210D300290ED0F1
:101220000139280000F0C5FA31000400280000F060
:1012300085FA0443280000F0B5FA204370BD012070
:101240004042FBE7880500206005002010B50B4BED
:1012500001001B78012B0DD1094803689A68C36807
:10126000013A53438B4205D3002903D0013900F0E2
:10127000A0FA10BD01204042FBE7C04688050020CF
:101280006005002010B5054B1B78012B03D10448E5
:1012900000F088FA10BD01204042FBE788050020DD
:1012A0006005002010B5054B1B78012B03D10448C5
:1012B00000F0CEF910BD01204042FBE78805002078
:1012C0006005002010B5054B1B78012B02D100F002
:1012D00023F810BD01204042FBE7C04688050020EE
:1012E00010B5054B1B78012B02D100F059F810BD49
:1012F00001204042FBE7C0468805002010B5054BA1
:101300001B78012B02D100F063F810BD0120404290
:10131000FBE7C04688050020F0B50E00002193B021
:1013200004002E2206A803910591049118F0EAFF0B
:1013300009200322FF21684418F0E4FF0A231E223B
:10134000210001AD05A803AF01962B7118F0F0FF45
:10135000C046A02008222900C000FFF7FCFE00289C
:1013600018D1012405AD11200322290068440396F9
:101370003C7118F0DDFFC046082239000748FFF72E
:10138000EAFE002806D10134E4B203350B2CEAD181
:1013900013B0F0BD01204042FAE7C046010500004D
:1013A00037B505000C000822FF21684618F0AAFF97
:1013B000C0460095C0466B466A461C7103236946C9
:1013C000537102480822FFF7C6FE3EBD0205000029
:1013D000012307B55B420090082269460248019349
:1013E000FFF7B9FE0EBDC0460305000010B5436807
:1013F0004469CB18016859430423A04710BD836892
:1014000010B5046848680433584363680A680830B4
:10141000D21823685343C01810BD37B50468019231
:10142000FFF7EDFF010025690423200001AAA8476A
:1014300037BD70B505681400FFF7E1FF6E69010064
:10144000042328002200B04770BD13B54368019201
:10145000CB18016804695943042301AAA04713BDAE
:10146000FF2270B504000068120643680568CB18B7
:101470005D430E00FFF7E9FF20682900C368984725
:10148000220001CA0423291D0569A8473100024A28
:101490002068FFF7DAFF70BD00FFFFFF4B68C268EE
:1014A00001334B60934209DB002200680B688068BF
:1014B00001334A600B60834200DB0A60704710B55D
:1014C00004000160426083600868191D0838FFF756
:1014D000D9FBE060002010BD70B504000025236832
:1014E0009B68AB420CDC0025236800209B68AB4264
:1014F00013DC20616061A061E0612062606270BD08
:10150000002014F0D7FE290000222068FFF79DFF7D
:10151000012014F0CFFE0135E1E714F0CBFE2900E5
:101520002000FFF79DFF012014F0C4FE0135DBE72A
:10153000F0B500250400036889B09F68424B013F65
:10154000039502950495206801938368AB4227DCDC
:10155000029B002B46D0039B5B421F400023A761E8
:10156000E361A369BB425BD0049B236100236361F9
:1015700025002269A36910359A4203D16269E369A3
:101580009A4208D006AA29002000FFF752FF2F4BED
:10159000069A9A4253D1203400200CCD0CC423E08B
:1015A00043680668EB185E434369059605991E007B
:1015B00006AA0823B047069B002B13D0FF22120671
:1015C000934201D0013305D120000599FFF748FF70
:1015D0001D4B0693069B1C4A934207D107996268EC
:1015E000914211D00120404209B0F0BD174A934208
:1015F000F8D1079962689142F4D1019A12498A425E
:101600000CD00122039205E0104A0199914203D0C7
:1016100001220292013596E76F1EF9E70495F0E783
:10162000250018352900200006AAFFF702FF069BB7
:10163000013399D029002000FFF730FF91E72900FE
:101640002000FFF72BFF93E700FFFFFF0000FFFFE5
:1016500010B504000368806999682369C01A4018AE
:10166000FFF780FCE068E3694843C0186369C01A6B
:1016700010BD0000F0B507680400806985B00191D5
:101680000130B968FFF76EFC380003AA0D00294F3E
:10169000FFF7ACFE039BBB421BD02369AB4208D1D2
:1016A000002321686A1C8968636122618A4200DB29
:1016B0002361236AAB4208D1002321686A1C896830
:1016C000636222628A4200DB236229002000FFF766
:1016D000C7FE03AAA1692068FFF788FE039B164A8C
:1016E000BB4221D1A1692068FFF7AFFE2500183564
:1016F000104A29002000FFF790FE29002000FFF784
:101700007EFE2768A368011D019A38003E69B04734
:1017100029002000084AFFF780FE20002900FFF77B
:10172000BDFE002005B0F0BD9342DFD00120404255
:10173000F8E7C04600FFFFFF0000FFFFF0B5040020
:1017400085B001912500226AA36920359A4203D110
:10175000626AE3699A421FD003AA29002000FFF7BA
:1017600068FE0F4B039A9A4211D129002000FFF71F
:1017700046FE2768011DA368019A38007E69B047BC
:1017800020002900FFF78AFE002005B0F0BD2900E7
:101790002000FFF783FED5E701204042F5E7C04671
:1017A0000000FFFF03002033103006C806C30020EE
:1017B000704770B505000E000124B44201D9601EC7
:1017C00070BD290028002031FFF768FE0134F4E7DE
:1017D00070B50D0004000A490A4815F0E5F914F047
:1017E000B1FC094B0100180015F0DEF92A002100B8
:1017F000064815F0D9F9064815F0D6F970BDC0466F
:10180000DDA301005AA3010067A3010071A3010039
:101810007EA3010037B56A4600230500D01DD371B1
:1018200004F0B6FF041E07D16B46DB79002B03D012
:1018300001220D4B1A7028700C490D4815F0B4F9AF
:1018400014F080FC0B4B0100180015F0ADF92100DD
:10185000631E9C412A78084815F0A6F9074815F040
:10186000A3F9E0B23EBDC046A9050020FDA30100DA
:101870005AA3010067A3010080A301007EA3010019
:10188000F7B51C4E1C4D3100280015F08DF914F0F1
:1018900059FC1A4C0100200015F086F9184F194820
:1018A0003978C9B215F080F9174B1800019315F07B
:1018B0007BF93100280015F077F914F043FC0100A2
:1018C000200015F071F9114C11482178C9B215F0BA
:1018D0006BF9019815F068F900220E4B1A7006F0AA
:1018E0007DF8431E98410C4BC0B2387018702070C0
:1018F000F7BDC046EDA301005AA3010067A3010094
:101900002C17002095A301007EA30100C40A00202B
:101910009DA30100A8050020C107002000207047FA
:101920000020704710B505F0C5FD10BD10B505F0DD
:10193000D3FD10BD10B506F031F910BD70B505002E
:1019400006F0CFF90A212800FFF70CFB2800CCB2E3
:101950000A21FFF721FAC0B20A280BD8FFF788F94D
:10196000060B0D0A0A0A0A0A0A0A0F000848210093
:1019700006F0BEF970BD0748F9E70748F7E70749E1
:10198000682014F0C9FC06496A2014F0C5FCF1E790
:10199000A5A30100A7A30100A9A30100ABA3010017
:1019A000ADA3010010B506F097F910BD10B506F013
:1019B000AAF910BD10B506F0AAF910BD10B50400C3
:1019C00006F08FF9632C10D80A212000FFF75AF98E
:1019D000C1B2682014F076FC0A212000FFF7D8F984
:1019E000C9B26A2014F06EFC10BD0349682014F0DF
:1019F00093FC0121F5E7C046A9A3010070B50500DD
:101A000005F060F92B78064A04001370002B01D012
:101A100005F08AF829780020FFF7DAFE20B270BDC1
:101A2000A805002010B504F07FFF0400010001208C
:101A3000FFF7CEFE20B210BD10B504F0ADFF0400DC
:101A400001000220FFF7C4FE002C0ED114F07AFB37
:101A5000084B094A18601368092B08DC591C1160EF
:101A6000064A5B00118E064AD15220B210BD1460A6
:101A7000FBE7C046BC070020900500209C0B00201F
:101A80009405002010B504F0EBFF041E03D1054BB4
:101A9000DA6C054B1A6021000320FFF799FE20B293
:101AA00010BDC0469C0B0020BC05002010B504F002
:101AB000A9FE431E9841C0B210BD10B506F02CF926
:101AC000002010BD024B1B785A1E934103707047D3
:101AD0007C0C002000220A4B10B50A490A481A70F3
:101AE00015F062F814F02EFB084B0100180015F0F9
:101AF0005BF8074815F058F8064815F055F810BD82
:101B00007C0C0020C6A301005AA3010067A30100BA
:101B1000AFA301007EA3010010B505F057FF431EDF
:101B20009841C0B210BD10B505F054FF431E984156
:101B3000C0B210BD10B505F0E3F810BD10B505F04A
:101B4000F3F810BD10B505F025F910BD10B505F07E
:101B50009FFC10BD10B505F04BFD10BD10B505F094
:101B60005BFD10BD10B505F09DFD10BD10B505F075
:101B700067FD10BD10B505F07BFD014B186010BD71
:101B80008C05002010B505F081FD10BD10B505F0E5
:101B900071FE10BD10B505F0C9FD10BD10B505F002
:101BA000D1FD10BD10B505F0D9FD10BD10B505F083
:101BB000E9FD10BD10B505F0F9FD10BD10B505F03B
:101BC000FFFD10BD10B505F005FE10BD10B505F008
:101BD00029FE10BD10B505F0ADFF10BD10B505F024
:101BE000C3FF10BD10B506F059F810BD10B506F0D2
:101BF00049F810BD10B505F075F805F073F8134BF2
:101C0000134A997AC9B21172197BC9B25172597AC1
:101C1000C9B2D171187C5C7C997C2043014351731B
:101C2000D97BC9B211735979C9B211719979C9B205
:101C300051719978C9B29170D978C9B2D170597B74
:101C4000C9B291729B7BDBB2D37210BD820B0020B4
:101C5000AA05002010B505F0B1FC10BD10B505F0C7
:101C600045FD012010BD10B505F046FD012010BD59
:101C700010B505F04DFD012010BD10B505F042FD79
:101C8000012010BD10B505F049FD012010BD10B5B3
:101C900006F09EF9012010BD10B506F0A5F810BDA4
:101CA00010B506F0BDF810BD10B506F0D7F810BDA0
:101CB00010B5C04606F0EAF8C04610BD10B506F0F3
:101CC000EFF810BD10B506F017F910BD10B506F00D
:101CD00027F910BD10B506F02FF910BD10B506F0AC
:101CE00031F910BD10B506F021F910BD10B506F0A0
:101CF0002FF910BD10B506F031F910BDF7B55B4CEA
:101D00005B4FA57C1E780195258ABD4201D801351F
:101D10002582257D002D26D101262675E674554C99
:101D200025700478002C04D0524C25780124002D15
:101D300006D01D780124002D02D10C78651EAC411F
:101D400001250A9E6C403470484C267E002E23D11B
:101D50002576E575089DE660A6602E70007800285F
:101D600039D000203AE0E57C012D08D1002ED8D1F1
:101D7000019F002FD5D002272682E774CFE7962552
:101D8000268AED00AE4202D21D78002DC9D0012571
:101D9000E5740025374CC3E7E67D0578012E15D1A3
:101DA000002D01D00025A5600D78002D01D0002563
:101DB000E560314DA668AE42D0D9E668AE42CDD9D5
:101DC0000225E575013D089E3570C7E7002D18D145
:101DD0000D78002D15D1254880680130A060087865
:101DE0000021884201D1E1680131E160A17D002933
:101DF0000DD10120A0750220616060750998017005
:101E00000DE000250126E560A560E675DBE7607D55
:101E1000117801281AD1002909D0002121601278F7
:101E2000002A0BD000222260626801320AE0642599
:101E3000206868439135FF35A842DCD8226801321A
:101E40002260002262601B78A374F7BD002901D1D3
:101E50006160E4E76420616841439130FF30814272
:101E6000E0D90021216001316175C7E7C00500207C
:101E7000FE070000DC050020E0A50100014B186012
:101E80007047C046E0050020F8B51600069A050028
:101E900012780800002A0ED0684C694FA279002AF7
:101EA0000AD10123A37123713B68664A934200DC87
:101EB000BDE0079B1A60F8BD21792A78012911D16C
:101EC000002AF1D000226049188822600C235F4A62
:101ED00000F066F90100B02000F00AFA5C4B3860AF
:101EE000A380E1E763793D68012B5FD1002ADBD154
:101EF0002668002E18DBFA2189008E4211DB3000A3
:101F0000FEF74AFF002D34DAFA232D189B005843C0
:101F10003D60002E42DB4F4BF31883420FDD4E4BEA
:101F2000236002236371BFE780231B069E420DD10D
:101F3000002D2BDA494A731B93422BDB3E60FA21BA
:101F400030008900FFF70EF82160EAE7444B9E421B
:101F5000E7DAFA2130008900FEF71EFF002D08DACB
:101F600080231B065B1B8342CEDD80231B063B6068
:101F7000E5E7002DC8D0384B5A1B8242C4DA3B60DB
:101F8000002EDCDAFA239B00584307E0354BED18AE
:101F90003D60D4E7334B3448ED183D6080231B0689
:101FA000F3188342CBDA80231B06B9E7002A00D15D
:101FB0007AE7012383216371C905006815F0A4FE47
:101FC000316815F0A1FE294915F0B8FC9E21C9051C
:101FD0002568061CFFF734F8002804D1002D00DB2B
:101FE00023D11D480AE0CF21301C0906FFF746F82F
:101FF000002806D1002D0EDB802000062D1825605C
:1020000052E7301C16F062F9002D08DA80231B0617
:102010005B1B8342F2DD80231B06236044E7002D17
:10202000ECD00D4B5B1B8342E8DA0B4BF5E7002B42
:1020300000DA0023079A13603DE7C046E40500205C
:10204000EC050020A0208F0040A401000CA401009A
:102050000202000001000080FFFFFF7F663BDFFF00
:1020600019FCFFFF653BDFFF8802008000007A4417
:10207000014B18607047C046F0050020F0B587B0EE
:10208000009203930022444B05000E00FEF79EFFD2
:1020900000285DD00022002328003100FEF7B4FFA5
:1020A000041E04D02800310015F0D4F984B2009B3E
:1020B000188818F02FF82A003300FEF79BFF071E40
:1020C00053D10C9B009A5B00985A18F023F82A0011
:1020D0003300FEF78FFF002832D00C9B0C9A5B0870
:1020E000D11B012936D87B000493049A009B9B5A8C
:1020F0001800059318F00EF802000B0028003100BC
:1021000017F002FC049B009E9C4666440400059B5D
:1021100070880D00C01A80B217F0FCFF02000B009F
:102120002000290016F0E4FC04000D00039B7E0053
:10213000985B17F0EFFF0C9B009001919F4218D124
:102140000C9B039A5B00985A17F0E4FF07B0F0BDB0
:10215000124CACE700985900095AA14203D91A0061
:10216000BB185B08BCE71F00FAE700270024002526
:10217000DCE7039B9E19708817F0CCFF009A019B47
:1021800017F0C2FB22002B0017F0F6F8009A019B13
:1021900016F04AF9DAE7C0460000F040FFFF000001
:1021A000F7B500920A880D0082423BD25A00525A7B
:1021B000824233D900245A08191B012924D8670008
:1021C000EE5BED19801B80B216F0ECF80190688888
:1021D000801B80B216F0E6F8011C019815F0AEFBEA
:1021E000051C009BA4001E591C19311C606815F0C9
:1021F000C9FE291C15F088FD16F068F80400301C93
:1022000016F064F82018FEBD5100495B814203D9E5
:102210001300E2185208CFE71400FAE7FE255C1E0F
:10222000AD05DEE700240025DBE7F0B585B00093BF
:102230000191009904000A9B002927D0002B25D08A
:10224000CB180393019B51005918002395004519A1
:10225000039883421CDB0023009D013A0C9859002F
:10226000095E0C988C466900085E01320290591C88
:102270009700844516DC0B989B001B586046019E16
:10228000E3515300F052009B8B422FDC05B0F0BDB0
:102290009E00AF590B9887515E008F5F0C980133F9
:1022A0008753D5E7A800844666460B980135305819
:1022B000029EE05101985700C6530398854214DBF3
:1022C0000198D31A9A005B00A218C3180C9C0B98B3
:1022D000023C0438009DA942D8DC8D004659565175
:1022E0004D00665F01315E53F4E719000B00B5E75E
:1022F00007B501AB6A4600F015F8009B002B03DC24
:1023000004D1019B002B06DA054805E0013304D116
:10231000019B002B01DA01980EBD80200006FBE72F
:10232000FFFFFF7FF7B59C46C317C4185C40CB176F
:102330000192CA185A40160C3700230CA4B2674306
:1023400092B20093534362433C04A4181D042D1918
:1023500094429241A542A441524264421219009C07
:102360003F0C66431B0CFB189B199B1800280DD0D3
:1023700000290BD0C217101ACA17521AC00FD20F59
:10238000904203D06D42002D05D0DB43019A1360CB
:1023900063461D60F7BD5B42F8E700004B0070B577
:1023A00000220D005908184B0400FEF70FFE00280C
:1023B00011D0002220002900144BFEF725FE002238
:1023C00000280BD0114B2000290016F02DF814F036
:1023D000B7FE04000D002900200070BD2000290078
:1023E0000B4BFEF707FE0022002805D0002320003B
:1023F000290016F0C1FFECE7044B2000290017F07C
:1024000083FA14F013FEE4E7000030430000E03FDD
:102410000000E0BFF0B585B00292254A06008B1897
:102420009B001B580091002B3DDB00240025029BE4
:102430006F01FF18009B9D4232DAAB00F05815F097
:10244000B1FF17F08BFE3A0014F008FD17F0CEFE36
:10245000011C201C15F0E8F80135041CE7E7AA0070
:10246000B7580135DB1B013B1800019315F09AFFAB
:1024700017F074FE039A14F0F1FC17F0B7FEFF4357
:10248000011C201C15F07EFD019B041CBB429B41DE
:102490005B4202996A0152180392009A9542DEDB70
:1024A000201C05B0F0BD012300240025F1E7C04643
:1024B000FFFFFF3FF0B50500664B9DB00422A95E0B
:1024C00007930023C45E0222805E0626AA5F08AB43
:1024D0001C8058809980DA80844200DD83E00226E7
:1024E0000124914200DD81E004270322611E49009E
:1024F000595E64B20591511E4900595E05988C469B
:1025000079B2049152B271B2604500DD71E0013ED2
:1025100076009E5FB44500DB7DE0013F7F00DF5F1A
:10252000B74202DA0E0004990496013C07AE64B289
:102530003757013A52B204980E970139B7565200F4
:102540009A5A49B20F9701387756490040B26A80CB
:102550005A5A109737564000AA801A5A6400EA80E7
:102560000822A85E0A22A95E3B4A1C5B3280072231
:102570002C80B2700C242A5F1197188059809A80A1
:10258000884251DC914257DD904258DC02220321FF
:102590000120013834564000185A013928817056FC
:1025A0004900595A013A6981B15652009B5A129416
:1025B00015ACAB81139014910AAE1C2200212000AF
:1025C00017F0A0FE0E220021300017F09BFE03231F
:1025D0000022009329000296019401330EA8FFF710
:1025E00024FE1DB0F0BD012602247AE70327042251
:1025F0007CE7013F7F00DF5F0598B8420FDC013EBA
:1026000076009E5FBE4202DD0E000499049626000D
:102610001400320089E716000A00310085E7260021
:102620001400049A0491F8E790420CDD91420DDC0D
:10263000012203210220ACE703220221A8E70222A3
:1026400001210320A5E703220121F3E70122022152
:10265000F7E7C04601020304050600000122024B11
:10266000DA711A727047C046F405002010B5244C88
:1026700023685A1C01D001332360A379002B0BD1AE
:102680000122A271921822710B70627123601D48A1
:10269000FFF7C0F8E07110BD2379012B0CD10B704E
:1026A0000278002AF7D00222227100220A70637198
:1026B0002260FFF7E5F8EEE700230B706279012A4C
:1026C0000BD102789A4203D1023363712260DEE7B4
:1026D00022681D2ADFD92360EBE7E279002A02D0C5
:1026E00001226271F7E7237A002B04D023681D2BA7
:1026F000D1D90223E9E70123A3800B70CBE7C046C1
:10270000F4050020FC050020014B18607047C0460E
:1027100000060020F0B5ADB00C6834991CAF0C6019
:1027200000218C424ADC00218B4200D0118800221B
:102730000926349B14A85C601CAD944246DC349B93
:1027400000259C60E343DB1723401A00002104A806
:10275000039317F0D7FDE3B2019314AA9D423FD132
:1027600000230293019B022B01D9EB1E029300214F
:102770008C461CAA04AB009202998C4535DB349B35
:102780000CAEDC600021039A300017F0BBFD04A9F9
:102790002A00300017F0CCFD0021019B8B4200D0B5
:1027A000691E330000228A423EDB339B1C60349B4F
:1027B000D96800238B4251DB2DB0F0BD00264D00BF
:1027C000B34200D0465B7E530131AAE753005B5B06
:1027D0005B1A9BB29E429B415B4213540132ACE7B1
:1027E000A95C04A841550135B8E701218C440021BA
:1027F0005956012912D10121595601290ED1022021
:10280000185601280AD1568817880021B74208D2E5
:102810009788B74205D21970587099700133023207
:10282000AAE759700121F8E7002018560132012863
:102830000DD101255D57012D09D1009800888446EE
:10284000009847880020BC4506D818705D70009835
:10285000013302300090A6E75870F8E7F256501E98
:1028600082413298C2540133A4E700000122024B96
:10287000DA700023036070470406002084461000CD
:10288000F0B585B01C000B9B0A9A1E880C9B007843
:102890001B78178840B2002B0AD0002807D13C4D86
:1028A0000300AF4209D93B48B0425B4105E0002339
:1028B000013002D136488742F5D81098DBB2037058
:1028C000354B98781E2801D8013098705878002828
:1028D00012D10424FF341C80987030480F9B1B7861
:1028E00002900E9801900D9800906046FFF712FF3D
:1028F000FFF77CF905B0F0BD1878012818D0022840
:102900003ED098780128F5D920780128F2D1109C82
:10291000DD782678AE42EDD10B9C15882488641BA7
:10292000222CE7DD0F9C20700130187023001CE082
:102930002078002806D1002003240F9B1870164B26
:102940001C70C9E70128D5D198781328D2D91098DE
:102950000578D8788542EED10B9814880088001B42
:102960000928E8DD022018700F9B0C481B780290A4
:102970000E9801900D9800906046FFF7CBFEB9E7E6
:1029800001221A7000229A70FFF72CF9B2E7C046B4
:10299000B70B00004A1000000406002008060020C3
:1029A000014B18607047C046180600200222034BF6
:1029B000FF321A82013AFF3A9A7470471C060020CF
:1029C000F0B585B002930A9B03921A780C9E0D9F76
:1029D000994B00900191002A00D12BE101221A7538
:1029E000DA7A7E2A01D80132DA72934CA37A002B6C
:1029F00014D10133A372033363723800FFF7CAF8AE
:102A000060743000FFF7CAF8A0740B98FFF7CEF897
:102A100020740E98FFF7C6F8E07448E0637A032B41
:102A200054D035D8013B012B38D9009B00211D68BB
:102A3000281CFEF7FFFA002800D07CE00021281CAB
:102A4000FEF712FB002847D001227B4B5A723068F8
:102A500015F0A8FC291C14F0E7FD9F21C905071CEF
:102A6000FEF7EEFA002834D0381C14F0DBFC029B91
:102A70003060186815F096FC011C281C14F05EFFED
:102A80000E9B011C186814F0CFFD0E9B18600EE021
:102A9000042BCAD12369002B06D0AEE7019B1B781B
:102AA000002B04D10122E2730522E3726272624DAF
:102AB000AB7B7E2B01D80133AB736B7B002B52D1E8
:102AC0000422FF32AA81AB7305B0F0BD0023E3738B
:102AD000EAE701204042CAE70021281CFEF7B0FACD
:102AE000002828D00222544B5A72802338681B06D3
:102AF000EE1815F057FC291C15F044FA9F21C90562
:102B0000051CFEF79DFA002812D0281C14F08AFC40
:102B1000029B3860186815F045FC011C301C14F04D
:102B20000DFF0B9B011C186814F07EFD0B9BADE79D
:102B300001204042ECE7404BDA7A632AB7D9DA7BCE
:102B4000002AB4D003225A723868FFF733F830688D
:102B5000FFF734F80B9B1868FFF734F80E9B1868E2
:102B6000FFF734F8A3E72A7B012A35D0019B1B78B5
:102B7000022A36D0002B3CD0009B00211E68301C5E
:102B8000FEF75EFA002834D0022328682B73311C2C
:102B900015F0F8F9009B2860186880231B06274968
:102BA000C01814F0CBFE9E21C905051CFEF748FA9B
:102BB00000281CD0281C15F089FB15F0A7FB039BEF
:102BC000196815F0A1F88321C90515F09DF8616811
:102BD00014F02AFD606077E700232B7203222A732A
:102BE00071E7002B00D06FE701222A72F6E7144844
:102BF000E3E7AB7B632B00D866E70823EB56012B9A
:102C000000D061E72B730F49286814F097FE286005
:102C1000FEF7E0FF002202210B48FFF7FBFB011C3F
:102C2000686814F08BFE6860FEF7D8FF00232B6005
:102C30006B6049E71A7547E71C06002000007A44DC
:102C4000FFFFFF7F00BA5B4A5CA40100014B1860E4
:102C50007047C0463406002010B52F4B5A7C002A1E
:102C600006D10424FF349A605A601C820A7018E06E
:102C70001C7C0268012C10D0022C36D00024643257
:102C80003CDB9C600268642A40DD5A68322A0BD91A
:102C900001221C601A74FE32E8E7312A1CDD002292
:102CA0001A600268312A34DD00221A6001680022AD
:102CB000642901DD5A6801325A60016800226431DA
:102CC00001DA9A6801329A6001680022313101DB31
:102CD000DA680132DA6010BD1A68322A19D9002286
:102CE00003249A605A601C74C0E7313202DA002271
:102CF000DA60D6E7DA68322AF1D8D2E79A68322A5F
:102D000004D90222DC601A74013AAFE700225A604B
:102D1000C7E71A680132C8E738060020014B18607F
:102D20007047C0464C0600200222034BFF32DA8077
:102D3000013AFF3A1A72704750060020F8B5434C2A
:102D400006002068079D471C01D001302060607993
:102D500000280BD10623FF33A380053B2060FF3BF7
:102D60002870E371FEF7DAFDE07141E02079013867
:102D700003285AD8FDF77CFF02183D560120287021
:102D80001B78002B03D1069B1B78002B30D003232C
:102D9000237100232360013323721288096830688D
:102DA000FEF7C4FD207223E002222A70A379002BD3
:102DB00011D0642123684B43FA2189008B4217D339
:102DC0000023227123600133A371FEF7ABFDFEF7F0
:102DD000A7FDA0710CE00A221D4B9B6B5343226898
:102DE0009A4205D304232371013B2B70FEF7A2FD09
:102DF000F8BD237A002B06D064202368434315488E
:102E00008342F5D9C5E7069A1278002A04D0089AB9
:102E100013700123237106E00223226023712B70BB
:102E2000013BD1E703232B70E2E700222A70E3790C
:102E30009342EED0642123684B43FA2189008B42F0
:102E4000D6D3052322602371043B8AE75006002075
:102E5000F80A0020B70B0000014B18607047C0460D
:102E60005C060020F0B5DE4BC3B03C93DD4B3C99D3
:102E700018003D93FFF7FAFBDB4E3C98310002F05F
:102E8000DDFCDA4ADA4D146801222B88944225DCF5
:102E9000D84C0E222000D8491C30238317F048FA62
:102EA000D64BD74918003E93FFF7D6FECF4A2B8862
:102EB0001768012297421ADC6383D24B9A7F002A5B
:102EC0001ED101213A349977491859772270063377
:102ED000DA7F002A3CD00022DA7739E05100685AC4
:102EE000011C984200D9191C8BB20132CEE7510067
:102EF000685A011C984200D2191C8BB20132D9E7E2
:102F00005A7F012A00D188E0220032321278002A4A
:102F100000D182E0228B012A00D87EE001223A34DF
:102F20005A7722700122B84BB848DA770290B84835
:102F3000B24B0190B748B84AB8490090300000F051
:102F40004DFEAC4BB649DA681A614A625A681A609B
:102F5000A84CB44B626920681A6015F023FAB24E8F
:102F6000B24B30600693B24B28000593B14BA44A94
:102F70000493AB4B9D490393AF4B26000293AF4B99
:102F80000193A64B00933C9BFFF778FC9D4AAC4B0A
:102F9000926AAC491A60AC4AAC4B0292AC4AAD485A
:102FA0000192AD4A00923C9A02F074FF1C23E25E4B
:102FB000230017000024F18B0134081C09B2B94228
:102FC00000DD381C07B20236062CF4D100248949F2
:102FD0004885D98B0134081C09B2914200DA101CD3
:102FE00002B20233062CF4D1824B9C4F1A00988512
:102FF000FE7F844832321278011D002E13D1053C29
:103000004661FC77CC77AC3529783E33481E814148
:103010001970002A00D0AFE113E03A342278002A78
:1030200000D07FE753E7CC7F012C00D098E1002A45
:1030300000D0A1E14069312803D902203E33C8778E
:103040001A70704B5B6901336E4D85496B613A9123
:103050008449724B39918449784A38918349379130
:10306000834936918349359183493491834933911A
:1030700083493291834931918349309183492F911A
:1030800083492E9183492D9183492C9183492B911A
:1030900083492A918349299183492891834927911A
:1030A000834926918349259183492491834923911A
:1030B00083492291834921918349209183491F911A
:1030C00083491E9183491D918349844C1C918449F5
:1030D0001B941A913C991991824918915D49179155
:1030E000474916918049159180491491804913915F
:1030F00080491291804911918049109180490F9126
:1031000080490E9180490D9180493E980C918049EB
:103110000B9180490A918049099180490891804921
:103120000791804906918049059180490491804921
:1031300003918049029180490191804900913C9915
:1031400001F0C4FA7E4BAA7E354E1A700021306C15
:10315000FDF770FF0123002802D023785A1E934107
:10316000234D784C2A002C363370A5321278237800
:1031700004A913435A1E9341F52252181370724A40
:103180001E4B0592714A1E480492714A3C99039263
:10319000704A0292704A0192704A00923D9A00F081
:1031A000CFFE2378F6243E9304ABE4183E9B3D9477
:1031B000002B00D1E2E02B00A2331B78002B00D0C3
:1031C000F4E03D9A180013702B00A3331A78012302
:1031D000002A00D11300B83529784A1E9141D2E067
:1031E00035080020C1070020360800201007002005
:1031F0001407002004080020D20A0020BC0500208B
:10320000E2060020D8070020DE0700200808002082
:10321000180800207C060020E80A00201C08002076
:1032200084060020F40A0020EC0A0020E0060020BA
:10323000E106002000080020C90700201E08002029
:1032400080060020BC0700200C080020C4060020D7
:10325000CC06002020080020C8060020DD07002042
:103260000C0700200B0700200A0700200907002098
:103270000807002007070020060700200507002098
:103280000407002003070020020700200107002098
:1032900000070020FF060020FE0600203408002062
:1032A000BF060020BE060020BD060020BC06002090
:1032B000BB060020BA060020B9060020B806002090
:1032C000B706002033080020B5060020B406002011
:1032D000B3060020B2060020B1060020320800200C
:1032E00037080020D407002042080020B90500203C
:1032F000B8050020B7050020B6050020B505002060
:10330000B4050020B3050020B2050020B10500205F
:10331000B0050020AF050020AE050020AD0500205F
:10332000AC050020AB050020AA050020B407002052
:10333000B3070020E00A0020300800202E080020FB
:10334000B6060020C007002038080020C80700206B
:10335000C7070020C6070020C4070020C3070020BD
:10336000AC352878002800D153E6002A00D168E661
:1033700001223E33CA771A70002365E60123180044
:1033800019003D9A1370334E334AF57F002D0FD14B
:1033900002240127FF34D7771484F7772F4A304E61
:1033A00095873570002826D0002227E0012308E702
:1033B000D57F012D29D1002805D000269660023640
:1033C000D677274A1570274A234DD67F012E29D15B
:1033D000002B05D00027EF600225D577224A167012
:1033E000224D1D4AEF7F012F00D0C6E1002900D0F9
:1033F000B4E1002823D1184A92680132164882604D
:10340000002B00D1A1E10023A1E1002802D000257A
:103410009560D8E795680C2DD5D90125D577104A48
:103420001070D0E7002B02D00022EA60D8E7ED68E8
:103430000C2DD5D90125D5770B4A1370D0E79160B3
:10344000002B00D088E1D3680133D360024B1B69A5
:10345000013311E0DB070020D8070020040800201A
:103460003F080020D907002040080020DA0700208C
:10347000D3680133D3600023CB4ACC4D13613E9A0D
:103480000123002A04D02B009C331B785A1E934141
:10349000F72604AAB6183D9A33700292C44AC54B67
:1034A0000192C54AC5490092C5483200FEF726FC84
:1034B0003D9B1B78002B00D06DE12A00AC321278C6
:1034C000002A00D068E12B00A6331B78B7355A1EBE
:1034D000934133702B785A1E9341F625B94C04AAB8
:1034E000AD182B703194B84CB84B3094B84CB94AE5
:1034F0002F94B94CB9492E94B94CBA482D94BA4C72
:1035000004AE2C94B94C2B94B94C2A94B94C299400
:10351000B94C2894B94C2794B94C2694B94C2594AD
:10352000B94C2494B94C14952394B94C2294B94CB9
:103530002194B94C2094B94C1F94B94C1E94B94CA9
:103540001D94B94C1C94B94C1B94B94C1A94B94CA9
:103550001994B94C1894B94C1794B94C1694B94CA9
:103560001594F724A4191394B74C1294B74C1194E2
:10357000B74C1094B74C0F94F524A4190E943C9CAE
:103580000D94B54C3C940C94B44C0B94B44C0A94EC
:10359000B44C0994B44C0894B44C0794B44C0694BD
:1035A000B44C0594B44C0494B44C0394B44C0294BD
:1035B000B44C0194B44C009402F0B4F9B349B44E45
:1035C000B44F0191B449B54A3800B54B3E910091D2
:1035D00031003D92FEF758FCB24BB34918003F93BF
:1035E00000F0B4FDB14BB24C0493B24B32000393E4
:1035F000B14B39000293B14B3D9801933E9B009330
:103600002300FFF7DDF9AE4B1B78002B05D023001C
:1036100035331A780123002A03D1634BDB7E5A1E0F
:103620009341A84EA84932003C982B7000F080FAD4
:10363000A64BA74A0293A74B5B49A7480193009664
:103640002B00FFF77BFB0021A068FDF7F3FC0123B3
:10365000002804D0230030331B785A1E93419F4A20
:103660009F49137023919F495E4B22919E49794D4A
:1036700021919E49F52020919D4904AE1F919D49BD
:1036800080191E919C491D919C491C919C491B913C
:103690009C491A919C4919919C4918919C491791F0
:1036A0009C4916919C4914929C4A159113923F9AF9
:1036B00029001292614A1192994A1092994A0F92E6
:1036C000664A0E92664A0D92664A0C92664A0B92C0
:1036D000664A0A92664A0992664A0892664A0792C0
:1036E000664A0692664A0592664A0492664A0392C0
:1036F000364A0292374A0192384A00923A0000F064
:10370000C1FD2900884801F0C5FF22003732264B51
:1037100012789A7622685A6062691A60228B1A833C
:103720002200333212783934DA7622781A777F4AD7
:103730005368013353601369002B2FD19368013311
:1037400093600123136143B0F0BDC3680133C360CC
:10375000002900D08FE679E6D16077E602240026C2
:10376000EC77144D16612F70B04200D143E696609D
:10377000B34200D17CE6D6607DE6002902D0002568
:1037800015610FE612690C2A00D80BE60122EA77D0
:10379000084A117006E6012333709EE60133042BBC
:1037A000D0D90023CEE7C046D80700201407002058
:1037B0003A08002041080020390800204008002075
:1037C0003F0800203B080020FC060020B306002034
:1037D000FB060020B2060020FA060020B1060020F9
:1037E000F9060020B0060020F8060020F7060020A9
:1037F000F6060020F5060020F4060020F30600205F
:10380000F2060020F1060020F0060020EF0600205E
:10381000EE060020ED060020EC060020EB0600205E
:10382000EA060020E9060020E8060020E70600205E
:10383000E6060020E5060020E4060020A40600209D
:10384000B2070020D0070020B1070020BC050020EF
:10385000D00A002038080020E2060020BF06002021
:10386000BE060020BD060020BC060020BB060020CE
:10387000BA060020B9060020B8060020B7060020CE
:10388000B6060020B5060020B4060020AC060020D5
:10389000A8060020360800203E080020E80A002084
:1038A0001C08002018080020C0060020DC060020AC
:1038B00004080020D8060020D4060020D0060020EE
:1038C000C00700203C080020F40700203D0800202D
:1038D000F0070020E3060020DC070020FD060020A2
:1038E0000C0700200B0700200A0700200907002012
:1038F0000807002007070020060700200507002012
:103900000407002003070020020700200107002011
:1039100000070020FF060020FE060020CA07002046
:10392000C2070020C1070020B5070020680600205C
:10393000022370B50026504D504A2B60504B514C1D
:103940001A60514A6B605A60504B9CB02000EB608B
:10395000AE60FEF7D9FE2000FFF77EFA2000FFF7E9
:103960001FF82000FFF7DAF92000FEF787FA2000A1
:10397000FEF77EFB200002F00DFC200001F0BCFFF2
:10398000200000F011FC200001F03EFF2000FFF7B6
:103990005DF9200000F01CF9200000F01DFE200061
:1039A00001F068FE200000F0CBFB200002F066FA78
:1039B00029002000320000F0AFFA354A354B12687A
:1039C0001A60FEF74BFE01F025FF334A3348D368F7
:1039D0001361334A5362FEF749FF324C324B1B945A
:1039E000324C334A1A94334C33491994334C34488B
:1039F0001894344C1794344C1694344C1594344C1D
:103A00001494344C1394344C1294344C1194344C1C
:103A10001094344C0F94344C0E94344C0D94344C1C
:103A20000C94344C0B94344C0A94344C0994344C1C
:103A30000894344C0794344C0694344C0594344C1C
:103A40000494344C0394344C0294344C0194344C1C
:103A5000009400F0C7FD00F06DFA01F053FFFEF78F
:103A6000A5FF00F05FF8FFF75FF900F003FC01F03D
:103A700007FE1CB070BDC046440800206C06002044
:103A800060060020680600207006002074060020F2
:103A9000E40A00207C060020040800200008002022
:103AA000840600200C070020B30600200B0700202E
:103AB000B20600200A070020B106002009070020F6
:103AC0003208002008070020070700200607002012
:103AD000050700200407002003070020020700203C
:103AE0000107002000070020FF060020FE0600203E
:103AF00034080020BF060020BE060020BD060020BE
:103B0000BC060020BB060020BA060020B906002033
:103B1000B8060020B706002033080020B5060020B4
:103B2000B40600200122014B9A80704760080020F3
:103B300070B5244C150023685A1C01D00133236052
:103B4000E379002B05D10222FF32E2802B70237231
:103B500014E0A379022B1AD0032B20D0012B22D101
:103B6000227A002A0FD000228256002A07D000268F
:103B70000233A3712660FDF7ADFF2E7070BD0422E5
:103B8000A2712B70FAE71048FDF79CFFF6E70422BC
:103B9000A35E002BF2D00123A3710023D6E7236894
:103BA000632BF8D8EAE70B78002BE7D12B700233B0
:103BB000A371FDF782FF054A031C904200D9131C34
:103BC000A380DBE76008002068080020FF7F00007A
:103BD000014B18607047C0466C080020F0B51C000F
:103BE00097B0059004910392BC491A220FA81C9E1D
:103BF00016F09EFB1A22BA4908A816F099FB236812
:103C0000002B21D1B74B1A68B74B52681B689B0039
:103C10009B58186816F07EFAB44AB54B15F0ACFB09
:103C20000022B44BFDF7D2F900280DD0049B188870
:103C300016F070FA0C2308AA00930FABFEF71EFAD9
:103C400016F0D4FAAC4CE060AC4CE37F002B14D1FE
:103C50000223FF33E383FDF789FFE31CD877FDF7E9
:103C600091FFA083FDF786FF2060A34B986813F0B7
:103C7000D9FB1E9B186017B0F0BDA37F012B1CD190
:103C8000049BA28B1D88E31CDB7F551BAA4265D2D7
:103C9000002B0CD024689A49201CFDF7E5F9002878
:103CA00005D10021201CFDF7CBF900286AD00322A2
:103CB000924B9A77904BDA681A60924B8F4CDB7F6D
:103CC0008D4D002B64D102232F68FF3323848C4950
:103CD000381C13F033FE316814F016F86060336856
:103CE0006F60A3600023E36033682061AB60049BD6
:103CF000854F1E887B890025804CB34208D9039BE1
:103D000000211868FDF796F9A84201D065690135D0
:103D10006561BB88002532339BB29E4208D9039B64
:103D200000211868FDF786F9A84201D0A569013580
:103D3000714BA5615C68724D201C291CFDF794F93C
:103D40001D9B002808D10025201C291CFDF778F9AF
:103D50001D9B002800D1BEE01D6086E7002BA6D089
:103D6000232DA4D824686649201CFDF77DF900287E
:103D70009DD10021201CFDF763F9002897D1232D48
:103D800000D172E702225D4B9A775B4B1C6094E78F
:103D9000671CFE7F012E23D0022E27D0059B1B78A7
:103DA000002B43D0039B00211E68301CFDF742F915
:103DB00000283BD16068311C13F036FCFE216060A6
:103DC0008905E068FDF736F9002805D0039B2069D6
:103DD000196813F029FC206102224C4BDA7786E740
:103DE0000023A36163610323FB7780E76368059386
:103DF000A3680598191C0693FDF736F9069B002861
:103E000007D100210598FDF71BF90790002803D082
:103E100000236360FE776AE70699059813F08EFD2C
:103E2000374913F071FF079B6860DAE7049B1E882F
:103E3000354B9B8832339BB29E4206D9039B0021AF
:103E40001868FDF7F7F8002810D10023A3612E4B66
:103E50005B89B34207D90025039B291C1868FDF72D
:103E6000E9F800282BD10023636140E7A3690A2BFE
:103E7000EDD9FE21E6688905301CA768FDF7DAF860
:103E800000281AD02469391C201CFDF7D9F8002815
:103E900000D01F4E1F49201C13F050FD311C13F0A1
:103EA00033FFFDF773FE1B4913F02EFF0022134B67
:103EB000A86098605860DA608EE727618CE76369D4
:103EC0000A2B00D813E7FE239B05E360022325613C
:103ED0000134E3770BE71C60C7E6C0465AAB01002C
:103EE00040AB0100A8080020AC0800209A999999DD
:103EF0009999B93F000010409408002070080020F4
:103F00000000C84272080020F80A00207108002052
:103F10003333833F00BA5B4A034B1A60034B19608B
:103F2000034B18607047C046AC080020A80800206A
:103F3000A40800200222014B5A717047B0080020EB
:103F4000F8B500260978069F0B9D1278B1420BD078
:103F5000B24209D100228256B24205D1C8221B6862
:103F60005200C8339A427641704C714A238893427A
:103F700001D801332380A379002B05D10122A2713E
:103F80000A32A270238036E0A07801380B2800D9CD
:103F9000BDE0FCF76DFE060C1117321356565A8A17
:103FA0008C9E06230420A370FDF79CFEF8BD637968
:103FB000012B10D10733F5E7FDF79CFE0B23A3700F
:103FC0000023DFE72379012B05D102200933A370F9
:103FD000FDF780FEEAE7002B04D0962322885B00E1
:103FE0009A42E3D30520FDF77DFE03230020A37052
:103FF000FDF768FE00232B70D8E7E378012B07D18B
:104000000220FDF773FE0923A37000232380CDE770
:10401000002B04D0962322885B009A4206D3052009
:10402000FDF760FE0220FDF761FEDEE73E78002E20
:10403000BCD10220FDF75AFE0B232680A3702E7000
:10404000B4E73B78002BDED1B8E7079B1B78032B46
:1040500007D10F20FDF73AFE0C230020A37020802B
:10406000A2E70A9B1B78012B07D10023314823804C
:1040700005336380FDF718FE98E7099B1B78002B3A
:104080000AD101330220A370FDF712FEFDF716FEE0
:104090000F20FDF723FE89E7962322885B009A42D2
:1040A000A0D23B78002B89D080E707237AE73B78C2
:1040B000012B00D07AE7002E01D02B70A3E72388D4
:1040C000132B00D872E703233000A370FDF7FAFD2D
:1040D000B5E7079B1B78012B0ED0022B00D07CE7A5
:1040E00000250B330320A3702580FDF7E1FD0F2091
:1040F000FDF7ECFD280057E70423A37000230F20F1
:104100002380FDF7E3FD0C48FDF7CAFD4EE7089B51
:104110001B78012B00D060E70133A3700023074810
:104120002380FDF7B9FD0F2052E7C046B0080020FC
:10413000FE0F0000B3080020B4080020B5080020DE
:10414000014B18607047C046B808002070B504687D
:104150000D00201C1049FCF787FF002819D1002111
:10416000201CFCF76DFF002800D00024201C15F057
:10417000F5FF02000B000020084915F0C5FB084AB6
:10418000084B15F0F9F8FEF709F913F063F92880E8
:1041900070BD014CEAE7C0460000A0420000544058
:1041A0005555555555550940014B18607047C04647
:1041B000BC08002010B50024A14256D1017801347A
:1041C000002952D1117800294FD181790134002979
:1041D0004BD141780134002947D1017901340029BC
:1041E00043D11179002940D14179013400293CD1D2
:1041F0005279002A39D1827A0134002A35D1827865
:104200000134002A31D1C2780134002A2DD1C27A7A
:10421000002A2AD11B780234002B26D1C37901341D
:10422000002B22D1037A0134002B1ED1C37B002B3B
:104230001BD1437B0134002B17D1037B0134002BAE
:1042400013D1437A0134002B0FD1039B01341B7827
:10425000002B0AD1029B01341B78002B05D1049B53
:1042600003341B78002B00D1153C014B9C8010BD02
:10427000C00800200122024B52429A807047C0467B
:10428000C0080020F0B51B789BB005931192059AE9
:1042900016AB1A70209A0D90127810915A700692EF
:1042A000219A12789A700792229A1278DA700892FC
:1042B000239A12781A710992249A12785A710A92E2
:1042C000259A12789A710B92269A2C9F1278279928
:1042D0000C92DA712D9A28981278299C9A732E9A4A
:1042E0002A9D2B9E12783F780978007824782D78C3
:1042F00036785F731743197258729C72DD721E73A1
:10430000DA733E430D9B35431B782C430C9A2043B4
:104310000D9301430B9B0A4313430A9A1343099AD3
:104320001343089A1343079A1343069A1343059AB3
:10433000134301220F92002B14D12F9B1B78002BCB
:1043400010D1309B1B78002B0CD1319B1B78002B9C
:1043500008D10D9B002B05D0339B1B781A00531EF0
:104360009A410F92349B12A91B78984D0B700593BC
:10437000359B1B784B700693369B1B788B7007938D
:10438000379B1B78CB700893389B1B780B71099374
:10439000399B1B784B710A933A9B1B788B710B935B
:1043A0003B9B1B78CB710C933C9B3F9C3D9A2678A2
:1043B000409C3E982778419C1B78247812784C7357
:1043C000A446429C007824780B728C73439C4A72FA
:1043D00024788872CC737E4CCE720F7321680E9352
:1043E000A94201D801312160A17A00290CD1012311
:1043F000A372784B2160E380329B186813F012F8A7
:10440000C0B2FDF7DBFA5DE00D9D6B4669424D41A0
:104410003C215B18197863461F433E4330430E9B93
:10442000024313430C9AA7791A4313000B9AEDB277
:104430001A4313000A9A1A431300099A1A431300E5
:10444000089A1A431300079A1A431300069A1A434C
:104450001300059A1A4313005A1E9341109ADBB2B7
:104460001678012F0AD0022F00D16BE0002E00D069
:1044700097E0584B6672E3802660BDE7002E0AD0B5
:1044800003230025A3712572FDF794FA022325600A
:104490006372642014E0207A0138032843D84C4C1E
:1044A000FCF7E6FB02291E290423E05E002308280E
:1044B0000ADC052223602272FDF778FA0423E05E0D
:1044C000FDF73CFA1BB0F0BD032222722360F7E730
:1044D0000B43F7D13F4BE3800023237223608BE72C
:1044E0006422236853439132FF329342EAD302237A
:1044F0002372002353E06420226842439130FF304E
:104500008242E5D3012323720023A380339B290039
:104510000293319B12AA0193309B16A800932F9B04
:10452000FFF748FECEE76422236853439132FF32FF
:104530009342C7D3042326602372FDF73BFAFDF7AD
:1045400031FABFE7002E07D00323E380FDF732FAEC
:104550000023677223609CE70B4306D00127E780A6
:10456000FDF720FA2772A680D0E7E279012A0CD164
:10457000119A1278002AA5D0642122684A43913109
:10458000FF318A429ED3E771A8E7642122684A433B
:104590009131FF318A4200D294E70122E271236017
:1045A000CDE76420FA222368617A4343520001294F
:1045B00006D1934200D285E702236372002385E788
:1045C000934200D27EE70123637292E7FEFFFF036E
:1045D000C008002002020000014B18607047C0466E
:1045E000CC08002030B50024354D2C706C70AC70B8
:1045F000EC702C716C71AC71EC712C726C72AC72D1
:10460000EC722C736C73AC73EC732C746C74AC74B0
:10461000EC742C756C75AC75EC752C766C76AC7690
:10462000EC762C776C77AC77EC7704700898047094
:10463000099804700A9804700B9804700C98047020
:104640000D9804700E9804700C7014701C70039B0D
:1046500001221C70049B1C70059B1C70069B1C7027
:10466000079B1C700F9B1C70189B1C70199B1C7067
:104670001A9B1C701B9B1C701C9B1C701D9B1C7030
:104680001E9B1C70109B1C70119B1C70129B1C703D
:10469000139B1C70149B1C70159B1C70169B1C702C
:1046A000179B1C70074B1900F3310A701C701A63BA
:1046B0005A6305499C63D9625A601A8130BDC0466D
:1046C000C8090020D008002008090020F0B59BB0E0
:1046D0000693399B0C921A780090E44B1191002AB2
:1046E00001D100F0AFFF1A000121F4321170279AB6
:1046F00012780792289A12780892299A12780D92C5
:104700002A9A12780E922C9A127801922D9A177882
:104710002E9A127809922F9A12780292319A127870
:104720000392329A12780492219A0020105E5A7AEB
:10473000002A01D000225A72CC4BDC6A0023226886
:10474000012A0AD0FE21012289052260A360E360CC
:1047500023616361A161E3612271A369A568059387
:10476000E36813AE13932369149363691593E369A4
:104770000A9313F0CBFD291C0F9012F055FF0B90FC
:10478000059813F0A3FD0021451E0A98FCF752FC82
:10479000AD00002800D1A2E271590B9812F044FF3D
:1047A00010900F9B13AEB24905987351FCF742FC71
:1047B000002800D096E2FE210598890512F034FF0A
:1047C000051C00210A98FCF735FC002800D198E26E
:1047D000FA211098890513F097FA05900B9B002198
:1047E000A360139B0A98E360149BA5612361159B4A
:1047F0006361FCF739FC002800D185E2FE210A98AC
:10480000890513F0BFFB0E223799E06116A815F059
:104810008FFD16A8FDF74EFE964A944B117800299D
:1048200001D101311170D8331A8893498A4201D8D5
:1048300001321A8091488D4B02888A4201D8013298
:104840000280DC331A888A4201D801321A808C48EF
:10485000864A03888B4201D8013303801100F0316E
:104860000B78002B00D051E201200870101DC367A7
:1048700010001400C03003600220EB3420701400DC
:10488000B03423601400E83420701400A83423608E
:104890001400E73420701400D03423601400EE3488
:1048A000207014009434236014008C3423601400AE
:1048B000744DE03425601500734CE43573492C8049
:1048C0003A9D136713660B710B754B714B758B72A9
:1048D0008B70CB70CB720B724B722B701500EF3557
:1048E00028701500CC352B601500C835CB714B7383
:1048F0002B601500EC352C801400B43423601400B8
:104900000325E93425701400B83423601400013500
:10491000EA3425701400E6329C340B734B700B7034
:104920000B7423601070CB73069B1A88584B9889C0
:104930004E4B824201D900F050FE196E01311966CA
:104940000023824202D1494B5B6E0133002047496C
:104950004B66369B18560023013001D08B6E013315
:104960008B66219B00201B5E4A48834201DD00F0DC
:1049700038FEC86E0130C86600203C4908674448CC
:104980002024045F00209C4201DB486F013048670F
:104990003F481E24045F00209C4201DA886F0130EA
:1049A0003249886787208000834201DD00F025FEC0
:1049B000C86F0130C8670020374C2C49E067344885
:1049C0002824045F00209C4203DB08000830C06FED
:1049D00001300C000834E0672D4C2620255E0020B5
:1049E0009D4202DA8831086801302C4B1F4E186056
:1049F00021890023914203D333008C331B68013398
:104A000031008C310B60224B59890023914203D82D
:104A1000330090331B6801332148144903601C485C
:104A20000C9B44881B880020A34203D308009430C9
:104A3000006801300D0094352860154800258088F5
:104A4000984202D398310D6801351649143C0D6027
:104A500014216143389C0548256800248D4223D3E6
:104A600004009C34246801341EE0C046D0080020B5
:104A700000004040C1090020FE0F0000AA090020EC
:104A8000AE0900200301020202020000C809002052
:104A9000F80A00204E020000D40800205809002027
:104AA000600900206809002005009C352C60BA4C84
:104AB0000919389C256800248D4202D8A03004686A
:104AC0000134B648B649046016A80424005FB54C0A
:104AD0002C25655F0024854203DC0C00A434246887
:104AE00001340D00A4352C60209C0025655FAD4C81
:104AF0002A27E45F0027A54204DAA04202DAA8319F
:104B00000F680137A849A64C0F60A6492427CF5F3C
:104B10000021874203DC2100AC3109680131270004
:104B2000AC3739609F492227CF5F0021BD4205DAAB
:104B3000B84203DA2100B031096801319B48984D31
:104B4000016000990868002805DA802700213F06E7
:104B5000B8420BD04042964F0021B84206DC9B1A67
:104B6000962B03DD2B00B433196801312300B433D5
:104B7000196005988F49FCF777FA002803D02300C5
:104B8000B833186801302300B83318608A49059893
:104B9000FCF756FA002803D02300BC331868013014
:104BA0002B00BC331860229BFA2100229B5E2A0056
:104BB0008900C0328B4201DC00F02BFD116801310D
:104BC000116000222100C4310A60009A75491768FB
:104BD00088690022874203DD2200C8321268013250
:104BE0002000C8300260009A0969106800228842DB
:104BF00002DACC34226801322900CC310A602A0062
:104C00001900D032C83101DB00F011FD1368013307
:104C100013600023D4363360684B3B991A780A70CE
:104C20005A7A44990A709A7A45990A70DA7A4699BA
:104C30000A701A7B47990A705A7B48990A709A7BC6
:104C400049990A70DA7B4A990A705A783C990A7035
:104C50009A783D990A70DA783E990A701A793F99E4
:104C60000A705A7940990A709A7941990A70DA79EA
:104C700042990A701A7A43990A701A7C4B990A7001
:104C80005A7E54990A709A7E55990A70DA7E56991E
:104C90000A701A7F57990A705A7F58990A709A7F3A
:104CA00059990A70DA7F5A990A705A7C4C990A709D
:104CB0009A7C4D990A70DA7C4E990A701A7D4F9948
:104CC0000A705A7D50990A709A7D51990A70DA7D5E
:104CD00052990A701B7E539A13701BB0F0BD0023CB
:104CE00010935EE5B168706812F09EFC011C706064
:104CF000139812F099FCFE2500231390AD050B9339
:104D00005FE50023059369E500207CE5119B197898
:104D10001300E1331878012833D1002907D002228B
:104D2000274B1A700022274B1A70FCF763FF2649A5
:104D3000219B0C7800229B5E0021194A1948012C06
:104D400044D0022C00D184E01E24005F984200DB96
:104D500091670D9A012A08D0369A1278012A00D953
:104D60007DE00F4A926F132A79D9002201240C4B5F
:104D700006205A67E2331C70FCF76CFF0F4B1C7166
:104D800029E0002902D101221A70D0E7F13213780C
:104D9000002BCCD0C3E7C04630F8FFFF70090020DD
:104DA000D0080020F80A002078090020800900209F
:104DB0008713000000002F4400801D44C809002014
:104DC000B1090020C1090020B20900202024005FA1
:104DD00098422DDA5167C749219B087800229A5ED4
:104DE000C549C64B012841D0022800D19AE02620AF
:104DF000095E914202DB0021883319600E9B012B72
:104E00000AD0369B1B785BB2013300D091E0BC4BDB
:104E10001B68132B00D88CE000220124B94B07201B
:104E2000DA67B44B1C70FCF715FFB74B5C7137E0C9
:104E30000D9B002BCFD1536F632BCCD900220321C4
:104E4000AE4B9A67DA66E2331970AF4B1A711A7576
:104E5000C1E7962080008342F0DA1167EEE7AB4AA3
:104E60009342B8DD0022A54BDA66B4E72820095E3C
:104E7000914203DA08330022DA6711E00E9A002A21
:104E80000ED10833DB6F632B0AD900229C499B4B60
:104E90000A600321DA67E33319709B4B5A715A7524
:104EA0009B48229B047800229A5E0021934B012CA0
:104EB00055D1E124A400A24241DDC43319609549D3
:104EC0008E4B08788C4A012876D116A80424005FFE
:104ED0002424125F90425FDA0022AC331A608E49BC
:104EE000864B0878844A012800D09FE016A8042445
:104EF000005F2C24125F904200DB85E00022A43387
:104F00001A608648229B04780021595E00227B4B60
:104F1000012C00D016E11C00D434963100DBAEE049
:104F20002260B5E07E498A42AFDC00220433DA67B2
:104F3000ABE787239B009A42B2DD704B9BE7029A56
:104F4000002ABCD11A00C4321268632AB7D9029A67
:104F5000C0331A60022303706B4B9A72AFE7FA20DA
:104F60008000824210DCC0331960029B012BA6D165
:104F7000002201246B4B0A201A60654B1C70FCF761
:104F800069FE614B9C729AE7029A012AF0D0C03305
:104F90001B68092BECD892E7079A002A9FD11A00C8
:104FA000AC321268632A9AD9079AB0331A60022386
:104FB0000B70554B9A7092E72223D35E209A002102
:104FC000525E9A4204DA16AA0421525E9A4202DB29
:104FD0000022554B1A60079B012B09D0369B1B788A
:104FE000012B00D97BE7504B1B68132B00D876E7C9
:104FF000002201244D4B08201A60464B1C70FCF720
:1050000029FE414B9C706AE7089A002A00D078E795
:105010001A00A4321268632A00D872E7089AA833EB
:105020001A6002230B70384BDA706AE72A23D35ECA
:10503000209A0021525E9A4204DA16AA0421525E96
:105040009A4202DB00223A4B1A60089B012B0AD0DD
:10505000369B1B785BB2013300D052E7344B1B68A0
:10506000132B00D84DE700220124324B09201A608F
:10507000294B1C70FCF7EEFD234BDC7041E72168E7
:10508000632905D9D0331A60022303701E4BDA72EC
:1050900029480C9B04781A881749184B012C71D1A8
:1050A0008988914260D2002298331A602348069B77
:1050B00004781A881049114B012C00D091E04989DD
:1050C000914200D87BE0002290331A601C4A0B4BBF
:1050D0001178012900D1A2E0022900D1BAE00649E5
:1050E00006988C8900880021A04200D83DE119660D
:1050F000B0E0C046B3090020F80A0020D008002024
:1051000058090020D8080020C80900204E020000DD
:10511000BB090020B8090020B7090020BE09002003
:105120002502000094090020800900207C0900204D
:105130007809002074090020B5090020B409002076
:10514000B00900201C00D034C83100DBE8E621683B
:1051500009299DD90124D43304700B201A60FCF76F
:1051600079FDB24BDC7293E7002F9FD11A00983281
:105170001268632A9AD994331F6002230370AB4BE1
:105180001F7293E74988914202D9002294331A6032
:10519000012F08D0A64BA74A99790A234B431268DE
:1051A0009A4200D282E700220124A34B20001A6019
:1051B000A24B1C70FCF74EFD9C4B1C7276E7099AC3
:1051C000002A00D082E71A0090321268632A00D8C1
:1051D0007CE7099A8C331A6002230370934B5A724E
:1051E00074E70989914202D200228C331A60099B2C
:1051F000012B08D08E4B924A997B0A234B431268AD
:105200009A4200D262E7002201248E4B02201A60EB
:105210008D4B1C70FCF71EFD844B5C7256E7369874
:10522000007840B201300CD100229A66804B069A79
:1052300011889A89854B914200D388E000225A66F2
:1052400008E096209B6EC0008342EFD302231370C8
:105250003A9B19707E4A7D4B1178012900D08FE06E
:10526000DE331B88132B07D9019B002B04D102339B
:1052700013706E4B019ADA71764A744B11780129DA
:1052800000D089E0049900290BD11900DC3109888C
:10529000632906D90499CC33196002231370634B38
:1052A00059736D4A694B1178012900D098E0039930
:1052B00000290DD118009621DA3000888900884233
:1052C00006D30399C833196002231370574B19731F
:1052D000624B5E4C1A78012A25D0022A00D0CBE01E
:1052E000239A1278002A1ED101320E201A70FCF780
:1052F000B1FCE56DA46D002220002900584BFBF79E
:1053000065FE002800D18FE0002200232000290044
:10531000FBF77AFE002804D02000290012F09AF84A
:1053200080B2FCF71FFC4F4D484C2B78022B00D964
:10533000D4E0002B00D0E2E04B490598FBF794FE47
:10534000424C002800D00EE1B8342060DFE0962205
:10535000596E9200914200D27CE7002203211A6626
:10536000E03319703A9B1A7074E7186EC72800D89A
:1053700070E79966596601231370FCF7E7FB69E74C
:105380000199012900D077E711700022DE33032054
:105390001A80FCF75FFC6CE70099254A08681169E0
:1053A000884212DB0022CC331A60049B012B00D010
:1053B00077E701240022274B04201C702B4B1A8016
:1053C000FCF748FC194B5C736BE704990129F0D09A
:1053D000117D0A224A43CC331B689342E9D860E727
:1053E0000099134A08689169884212DC0022C83388
:1053F0001A60039B012B00D06AE701240022164BA0
:1054000005201C701A4B1A80FCF724FC074B1C73F8
:105410005EE703990129F0D0117F0A224A43C8337D
:105420001B689342E9D853E712487AE7C80900207D
:10543000F80A00206409002068090020B50900204E
:105440005C09002060090020B4090020D008002079
:10545000BF090020BD090020BC090020B9090020B7
:105460000000F040BA09002000002F44AC090020E1
:10547000AA090020FFFF00000C9A009B1088069AE2
:105480001B681288801A002B04DA802212069342CD
:1054900005D05B426D4A934201DC962802DC002273
:1054A0006B4B1A60239B1B78002B09D1684B1B6840
:1054B000C82B00D837E7359B1B78002B00D132E78B
:1054C0000222644B644C1A7014F0F6FDA065E1658D
:1054D000FCF740FB0122614B5A7024E7032B00D0FC
:1054E0002AE72600249BF2361B783278134323D117
:1054F00001240F202C70FCF7ADFB347007E0002373
:105500000122BC34236003332B70544B1A701422D5
:10551000389B53491C68534B0D785B880020143B23
:105520005A434D4B012D41D14F4D521994422AD926
:10553000A0331860FFF7F8F94C490598FBF780FD98
:105540002300BC33002801D11860E0E71B68092B59
:10555000DDD9042200232A70404AB8343370236016
:1055600013701374D3E72300B8331B68092BCED90B
:10557000FCF7F4FA23000222EA331A700023D8342D
:10558000364A2380EDE7002F01D0FFF7CDF91A004E
:10559000A0321268632A01D8FFF7C6F99C331F6056
:1055A00002230B702D4BDF73FFF7BEF91D009C35F6
:1055B000A24202D92860FFF7B7F92A68632A01D806
:1055C000FFF7B2F90124A033186010200C70FCF72B
:1055D00041FB224BDC73FFF7A7F900211966FFF7A7
:1055E000B2F90020C86696208000834201DAFFF7F6
:1055F000C3F9086F0130FFF7C0F90020C8671C48E5
:10560000834201DCFFF7D7F90431C86F0130FFF79F
:10561000D3F900211160E1229200934201DDFFF7EE
:10562000D0FA2A00C43212680132FFF7CBFA002107
:105630001160963301DAFFF7ECFAD4352B680133A9
:10564000FFF7E8FAF4331A70FFF747FB87130000FF
:1056500084090020B9090020D0080020C8090020D2
:10566000B6090020F80A002030F8FFFF00801D4432
:1056700025020000014B18607047C046E809002071
:105680000022034BDA709A705A701A707047C04645
:10569000EC0900200B78F7B5584C002B17D0E379B4
:1056A000002B00D18DE0A379012B00D08DE0FF22EB
:1056B00023885200934201D801332380637A002B60
:1056C00000D087E08122520022812380F7BD02783A
:1056D000002AE4D0A2784A4D0192E678571C721C49
:1056E000D2B2FFB200920B2F33D9052E4CD01F003F
:1056F000EB70AB7022790023561CF6B21F2A08D13A
:10570000404B01935B78002B03D06B78012B42D187
:1057100001236B706379312B47D13A4B1B78002BF7
:1057200041D02B78012B3BD132236371202E00D93D
:105730000026009AE3792671A770062A3DD9002237
:10574000E27093423DD0A379012B40D10223A37193
:10575000ADE7052E04D1EB78012B17D1062300937A
:10576000053E73425E41019A0023EE700A2AC0D1C1
:10577000244EB378002BBCD0AB78012B02D0FCF7C1
:1057800072FA70700123B4E71F00E4E7FCF766FAD1
:105790001C4B9870E2E7FCF76BFA019B1870B7E7B7
:1057A000FCF76BFA01232B70BEE700220133DBB25A
:1057B0002A70322BB9D91300B7E7009AE270002B98
:1057C000C1D10223FF33E38071E70123BFE7FCF778
:1057D00059FA6CE7237A012B03D10133237200239A
:1057E00073E7642322885343FA22D200934200DAFB
:1057F0006CE701232372FCF74AFA67E7F0090020FF
:10580000EC090020FA090020014B18607047C046DF
:10581000000A00200122024B52421A807047C04603
:10582000040A00200122044B52421A8000225A80AE
:105830009A8002707047C046040A002070B5037851
:105840000D002B4C002B50D0A379002B04D1080065
:10585000FFF7E8FF0123A371E678002E0ED10123A4
:10586000E370FCF723F902232671A3702E70033B2B
:1058700023802048FCF7C2F8208070BDFCF716F9A1
:10588000A678012E12D16379002B05D10222237153
:10589000A2702B70013BEBE7FCF7C4F86671FCF7D4
:1058A000CBF86671FCF7EEF86671E6E70022A35EBE
:1058B000002BDED12279002ADBD001222A7063710D
:1058C000A270FCF7AFF8431E9841C5B26571FCF7B2
:1058D000B3F805436B1E9D41EDB26571FCF7D2F83C
:1058E00005436B1E9D416571C7E7A371C5E7C046BF
:1058F000040A0020080A0020014B18607047C046C7
:105900000C0A00200122054B0549CA77991CCA7769
:10591000190029332A310A701A707047140A0020BE
:10592000190A0020F0B589B00692002207931A9B4D
:10593000019002919A562C9B1F9F1A70129B279CD4
:105940001B78289829993D9D002B04D10F9B1B782B
:10595000002B00D191E0013A531E9A41D3B21B9A19
:1059600012785642724122701C9A12785642724145
:1059700002701D9A2A9E12780A70219A127832704B
:10598000007809780490002024780591AE490394AA
:10599000CE7F834223D1119B1B7883421FD1149B5E
:1059A0001B7883421BD1159B1B78834217D1169B12
:1059B0001B78834213D1179B1B7883420FD1019B25
:1059C0001B7883420BD1029B1B7833431A43100090
:1059D000059B1843049B18432043434258413E9B78
:1059E000C2B21A70994BDC7FA41A631E9C41984B7B
:1059F000DB7F9B1A5A1E93411C43964B5A78531EC9
:105A000059424B41A34203D0032A01D0FCF796F838
:105A10000022904B5C70139B19782C9B9A56229B0A
:105A20001B78013234D0012932D12B9A1370002611
:105A3000894B2E70DA6889498A4201D80132DA60CE
:105A400019001A0028310C780832002C4ED10120A0
:105A50001C6105230870D377814B20001C705C709B
:105A6000FCF768F8259B1C70209B1B78012B00D04D
:105A70004DE1794B1B6901334AE1079B1B78002BF1
:105A800000D068E7199B1B78002B00D063E766E71E
:105A90002B9A1370119A1278002AC8D10E9A127894
:105AA000002AC4D1069A1278002AC0D1149A12781A
:105AB000002ABCD1159A1278002AB8D1179A127808
:105AC000002AB4D1019A1278002AB0D11E43029B59
:105AD0001B781E43059B33431E00049B33431E006B
:105AE000039B33431E0073425E41A1E7D07F013820
:105AF000042800D9EAE0584BFBF7BAF8030D192C3B
:105B00008C00DB68042BAFD900240522524B1C61AA
:105B10000833DA77A0E7DB68132BA5D9E0221E9BB8
:105B200092001B8864339BB29342EDD39CE72B78A1
:105B3000002BE9D0209B1A78474B002A02D0002284
:105B40005A6191E75B691D2B00D8E0E00123269A9A
:105B50001370D9E72A78002AD6D06421DA684A433C
:105B600040498A4217D8C72A08D91A002A3212781F
:105B7000002A10D02B331B78002B0CD01E9B002248
:105B80009A5EC8239B009A4205DA374B22215B5E5E
:105B90000A3B9A4211DA002402212F4B334A304D3E
:105BA0002000D177DC602C70FBF7C4FF0123259A1D
:105BB0001370269B1C706C7056E7239B39681A681B
:105BC000254B91420BDC00229A61FBF7ACFF284B7E
:105BD000214C1870FBF7A0FF2A34207044E76421A1
:105BE0009A694A432D31FF318A42EED31A002A3294
:105BF0001278002AE9D01A002B321278002AE4D059
:105C0000174A9039FF391170002208335A61063261
:105C1000DA7729E72B78002B00D10CE13B68002BC9
:105C200028D02C9B1B785BB2013300D003E15BE0F2
:105C30003B68002BF5D1E1221E9B92001B88643348
:105C40009BB29342A7D8ECE7170A0020180A00205D
:105C5000190A0020100A0020140A0020FEFF0F007D
:105C6000440A0020ED070000F80A00201C0A00206A
:105C70003F0A0020E1221E9B92001B8864339BB2E6
:105C80009342D8D8FBF748FF764E774C3070FBF73D
:105C90004AFF764B18703378002B00D07BE7628D7B
:105CA000002A00D0C3E00120714B0421587023006A
:105CB0000833D977A261E260FBF73CFFFBF733FFC3
:105CC0006A4B1870FBF728FF3070CDE62A78002A5F
:105CD00000D119E7209A1278012A14D10022DA6142
:105CE000209B1B78012B12D1002403225E4B604DB8
:105CF0005C610833DA77012320002B70FBF71AFF71
:105D0000259B1C7055E7DB690A2B00D943E700236C
:105D1000554A1361209B19780023994201D1536998
:105D200001335361239B386819680023884201DDE1
:105D3000936901334C4A9361209B19780023012910
:105D400001D0D3690133D361494B1878531CD97FF3
:105D50000123814204D10232D37F1B1A5A1E934180
:105D6000444ADCB211784A1E55426A419A4206D032
:105D7000032904D0431E9841C0B2FBF7E3FE002183
:105D80003D4A3C4B1170019A1C7012782D99364B8C
:105D90000A70139A369912780A70149A3799127801
:105DA0000A70159A389912780A70169A39991278E9
:105DB0000A70179A3A9912780A70189A3B991278D1
:105DC0000A70199A3C9912780A70029A2E991278E0
:105DD0000A70069A2F9912780A70079A30991278E9
:105DE0000A700E9A319912780A700F9A32991278C5
:105DF0000A70109A339912780A70119A34991278AD
:105E00000A70129A359912780A703F9A1178DA1C42
:105E1000D1773E9A191D1278CA77591DCA77144A4C
:105E2000591C12780233CA77DA7709B0F0BD2B78A3
:105E3000002B00D0FCE6209B1A780B4B012A02D0E5
:105E400000221A6110E619693B2900D811E61900F1
:105E50000831CA770021D960054B1A700223269AAF
:105E6000137001E63E0A0020140A00203F0A0020B9
:105E7000440A0020100A0020400A00200322034B9D
:105E80001860034B5A701A707047C046480A0020C9
:105E9000100A0020F0B51F0013788FB00500B44C35
:105EA0000991002B00D15FE12300012234331A70E5
:105EB000086812F077FA0190206A12F073FA011C58
:105EC000019812F05FF80021FBF7CEF8002800D10E
:105ED000C5E00E2229000AA814F02AFA6168019888
:105EE00012F050F8A34911F00FFF159B051C186024
:105EF0000AAB0020185E12F009FA0AAB02900220E9
:105F0000185E12F003FA0AAB03900420185E12F038
:105F1000FDF90AAB04900620185E12F0F7F90AABFF
:105F200005900820185E12F0F1F90AAB06900A20DD
:105F3000185E12F0EBF90AAB07900C20185E12F015
:105F4000E5F9A1680890039812F01CF88A4911F04D
:105F5000DBFE291C11F0F2FC2168061C029812F0ED
:105F600011F8854911F0D0FE291C11F0E7FC311C15
:105F700011F026F8E168061C049812F003F87E4937
:105F800011F0C2FE291C11F0D9FC011C301C11F0CB
:105F900017F82169061C059811F0F4FF764911F0F5
:105FA000B3FE291C11F0CAFC011C301C11F008F8CA
:105FB0006169061C069811F0E5FF6F4911F0A4FE17
:105FC000291C11F0BBFC011C301C10F0F9FFA16969
:105FD000061C079811F0D6FF674911F095FE291CA1
:105FE00011F0ACFC011C301C10F0EAFFE169061C4A
:105FF000089811F0C7FF604911F086FE291C11F0C6
:106000009DFC011C301C10F0DBFF149B5B491860E9
:10601000FBF734F8431E98410025594C2071029C2F
:1060200001356B000AAAD05E12F070F9211C10F045
:10603000C7FF041C062DF3D1514B029A18604C4B3C
:106040001A60019A5A60039A9A60049ADA60059A73
:106050001A61069A5A61079A9A61089ADA61444C61
:10606000484A238E934201D80133238623003333D9
:106070001B78434D002B09D1A36263620223FF33D7
:1060800063860023169A3B60136037E026003236A1
:106090003378012B11D0022B4FD00023169A1360B6
:1060A0000023E36202333370FBF758FD0C20FBF74B
:1060B000D1FDFE239B053B6020E00026169B3E6041
:1060C0001E6031492868FAF7D9FF002800D16062C4
:1060D0002B79002B00D1A3626421636A2B4A4B43C6
:1060E00093420BD9A36A4B43934207D9230003225F
:1060F00032331A7000232386169B1E602E682249B5
:10610000301CFAF7BBFF002801D0606A0130002381
:1061100060622A799A4201D0A36A01331C49A362C2
:10612000301CFAF78DFF002801D0E06A0130099B8E
:10613000E0621B6823620FB0F0BDFE239B053B604D
:1061400013492868FAF77CFF002801D1E062D5E7FF
:106150006422E36A53430D4A9342CFD90023A362DA
:106160006362013333708CE734342370E3E7C04655
:106170004C0A00206F12833ACDCCCC3D0000704118
:10618000840A0020FE0F00000000C843B80B000086
:106190000000AF43014B18607047C0468C0A0020D6
:1061A00037B50025040069461348009506F09AFBB0
:1061B0000098124B2100C0180422800006F0C0FB9A
:1061C00000990131092900D9290004220A480091C7
:1061D00006F0B6FB00230193094B01A9E418A400C3
:1061E000200006F07FFB019904220131200001917B
:1061F00006F0A6FB37BDC046644400000F11000046
:1062000001110000AF4BB04AF0B51A6001221A71BB
:10621000AE4A8FB09A6007F0A5FDAD4DAD4C290098
:106220000700200010F0C0FC0FF08CFFAA4B01000B
:10623000180010F0B9FC3900A84810F0B5FCA848C7
:1062400010F0B2FC06F040FB002800D0A5E006F0FC
:1062500044FB061E00D0A0E03800FFF7A1FF882015
:1062600006A9C001069606F03DFB07A99D4806F069
:1062700039FB079E07A99C4806F034FB301C13F03D
:106280006DFF9A4A9A4BFAF7B5FE9A4F002814D040
:10629000FF21301C8905FAF7D3FE00280DD096495E
:1062A0000798FAF7CDFE002807D039008D4806F090
:1062B00019FB92498C4806F015FB9149386811F09A
:1062C00023FD12F003F88D4B07008D49186811F07B
:1062D0001BFD11F0FBFF29000590200010F064FC6D
:1062E0000FF030FF7C4E0100300010F05DFC3900F3
:1062F000844810F059FC7A4F380010F055FC290002
:10630000200010F051FC0FF01DFF0100300010F0D4
:106310004BFC05997C4810F047FC380010F044FC19
:106320007A4F069BBB422FD01222794909A813F05D
:10633000FFFF00261C2102AA73005218D05A002128
:106340000422013606F0FCFA092EF3D1714E30001A
:106350000422002106F0F4FA6F4B04369E42F6D177
:1063600001226E48110006F0EBFA882004226749EA
:10637000C00106F0E5FA882006A9C00106F0B2FACD
:10638000069BBB4200D084E000F07EFD644F387075
:106390003B780B3BDBB2F32B1DD801F0B4FC0E2194
:1063A000604807F0E8FB2900200010F0FDFB0FF02B
:1063B000C9FE494B0100180010F0F6FB5A4810F0D6
:1063C000F3FB474810F0F0FBFA2080000FF0ACFE22
:1063D00007F096FE5DE000F009FA00F05FFD061E92
:1063E0005ED100F0FFFF00F0F9FC504B30001E7052
:1063F00000F042FD08A94E48089606F073FA089985
:106400004C4B013104224A481960089106F098FA71
:1064100009A94948099606F065FA09984749FAF723
:10642000B7FC474B89B2198007F01EFC012808D140
:106430000999042201314048099106F081FA07F0D8
:1064400017FC404B002203933F4B110002933F4B3C
:10645000502001936A230093693B0FF017FF002837
:1064600002D000223A4B1A70FAF77AFE002812D1B5
:10647000374B1B78002B07D0364968300FF04CFFA4
:106480006A2035490FF048FFFAF77EFE002802D057
:10649000C046012601E007F0CAFC30000FB0F0BD95
:1064A00038780A2806D1002000F0E6FC01221F4BB4
:1064B0001A70EEE70130C0B2387000F0DDFC01F078
:1064C0008DFA65E7940A00200307011D82FD9A01F9
:1064D000EDA401005AA3010067A3010064A4010018
:1064E0007EA3010014410000184100009A99999977
:1064F0009999E93F38FEFF1F0000C84234FEFF1F94
:1065000000007A4477A4010082A4010082CA4B658E
:1065100042A30100B0400000D8400000FC41000050
:10652000A80A002080F00F407FA30100A90A0020E4
:1065300004440000A40A002024400000FFFF0000E3
:10654000A00A002001DD0000DDDC0000B9DC000055
:1065500053FEFF1F8FA40100A7A30100F7B5334B23
:106560001D78002D61D1FDF7E3F91422304B31493C
:106570001A60314B314C1A600222314BFF321A80C3
:106580000A00304BC1CBC1C243CB43C243CB43C251
:1065900003CB03C22C4A2D4BC1CBC1C2110045CB4A
:1065A00045C145CB45C105CB05C1294B2949186BD0
:1065B0001E0011F0A9FB2200274B3436D867337830
:1065C000403213702200254BA4321B7824491370EB
:1065D000230022009C331D700F23AF321370220062
:1065E000B03211602200B43213701E4A1E4813707C
:1065F00053709370D370137153712300B5331D70B2
:1066000023001A4ABC331A606B46DD7123009F33A6
:106610001D706B46A034D91D257006F079F96B46C4
:10662000DB79692B01D1683B2370F7BDA90A0020F3
:1066300010070020580700208006002014070020C3
:10664000B6070020D8FDFF1F8407002004FEFF1FAF
:10665000F80A002000BA5B4AA40B0020AA0A002016
:106660000F0F0F0F7C0B0020E840000070FEFFFFB3
:1066700010B5244C2268531C0A2A04D9012122484F
:1066800007F082FA00232360204B1B78002B14D0E4
:106690001F49204810F088FA0FF054FD1E4B0100EE
:1066A000180010F081FA1D4810F07EFA1C4810F016
:1066B0007BFA64200FF038FD10BD1A4B1B78002BBD
:1066C00013D11349134810F06FFA0FF03BFD124B32
:1066D0000100180010F068FA134B14481978C9B279
:1066E00010F062FA0E4810F05FFA07F023FC104B2E
:1066F0001B78002BE0D10F4B1B78002BDCD104F072
:1067000017F8D9E7900A002080F00F40A90A00206E
:10671000DDA401005AA3010067A3010091A40100B8
:106720007EA30100B10A0020B00A0020A1A401004C
:10673000081700200917002010B501F0E4FA0E2117
:106740000D4807F018FA0D490D4810F02DFA0FF01A
:10675000F9FC0C4B0100180010F026FA0A4810F062
:1067600023FA0A4810F020FAFA2080000FF0DCFC2F
:1067700007F0C6FC10BDC04680F00F40C8A4010061
:106780005AA3010067A301007FA301007EA30100BB
:10679000F0B5002787B007700590012002F096FB46
:1067A000114EFC253378012402930823AD051A000D
:1067B000022138000195009401F06AFF022133782C
:1067C0000700029308220C2320000195009101F09C
:1067D0005FFF3843C0B2002801D1059B1C70431EE7
:1067E0009841C0B207B0F0BD7D0C002010B500206C
:1067F00002F06CFB0400012002F068FB2043C0B2F1
:1068000010BD0000F7B5002001F0ECFE04000120EF
:1068100001F0E8FE0443E3B200931F4C002B0CD1BF
:1068200021001E4AAF315378DB07DB0F0B70537822
:1068300022005B07DB0FAE321370194F194E39007F
:10684000300010F0B1F90FF07DFC174D0100280069
:1068500010F0AAF92300AF3319781448C9B210F028
:10686000A3F9134BAE341800019310F09DF93900D1
:10687000300010F099F90FF065FC0100280010F0CD
:1068800093F921780B48C9B210F08EF9019810F0F5
:106890008BF90098FEBDC0469C0B0020B80C002070
:1068A000DEA501005AA3010067A30100F6A40100C0
:1068B0007EA3010006A5010037B500256946012029
:1068C0000095019501F05AFC01A90400280001F08F
:1068D00055FC019A009B20439B18024AC0B2936466
:1068E0003EBDC0469C0B0020002307B5012001A936
:1068F000019301F063FC002802D1019A014B9A62D6
:106900000EBDC0469C0B0020002307B5012001A945
:10691000019301F073FC002802D1019A014BDA6265
:106920000EBDC0469C0B002073B500266B460020B0
:106930009D1D2A00F1B2288001F0FCFB041E06D147
:106940002988144B72000136D152082EEED1002650
:1069500000232A0001202B80F1B201F0EBFB04435D
:10696000E4B2002C08D1320029880A4B08325200C8
:106970000136D1520C2EEBD1FFF7B6FF0443FFF7DF
:10698000C3FFE4B20443FFF797FFE4B22043C0B271
:1069900076BDC0469C0B002073B50026284C002312
:1069A0006A46D3806B4622786078991D01F05CFCC2
:1069B000051E11D16B460620185E224A00280DD113
:1069C000012128001378994268411B18DBB213702B
:1069D0008B4201D91C4B1970280076BD157013F03D
:1069E0006BFB0022194B12F08FFF13F029FB22786A
:1069F000174900B2092A0AD16278012A18D1154A2A
:106A0000C8871080013602340B2EC8D1E4E7042A6F
:106A100006D16278012A0BD102310F4AC887F0E70C
:106A2000002A05D16278203252008A185080E9E7A6
:106A30003200183252008852084972008852E1E749
:106A40003CFEFF1FB20A0020C40A00200057A540E8
:106A50009C0B0020E00A0020D00A0020D20A00206F
:106A60000020F0B585B003A9039001F0E7FB204DAD
:106A7000041E11D1039800280CD011F047FC1D4BC7
:106A8000196811F041F91C4B196810F0CDFD11F097
:106A90001DFC0390039BEB6407F05CF8174F184E46
:106AA0003B68C01A306007F055F833683860002B37
:106AB00002DAFA235B003360EB6C3068019313F069
:106AC000FBFA060001980F0013F0F6FA02000B0023
:106AD0003000390012F050FC00220A4B12F008F886
:106AE00013F084FB084D2860200005B0F0BDC046BF
:106AF0009C0B002038FEFF1F34FEFF1FC80A002039
:106B0000CC0A002000408F40E80A0020002110B588
:106B1000080001F079FE00210400012001F074FE5C
:106B20002043C0B210BD000070B50C4D00242B787E
:106B3000DB09012B05D121002000072201F01CFFF9
:106B40000400A878C009012805D10722002101F01E
:106B500013FF0443E4B2200070BDC046C20C002005
:106B600010B50121002001F031FC00282CD10121B9
:106B7000080001F02BFC002826D1144A1378517824
:106B80001B070907C90FDB0F5B18591E8B41104902
:106B9000DBB28B72137854785B076407E40FDB0F6A
:106BA0001B195C1EA341DBB20B7313789B06DB0F32
:106BB0000B7413785B06DB0F4B741378DB06DB0F6B
:106BC000CB731378DB094B7210BDC046CE0C00208E
:106BD000820B002010B50121002001F053FC002899
:106BE00052D10121080001F04DFC00284CD1274B67
:106BF0001A78597892068906C90FD20F5218511E79
:106C00008A412349D2B24A711A785C78D206E406E6
:106C1000E40FD20F1219541EA241D2B28A711A780F
:106C20005C7852066406E40FD20F1219541EA2417A
:106C3000D2B2CA711A785C789207A407E40FD20F17
:106C40001219541EA241D2B28A701A785C78D20707
:106C5000E407E40FD20F1219541EA241D2B2CA7037
:106C60001A785C7852076407E40FD20F1219541E89
:106C7000A241D2B20A711A785B78D209DB09D31823
:106C80005A1E9341DBB24B7310BDC046CA0C0020A4
:106C9000820B002010B50121002001F055FC0028D6
:106CA0000AD10121080001F04FFC002804D1034B58
:106CB000034A1B78DB09937410BDC046C80C002042
:106CC000820B002010B50400FFF720FF002805D13B
:106CD000034B1A789B781340DB09237010BDC04624
:106CE000C20C002010B5FFF73BFF0400FFF772FF56
:106CF0000443FFF7CFFFE4B22043C0B210BD000051
:106D000070B50500074C012804D1AC3401F052F9EC
:106D1000257070BD002001F04DF90023AC342370C4
:106D2000F7E7C0469C0B002070B5144905001448D5
:106D30000FF03AFF0FF006FA124B010018000FF0A7
:106D400033FF290010480FF02FFF10480FF02CFFE1
:106D5000032400262900012001F05EFF0C4B0643AE
:106D60005B78F6B2DB07DB0FAB4204D0C046013CD8
:106D7000E4B2002CEED1300070BDC046C9A50100C0
:106D80005AA3010067A301007EA401007EA30100B5
:106D9000B80C002010B50C4904000C480FF004FF9B
:106DA0000FF0D0F90A4B010018000FF0FDFE210092
:106DB00008480FF0F9FE08480FF0F6FE2100012008
:106DC00001F08AFE10BDC046B4A501005AA301001F
:106DD00067A301007EA401007EA3010010B588B066
:106DE0001422002103A813F08DFA0822002101A823
:106DF00013F088FA002403AB19198223DB01E01891
:106E0000043405F06FFD142CF5D101A9154805F0E7
:106E100069FD154802A905F065FD049B002B01D111
:106E2000124B0493124C1422200003A913F080FA91
:106E3000039B002B0FD10333237004336370063B95
:106E4000A3701C33E370123B2371033B637109335E
:106E5000A3712133E371082201A9064813F068FAEF
:106E600008B010BDA4400000A840000082FD9A01B7
:106E7000400B0020380B00200100812010B50422B7
:106E8000C00105F05DFD10BD07B58120002301A9FB
:106E9000C001019305F026FD01980EBD10B5082133
:106EA000002001F03DF9002806D00821012001F062
:106EB00037F9431E9841C0B210BD0000002337B51A
:106EC000154801A9019305F00DFD019B134D013BF0
:106ED000033305D9E96B04220F48019105F030FD19
:106EE00000230F4801A9019C019305F0FBFC019BC5
:106EF000013B033305D9E96B04220948019105F0F0
:106F00001FFD019BE86BE3185B08984200D918004D
:106F100011F048FA3EBDC046B0400000F80A00201B
:106F2000B440000070B59AB006006422002101A8A8
:106F300013F0E8F9002401AB19198423DB01E018F0
:106F4000043405F0CFFC642CF5D1874D02222800D3
:106F500001A906F0F3FE854B2A8885481A8002A90C
:106F6000022206F0EBFE0222824803A906F0E6FEAA
:106F70000122814804A906F0E1FE02227F4805A90A
:106F800006F0DCFE02227E4806A906F0D7FE0222A9
:106F90007C4807A906F0D2FE01227B4808A906F02A
:106FA000CDFE0422794809A906F0C8FE01227848DE
:106FB0000AA906F0C3FE042276480BA906F0BEFE1D
:106FC000012275480CA906F0B9FE022273480DA9EA
:106FD00006F0B4FE022272480EA906F0AFFE0222AD
:106FE00070480FA906F0AAFE02226F4810A906F009
:106FF000A5FE02226D4811A906F0A0FE02226C48EF
:1070000012A906F09BFE02226A4813A906F096FE1A
:107010000222694814A906F091FE0422674815A9C6
:1070200006F08CFE6649286B10F06EFE10F0A8F991
:10703000634910F083FC0122286316A9614806F019
:107040007DFE614C0122200017A906F077FE23780F
:10705000002B00D13C332A00353213705B480422E8
:1070600018A906F06BFE022E00D07AE05849286B72
:1070700010F04AFE10F0D6F9040001000422E86383
:10708000544805F05DFC04222100534805F058FCEB
:1070900004222100514805F053FCFFF70FFF0023A5
:1070A0004F4E694630604F48009305F01BFC009A34
:1070B0004D4C4E4B69464E481A6005F013FC2300B8
:1070C000009A94331A6030684149260010F036FC6B
:1070D000983630603068296B10F030FC30603068D2
:1070E000444910F011FE10F09DF9FA2180B2783475
:1070F00020802B89404C643B9BB223802388A86965
:1071000019339BB263806B88890064339BB2A38080
:10711000A388193B9BB2E380F9F73EFE374A2B69FF
:1071200005309B1880B22081236120693449F9F72A
:1071300033FEB4234122053080B2A08163816E3BCF
:10714000A382E2820A3222836383583A513BA283AC
:10715000E3832284638405340C33E377C0461AB09A
:1071600070BD199BEB6398E7F80A0020E20A002043
:10717000FA0A0020FC0A0020FE0A0020000B002072
:10718000020B0020040B0020060B0020080B00203F
:107190000C0B0020100B0020140B0020160B0020FD
:1071A000180B00201A0B00201C0B00201E0B0020C7
:1071B000200B0020220B0020240B0020280B002095
:1071C0000000C8422C0B00202D0B0020300B0020AB
:1071D00000BA5B4AB0400000B440000060420000CA
:1071E000E40A00209C4000009C0B00202C0C002096
:1071F0009840000000D022458C0C002068C5FFFF9D
:1072000018FCFFFF73B5E121842000230A24962691
:1072100009010222C0010193009105F0A9FB4C492C
:1072200002224C48009105F0A3FB4B4902224B4837
:10723000009105F09DFB210001224948009405F0D2
:1072400097FB484902224848009105F091FB4749C5
:1072500002224748009105F08BFB4649022246482E
:10726000009105F085FB210001224448009405F0BF
:107270007FFB434904224348009105F079FB21003C
:1072800001224148009405F073FB40490422404824
:10729000009105F06DFB210001223E48009405F0AD
:1072A00067FB3D493D4DB60002223D483D4C0091F3
:1072B00005F05EFB310002223B48009605F058FBCA
:1072C000290002223948009505F052FB21000222D4
:1072D0003748009405F04CFB3100022235480096F7
:1072E00005F046FB344902223448009105F040FB8A
:1072F000290002223248009505F03AFB21000222C3
:107300003048009405F034FB2F4B684601A9042255
:10731000019306F01EFD009904222C4805F028FB7D
:107320000C2101222A48009105F022FB01223C2178
:10733000284805F01DFB04220121274805F018FB11
:10734000264904222648009105F0FAFA73BDC0468A
:107350004A1000000442000004100000084200002F
:107360000C420000B80B000010420000EA0B0000C5
:107370001442000098080000184200001C4200005F
:10738000B03CFFFF2042000024420000204E0000DD
:10739000284200002C4200008A0200009CFF0000EE
:1073A00030420000CEFF00003442000038420000AE
:1073B0003C4200004042000026020000444200001F
:1073C000484200004C4200000000184250420000B9
:1073D00054420000584200005C4200000067270849
:1073E00060420000F7B56B460027991D23489F7146
:1073F000DF7105F08DFA6B462148D91D05F088FA3A
:107400006B46DD791F4E012D24D19C79022C0CD1C5
:107410002000FFF787FD3570C04618482A00290074
:1074200005F08EFA184B1D70F7BD012C09D1220012
:107430002100124805F084FA2000FFF773FD347034
:10744000F2E7124B1C70FFF7DDFE0220FFF76AFD2A
:107450003770E9E7FFF7D6FE01220948110005F071
:107460006FFA01220548110005F06AFA0123064A65
:10747000022033701370FFF755FDD5E77C40000004
:107480002C400000B10A00207D0C0020B00A002032
:10749000002313B5064C01A92000019305F022FA40
:1074A0000199042201312000019105F049FA13BD30
:1074B00020400000002313B5064C01A920000193D1
:1074C00005F010FA0199042201312000019105F024
:1074D00037FA13BDA040000070B515000E1C042241
:1074E00001000E4805F02CFA0422040031000C487B
:1074F00005F026FA0422044329000A4805F020FA80
:10750000E4B22043C0B2002804D104220721064877
:1075100005F016FA431E9841C0B270BD60420000EB
:10752000084000000C4000000440000073B50F2428
:10753000DC238442A44100265B001C401A4B05005A
:10754000E41869462000009605F0CCF9009802285E
:107550000ED8164B0422C0182900800005F0F0F95F
:107560000422200000990131009105F0E9F973BD72
:1075700001A90F48019605F0B5F9042201990D48BB
:1075800005F0DEF901A90C4805F0ACF904220199D7
:10759000074805F0D5F904222900074805F0D0F97D
:1075A000042200990048E0E73C4000000C10000075
:1075B00034400000304000003840000037B5041E61
:1075C00012D00A4B01A9C5180023AD002800019371
:1075D00005F088F90199042201312800019105F094
:1075E000AFF92000FFF7A2FF37BDC0460F10000023
:1075F00007B56A46FF230748D11DD37105F088F906
:107600006B46DB79002B04D101229621014805F05D
:1076100097F907BDE440000007B56A46FF23074815
:10762000D11DD37105F074F96B46DB79002B04D1C1
:1076300001226921014805F083F907BDE8400000F7
:1076400007B5094B01A90948019305F04BF9002141
:10765000884207D1019B072B04D10422034805F07F
:107660006FF9012108000EBDFFFF0000044000007B
:1076700007B5044B044801A9019305F033F90198BB
:107680000EBDC046FFFF000008400000002307B504
:10769000034801A9019305F025F9019880B20EBDB8
:1076A0000C40000037B50125040069460E486D42C4
:1076B000009505F017F9009B002B0DD10422210045
:1076C000094805F03DF9084801A9019505F00AF9B6
:1076D000019B9C4201D1C04637BD042221000248D3
:1076E00005F02EF9F8E7C046EC4000000120014B00
:1076F00018707047580B00200120014B187070471C
:10770000570B00200120014B18707047560B0020CA
:107710000120014B18707047550B002010B503F085
:1077200055F9431E9841C0B210BD0000010010B5CC
:10773000034805F0D7F8431E9841C0B210BDC046BB
:1077400010400000010010B5034805F0CBF8431EBF
:107750009841C0B210BDC04614400000002337B5A8
:10776000050001A90648019305F0BCF80400631E5A
:107770009C412800042201A912F0DAFDE0B23EBDCE
:1077800018400000002337B5050001A90648019301
:1077900005F0A8F80400631E9C412800042201A9FA
:1077A00012F0C6FDE0B23EBD1C40000010B5010065
:1077B0000422024805F0C4F810BDC0461040000085
:1077C00010B501000422024805F0BAF810BDC04609
:1077D0001440000010B5041C0FF024FE10F0E2FD70
:1077E000011C201C10F0CEFB12F0B8FC0A4A0B4B17
:1077F000F9F70AFC00280AD0201C0FF02FFD0FF02B
:1078000011FE04220100064805F09AF810BD201C64
:107810000FF06CFDF3E7C0469A9999999999E93F61
:107820001C40000010B5041C0FF0FCFD10F0BAFD68
:10783000011C201C10F0A6FB12F090FC0A4A0B4B16
:10784000F9F7E2FB00280AD0201C0FF007FD0FF02B
:10785000E9FD04220100064805F072F810BD201C65
:107860000FF044FDF3E7C0469A9999999999E93F39
:1078700018400000F0B5002687B00822041C310033
:1078800004A8039612F03EFD4349201C10F03CFA78
:107890000FF0C8FD414B050001931B78404CB342EB
:1078A00021D004A93F4805F01DF804983E4F3860E8
:1078B00010F078FD21680FF0B7FE05A920603B4865
:1078C00005F010F80598786010F06CFD21680FF055
:1078D000ABFEFC21890510F017FA2F4910F02EF8A5
:1078E000019B20601E70324E3248310004F0FAFFD6
:1078F000314B306803A9C018800004F0F3FF2E4B11
:1079000030682900C01804228000039F039505F009
:1079100017F83368591C012B00D100210422254897
:10792000316005F00DF8780810F03CFD1A4910F0B0
:1079300005F8011C206810F025FB061C680810F0F3
:1079400031FD15490FF0FAFF011C301C0FF06CFEE1
:107950001A4B20601D6B291CF9F786FB002800D00C
:1079600025602668291C301C0FF0E8FF144F041C0A
:10797000211C3868134DF9F75DFB002809D13C60E4
:107980003868114910F0C0F90FF04CFD783580B21D
:107990002880301C07B0F0BD00BA5B4A30FEFF1FE4
:1079A000BC0A0020B0400000B40A0020B44000002F
:1079B000C00A0020AC4000002C100000F80A002093
:1079C000340C00209C0B002000D0224510B500F0A4
:1079D000DDFA10BD10B500F0E3FA10BDF7B50025D3
:1079E00001A94A48019504F07DFF01990422013163
:1079F0004648019104F0A4FF012001F0E9F90400D8
:107A0000280001F0E5F923000343DBB20500002B59
:107A100012D13F493F480FF0C7F80EF093FB3E4BA1
:107A2000010018000FF0C0F83C480FF0BDF83C48CA
:107A30000FF0BAF80020FEBD002C26D1002D22D078
:107A40000024002001F0F8F9002800D1C0460020F1
:107A500001F03CFA2E49031E2F4E2E48304D45D1E1
:107A60000FF0A2F80EF06EFB010030000FF09CF852
:107A70002C480FF099F828000FF096F8C046631EC6
:107A80009C41E0B2D7E7C046D4E7012001F0D4F929
:107A9000002800D1C046012001F018FA1C49031E3D
:107AA0001D4F1C481E4E0ED10FF07EF80EF04AFB03
:107AB000010038000FF078F81B480FF075F830001F
:107AC0000FF072F8BAE70FF06FF80EF03BFB010011
:107AD00038000FF069F815480FF066F830000FF025
:107AE00063F8002DADD1C0460120A4E70FF05CF88B
:107AF0000EF028FB010030000FF056F80C480FF094
:107B000053F828000FF050F8EDE7C0462840000079
:107B1000A4A501005AA3010067A3010016A5010056
:107B20007EA3010050A501002CA501003DA5010088
:107B300061A50100002337B5094C051C01A92000EF
:107B4000019304F0CFFE0199281C0FF06DFD054B49
:107B5000011C186001900422200004F0F1FE37BDE2
:107B60009C4000002C0C0020002337B5094C051C5C
:107B700001A92000019304F0B5FE0199281C0FF023
:107B800053FD054B011C186001900422200004F0F5
:107B9000D7FE37BD98400000300C002070B50120A2
:107BA00001F0DEF8C046FA242D4968200EF0B4FB3F
:107BB0002C4D6A2029000EF0AFFB640001200EF06E
:107BC00079FB200005F0C2FF00200EF073FB0020BF
:107BD00001F0C6F8200005F0B9FF01200EF06AFBA5
:107BE000C046200005F0B2FF00200EF063FB20002D
:107BF00005F0ACFF1C4968200EF08EFB29006A20BE
:107C00000EF08AFB194D01200EF054FB200005F008
:107C10009DFF00220221280005F0A4FFC04620009D
:107C200005F094FF06F040F828000E2105F0A3FFB0
:107C30000F4910480EF0B8FF0EF084FA0E4B010009
:107C400018000EF0B1FF0D480EF0AEFF0C480EF01C
:107C5000ABFFFA2080000EF067FA06F051FA70BD13
:107C6000A5A3010074A50100ABA3010080F00F40A3
:107C700097A501005AA3010067A301007FA301009B
:107C80007EA3010010B5002000F096FE0400012044
:107C900000F092FE2043C0B210BD000010B50822D3
:107CA0000649002000F0A0FE0C2204000449012037
:107CB00000F09AFE2043C0B210BDC046EC0B00207D
:107CC000F40B002010B5002168200EF051FB0121BB
:107CD0006A200EF04DFB10BD10B500200EF0EAFA40
:107CE00010BD10B501200EF0E5FAFFF7EBFF10BD57
:107CF00010B50C00010068200EF00EFB21006A2078
:107D00000EF0E0FA10BD10B505F0CEFF10BD10B5B5
:107D100005F0CEFF10BD000010B50020FFF73AF8C7
:107D20000020FFF701F80EF00DFA04000EF00AFA39
:107D3000001BFA2827D8FEF765FD134A134B12786B
:107D4000002AF3D1AE331B78002BEFD105F0ACFF46
:107D50000E210F4805F00FFF0E490F480EF024FFCB
:107D60000EF0F0F90D4B010018000EF01DFF0C484D
:107D70000EF01AFF0B480EF017FFFA2080000EF0ED
:107D8000D3F906F0BDF910BD4B0C00209C0B002070
:107D900080F00F4088A501005AA3010067A30100ED
:107DA0007FA301007EA30100002303700C4B10B5DC
:107DB0000C4ADC6894420BD99022DC68D2019442D0
:107DC00006D28622DC68D201944202D801230370D5
:107DD00010BDDB689342FBD90029F7D0F8E7C04615
:107DE0005C0B00200340000070B500240121050059
:107DF000FFF7DAFFA5420BD170BDD868195D2018D6
:107E0000C9B204F0D3FD4342584101342870E4B2B2
:107E1000024B1A899442F0D3EEE7C0465C0B002077
:107E200037B5002400210500FFF7BEFFA5420DD1A4
:107E300037BD6A460023E868D11D2018D37104F0CD
:107E400067FD6B46DB792B550134E4B2024D2B897B
:107E50009C42EED3ECE7C0465C0B002070B50500F9
:107E6000002484230749DB016118E018013404F081
:107E70004FFD602CF5D10222034B5A7101232B7068
:107E800070BDC046650E00207C0B002010B50100BF
:107E90000122024804F054FD10BDC0467C400000A1
:107EA00010B505F001FF0E210D4805F064FE0D49E7
:107EB0000D480EF079FE0EF045F90C4B010018004C
:107EC0000EF072FE0A480EF06FFE0A480EF06CFECD
:107ED000FA2080000EF028F906F012F910BDC04615
:107EE00080F00F4076A501005AA3010067A30100AE
:107EF0007FA301007EA30100002807D1054A137863
:107F0000002B03D00121044B19701070034B187023
:107F10007047C046640E0020540B00207C0B0020EC
:107F2000014B58707047C0467C0B0020014B987085
:107F30007047C0467C0B0020014BD8707047C0468C
:107F40007C0B0020014B18717047C0467C0B002051
:107F5000014B58717047C0467C0B00200F22084B24
:107F60005A709A70DA701A715A71064A1378002B97
:107F700004D00121044B1970002313707047C046D0
:107F80007C0B0020640E0020540B002010B5012152
:107F9000024805F0F5FDC0B210BDC04640F00F40EC
:107FA00010B50021024805F0EBFDC0B210BDC0467F
:107FB00040F00F40102110B5002803D0034805F011
:107FC000D5FD10BD014805F0D6FDFAE780F00F4061
:107FD00010B502F019FCC0B210BD000070B505006C
:107FE00008001900012D0AD105F0DCFD4442E4B27D
:107FF000002C02D00122054B1A70200070BD06240F
:10800000002DFAD105F0F8FDF0E7C0462C1700204E
:1080100070B5050008001100012D21D1049A05F06A
:10802000CDFD4442E4B2002C38D01F4A05215368EC
:108030001E48013353602A0005F094FD0A2005F024
:1080400085FD00220521194805F08CFD164BAD0079
:10805000EB58042B02D90122154B1A70200070BD79
:108060000624002DFAD1049A05F0D2FD4442E4B270
:10807000002C13D00C4A022113680E480133136000
:108080000D4A136801331360012205F06BFD0A20CD
:1080900005F05CFD2A0002210648D5E70024024BCA
:1080A000AD00EC50DAE7C046840C0020C0F00F4071
:1080B0002C17002040F00F40800C0020030010B56A
:1080C00008000121002B04D005F062FD4042C0B23F
:1080D00010BD05F087FDF9E710B505F043FD10BDB3
:1080E00010B505F033FD10BD10B505F033FD10BD22
:1080F0007047000038234343084870B518180C0037
:1081000002F056F9050002208443902C03D1FFF7BA
:10811000E7FF280070BD0120F9E7C046D80C002019
:10812000062310B5012802D8FFF7C8FF0300180086
:1081300010BD0000030010B50620012B18D80D4813
:10814000C45C0620002C13D00F2911D838245C43BE
:1081500009480419A488013C8C4200D10F2138241D
:1081600063430A31C9B24900C9B2C01802F098F895
:1081700010BDC046D60C0020D80C002013B503005B
:108180000C000620012B13D80A4AD25C002A0FD01B
:108190006946002232305843074BCA80C0188A1DF6
:1081A000342102F07DF86B46DA880A2353432360BA
:1081B00016BDC046D60C0020D80C002013B5030015
:1081C0000C000620012B13D80A4AD25C002A0FD0DB
:1081D0006946002232305843074BCA80C0188A1DB6
:1081E000362102F05DF86B46DA880A235343236098
:1081F00016BDC046D60C0020D80C002013B50300D5
:108200000C000620012B13D80A4AD25C002A0FD09A
:1082100000226946CA8038214B43074818186B462C
:108220009A1D02F03DF86B46DA880A235343236017
:1082300016BDC046D60C0020D80C002003000A0052
:10824000062010B5012B0AD80549C95C002906D0C3
:1082500032305843034B1621C01802F04BF810BDC2
:10826000D60C0020D80C002013B503000C0006200B
:10827000012B16D80B49C95C002912D0092A10D845
:1082800000216846C18038205843074B5100C01870
:108290006B4668319A1DC9B202F017F86B46DB884D
:1082A000238016BDD60C0020D80C0020F7B50600A0
:1082B0000620012E00D982E0414B9B5D002B7ED031
:1082C00000236A4632307043D3803E4B911DC01864
:1082D00001F080FF002872D101216B468E40DA88C0
:1082E000394B1500F45C0D408C432C435508022794
:1082F0000D408D40F454F45CBC432C4395080D4074
:10830000BD40F454F45CFF19BC432C43F454F45CBA
:10831000D5080D400437ED00BC432C43F454F45C05
:1083200015090D4008372D01BC432C43F454F45C6F
:1083300055090D4010376D01BC432C43F454F45CD7
:1083400095090D402037AD01BC432C437F25F454E3
:10835000F45CD7090F40FF012C403C430327F45441
:108360009B195E78140ABE433C403700042627431D
:108370005F705C78970A0F40BF00B4433C435C7069
:108380005C78D70A0F40B619FF00B4433C435C70D9
:108390005C78170B0F4008363F01B4433C435C70D8
:1083A0005C78570B0F4010367F01B4433C435C7040
:1083B000D20B0A405978D20129400A435A70FEBDB7
:1083C000D60C0020D80C0020D20C0020F7B50400F9
:1083D0000E00012815D8274B1B5C002B11D06B46D3
:1083E0003820DD1D00236043234A2B7080180A00CB
:1083F000290001F0A7FE002804D1002E03D0012E91
:1084000005D00620FEBD1D4B2A781A55FAE7042731
:108410001B4B2D781A5DA90831408900BA430A43E5
:108420001A551A5DE908FF193140C900BA430A43D9
:108430001A551A5D2909083731400901BA430A4320
:108440001A551A5D6909103731404901BA430A4388
:108450001A551A5DA909314020378901BA430A43E8
:108460007F211A551A5DED093540ED010A402A4376
:10847000CBE7C046D60C0020D80C0020D00C002042
:10848000CE0C0020F7B504000E00012816D82A4BA8
:108490001B5C002B12D06B463820DD1D002360438F
:1084A0002B70264B0A00C0182900012301F04AFE58
:1084B000002804D1002E03D0012E05D00620FEBDD9
:1084C0001F4B2A781A55FAE72D78022729001D4BF1
:1084D00031401A5DB2430A431A551A5D69083140AA
:1084E0004900BA430A43A9083140B9401A551A5DF8
:1084F000FF19BA430A4329093140B9401A551A5D98
:108500000C37BA430A431A551A5D690910373140CE
:108510004901BA430A431A551A5DA9093140203767
:108520008901BA430A437F211A551A5DED09354086
:10853000ED010A402A43C5E7D60C0020D80C0020E4
:10854000CC0C0020CA0C0020F7B504000D00012857
:1085500016D8204B1B5C002B12D06B463820DE1D3A
:108560000023604333701C4B0A00C0183100022303
:1085700001F0E8FD002804D1002D03D0012D05D025
:108580000620FEBD154B32781A55FAE71027144A1B
:108590003378115D1E092E403601B9433143115520
:1085A000115DDE092E406F37F601394031435E0917
:1085B0009B092E402B4040251155115D5F3F7601F0
:1085C000B94331431155115D9B01A9430B43135529
:1085D000D7E7C046D60C0020D80C0020C60C0020DF
:1085E000C80C0020F7B504000620012C49D8254B03
:1085F0001B5D002B45D000236A4632306043D371A7
:10860000214BD11DC01801F037FE002839D16B462F
:10861000DA79012116001D4B0E401D5D02278D43A6
:10862000354356080E408E401D551D5DBD433543F4
:1086300096080E40BE401D551D5DFF19BD433543D4
:108640001D551D5DD6080E400437F600BD43354369
:108650001D551D5D16090E4008373601BD433543D3
:108660001D551D5D56090E4010377601BD4335433B
:108670001D551D5D92090A403F3192018D432A43E9
:108680001A55FEBDD60C0020D80C0020B80C0020D6
:10869000F0B585B001910AA9097805008C46062439
:1086A000012840D80199033C02293CD8102B3AD824
:1086B0000334082A37D1382141434B4E8855761868
:1086C000B38033000021083371701900B270019A31
:1086D000464BF2700A0091CB91C213CB13C213CB5D
:1086E00013C21B6813603300624630331A700B9854
:1086F00011F034FD02000B003D483E4910F0F8F93E
:1087000011F074FD70632800FFF7D0FD01233A4F8C
:10871000902128007B55FFF7EDFC041E029005D048
:1087200000210B1C7B55200005B0F0BD300000F08F
:108730001FFE041E039001D0029BF3E7300000F0FF
:1087400057FF041E029001D0039BEBE7300001F0BD
:1087500021F8041E0390EFD1300001F069F8041EE7
:10876000F2D1300001F0E6F8041E01D00023D9E771
:108770003000224901F072F9041E0290F6D1300057
:1087800001F076FC0400061ED6D192212800FFF7E6
:10879000B1FC041E01D07E55C5E7019B022B16D10A
:1087A000002D14D19621FFF7A5FC220008211448C2
:1087B000FFF792FC134822000721FFF78DFC2000F1
:1087C000FFF710FF0028AED03C700400ABE7952106
:1087D0002800FFF78FFC2800FFF704FF0028A2D035
:1087E00000237B55F1E7C046D80C0020FCA5010012
:1087F00063EE5A423EE81D40D60C00208C0C00204F
:1088000080F00F4000F00F40F7B506000D00012882
:108810001AD8544B1B5C002B16D0C04638200023BE
:108820006A467043D380504B0A00C0186B46991DAE
:1088300001F0E3FC041E08D1012D00D184E0022DDB
:1088400000D18AE0002D02D006242000FEBD6B4638
:10885000D988012573000E00444A2E40985C0227F7
:10886000A84330434E082E40AE409854985CB8431D
:1088700030438E082E40BE409854985CFF19B84390
:1088800030439854985CCE0804372E40F600B84325
:1088900030439854985C0E0908372E403601B8438F
:1088A00030439854985C4E0910372E407601B843F7
:1088B00030439854985C8E0920372E40B601B84357
:1088C00030439854985CCE09BC462E403F37F601A1
:1088D000384030439854480A02262840A840D2180D
:1088E0005378B3430343880A2840B0405370537809
:1088F000B619B343034353705378C80A043628406B
:10890000C000B343034353705378080B0836284024
:108910000001B3430343537053781036B3436646A4
:10892000480B28404001034353705378880B28407C
:108930008001B343034353705378C90B2940C901E5
:108940003B400B43537080E7022209487600301801
:108950006B46991D11F0ECFC77E7064876002A007B
:108960003018F5E7D60C0020D80C0020C20C0020EF
:10897000BE0C0020BA0C00201FB504000620012CFC
:1089800013D80B4B1B5D002B0FD0012393406A467D
:10899000121832309BB26043138003AA1380054B38
:1089A0000A00C018039901F04DFC04B010BDC04688
:1089B000D60C0020D80C0020030010B50620012B97
:1089C0000CD8074AD25C002A08D032305843054BF5
:1089D0000022C0188321022301F0F8FC10BDC0461C
:1089E000D60C0020D80C0020E0B5060017000620A9
:1089F000012E07D800250E4B2A009B5D781EAB4246
:108A000008D10620E0BD4B5D85420FD1DB031A4340
:108A100092B20135EBB2BB42F5D338207043054B1F
:108A20008321C018022301F0D1FCEBE7AB40EEE755
:108A3000D60C0020D80C002070B5160004AA050042
:108A400014780620012D13D80A4A525D002A0FD04F
:108A5000620032308900684332430A43DB001A4324
:108A6000054B52B2C0189721012392B201F0AEFC1F
:108A700070BDC046D60C0020D80C002073B5040091
:108A8000062501281FD8114B1B5C002B1BD038205A
:108A90000023604301AE33800D4B3200C0185721D4
:108AA000022301F08AFC051E0CD16B467278991DD9
:108AB00008483378120264009B18201802220B80A9
:108AC00011F036FCC046280076BDC046D60C00200A
:108AD000D80C0020B40C0020F0B505000E000620D4
:108AE00085B0012D29D8484B5B5D002B25D028008F
:108AF000FFF778FD2800FFF7C1FF444B6A00D35C05
:108B00000400DA06D70F002A00DB65E0002E16D13C
:108B100093212800FFF7EEFA041E09D12800FFF781
:108B200061FD041E04D13A0007213948FFF7D4FA49
:108B30002800FFF757FD2043C0B205B0F0BD00206C
:108B4000FFF750FD0022072104003148FFF7C4FA67
:108B50009627FFF7C9FA7F0003902E4E33789B06C5
:108B600009D50020FFF73EFD0400FFF7BDFA039B87
:108B7000C01AB842F1D32800FFF734FD021E22D1FB
:108B80000127735D735D735D735D735D735D735D0D
:108B9000715D735D705DC9079B070007C00FC90F4A
:108BA000DB0F7B407940474000972800FFF744FFE8
:108BB000002808D12800FFF715FD002803D1735DB8
:108BC0005B0700D5C046C046002CB1D12800FFF796
:108BD00009FD0400C046ABE70E4F7A5D5207D20F85
:108BE000B242A5D05B07DB0FB342A1D02021280001
:108BF000FFF780FA7B5D04001B0799D4222128002F
:108C0000FFF778FA040093E7D60C0020B40C00209C
:108C100000F00F40B80C0020F0B504000D00062055
:108C200087B0012C23D84A4B1B5D002B1FD020009E
:108C3000FFF7D8FC2000FFF721FF464B6200D35C12
:108C40000700DA06D60F002A00DB67E0002D10D1FE
:108C500094212000FFF74EFA3200070008213E4819
:108C6000FFF73AFA2000FFF7BDFC3843C0B207B067
:108C7000F0BD0020FFF7B6FC002208213648FFF7C0
:108C80002BFA96204000FFF72BFA2000FFF7AAFCF2
:108C9000071E41D1314D2B5D2A5D2B5D2F5D039366
:108CA000285D295D2B5D920704930423D20F5200A7
:108CB00032430592039A1A401300059A134308227F
:108CC000174092183B43104018432023049A194040
:108CD000DB181340014319437F2337002A5D1940F5
:108CE0002B5D285D520700079B07C00F8F43704024
:108CF000D20FDB0F39000090734020007240FFF765
:108D00009BFE071E08D12000FFF76CFC071E03D155
:108D10002B5DDB07A6D43700C046A3E70F4E325DBC
:108D2000D207D20FAA429DD09B07DB0FAB4299D04E
:108D30001F212000FFF7DEF9335D07001B0700D578
:108D400090E722212000FFF7D5F907008AE7C04607
:108D5000D60C0020B40C002080F00F40B80C00208E
:108D6000F7B504000620012C27D810212000FFF7BA
:108D7000C1F9002803D110212000FFF7BBF9FFF74C
:108D8000B3F93827104E01903B006343F3182000DD
:108D90009978FFF7C5F90500012807D0FFF7A4F976
:108DA000019BC01AFA239B009842EDD3FFF79CF970
:108DB000C046002D02D1C0460120FEBDC0460020A5
:108DC000024B1855F9E7C046D80C0020D60C0020FD
:108DD00010B504000620012C1BD80122002C19D04C
:108DE00005211248FFF778F96420FFF779F900228E
:108DF00005210E48FFF770F996204000FFF770F943
:108E0000382262430A4B20009B189978FFF788F9B3
:108E1000C04610BD02210748FFF75EF96420FFF746
:108E20005FF9220002210348E4E7C046C0F00F408A
:108E3000D80C002040F00F40F7B504000620012CAC
:108E40002ED80122002C2CD005211C48FFF744F914
:108E50009620C000FFF744F9002205211748FFF7CC
:108E60003BF9FFF741F93827154E01903B0063436A
:108E7000F31820009978FFF753F90500012807D06F
:108E8000FFF732F9019BC01AFA239B009842EDD3F9
:108E9000FFF72AF90120002D02D00020094B1855B8
:108EA000FEBD02210848FFF717F99620C000FFF722
:108EB00017F9220002210448D1E7C046C0F00F4054
:108EC000D80C0020D60C002040F00F4070B50500F3
:108ED0000624012828D8012203211448FFF7FCF8B2
:108EE000C820FFF7FDF8002203211048FFF7F4F82F
:108EF00096204000FFF7F4F808212800FFF710F94A
:108F00000400C0460A490B480DF04EFE0DF01AF958
:108F1000094B010018000DF047FE210007480DF035
:108F200043FE07480DF040FE200070BD80F00F406A
:108F3000F0A501005AA3010067A301007EA401006F
:108F40007EA3010000234118884202D1D843C0B259
:108F50007047027801309B18DBB2F5E70300411837
:108F6000002010B5034A1C7801336040105C8B422E
:108F7000F9D110BD24A60100F0B597B003900B20E5
:108F8000150002931CAB1E7804AB3D220191C01862
:108F9000002111F0B7F9019B05A85B000370029B4B
:108FA00006AC1B7803214570257083706370FFF752
:108FB000D5FF27000125A0700237AE420CD8720001
:108FC0000132230001990398D2B2FFF707F8002875
:108FD00000D0C04617B0F0BD029B04AA5B5D012122
:108FE0007B70D01CD370FFF7B9FF0135B870E3E791
:108FF000F0B500240F001600A9B005932EAB1B7826
:109000003C222100049009A80393089411F07AF9F6
:109010003C22210019A8189411F074F904ABDC72F9
:10902000039B18AD5B00320039000498DBB2009559
:10903000FEF7EEFFA0421ED107A8467001267F0072
:109040000770374387702F780421C770FFF786FFBA
:109050006C78241A631E9C4104AB1F743700039B79
:10906000B3420AD81A00631E9C41059808A911F062
:109070005FF96042C0B229B0F0BD1021AB7804AAFC
:109080005218935504AAD3720B239B181800390069
:10909000FFF764FFEB7801361B1A5A1E9341023525
:1090A000E418DCE7F0B58BB0059104934378040035
:1090B00017000220002B31D12278A67808AC2F4966
:1090C00003922000062207AD2B8011F031F9059B99
:1090D00001202380A770FFF703F8049B022B1FD009
:1090E000042B32D003200700012B17D1009023005E
:1090F0003E2231000398FFF73FFF00280ED13900D0
:109100002000FFF71FFF052328706B70033B0093BF
:1091100060222B0031000398FFF72EFF0BB0F0BD4B
:109120003F0AE770042723003E223100039800978E
:10913000FFF722FF0028F1D139002000FFF702FFDE
:10914000062328706B70049BE1E73B0AE3703B0C3D
:10915000237106233F0E67713E22009331002300E6
:109160000398FFF709FF0028D8D106212000FFF758
:10917000E9FE082328706B70063BC8E754A3010082
:109180001FB50A00417803000220002908D11C788D
:10919000997803AB1A8000903E222000FFF7ECFE86
:1091A00004B010BDF0B58FB01D0014AB059204CB18
:1091B00004001B780E000993431E9841C0B2089228
:1091C000FEF796FF63780227002B41D10BAA13808C
:1091D000A2780D93039222780CAC2380F3B206930D
:1091E000330A079308AB04929E82012D40D0BD4202
:1091F0005BD00137002D2BD102263E220399049823
:1092000000960DABFFF7B8FE071E21D1FEF76CFFED
:1092100005900BAC23003E22039904980096FFF7BB
:10922000E7FE05000700FEF75FFF059BC01A052853
:109230000ED82378FF2B02D16278FF2AE9D0069A54
:109240009A4208D16378079A934204D1002D05D041
:1092500038000FB0F0BDC0460127F9E7099B402256
:1092600000930399089B0498FFF7C2FE0700EFE7FD
:109270000325059A08AB9A7503993E220498009538
:109280000DABFFF779FE071EE2D129000DA8FFF70D
:1092900059FE05236370033B207000932300602276
:1092A00003990498FFF768FEE0E70426059A08ABE7
:1092B000DA8203993E22049800960DABFFF75CFE1C
:1092C000071EC5D131000DA8FFF73CFE0623207014
:1092D00063700095E2E7F0B587B01E000CAB029218
:1092E00004CB04001F78431E9841C0B20D000392C6
:1092F000FEF7FEFE63780220002B09D1029A05AB2F
:10930000A17820781A80002E04D0012E08D00320E6
:1093100007B0F0BD2A00039B0097FFF769FEF7E74F
:109320002A000097FFF728FEF2E770B51D1C140015
:109330000E000EF0EBFF291C0EF000FB0EF020F8E3
:10934000051C20000EF0E2FF291CF7F779FE00282B
:109350000CD130000EF0DAFF291CF7F785FE34003F
:10936000002803D1281C0EF0B1FF0400200070BDBE
:109370000300F0B530331E7804008FB0012E00D109
:10938000AFE0022E00D1C8E00220002E00D0FEE0A7
:10939000C822804BD2010993B02394461B050A933F
:1093A0007D4B7E4D0B9309AB0C951A8204AA83CB9F
:1093B00083C2634693806423156007250F270193BA
:1093C000593B03930095F233029323000A22313371
:1093D0001A7004AB1A88200002237149FFF762FE5D
:1093E00000287CD101232000029A6E49FFF75AFE23
:1093F000002874D1012320001A006B49FFF752FEA8
:1094000000286CD10200012320006849FFF74AFEC2
:10941000002864D10123320020006549FFF742FE95
:1094200000285CD10123320020006249FFF73AFE98
:10943000002854D101232000039A5F49FFF732FE30
:1094400000284CD101232000009A5C49FFF72AFE36
:10945000002844D10200012320005949FFF722FED1
:1094600000283CD10123072220005649FFF71AFEAD
:10947000002834D193210123072220000902FFF79D
:1094800011FE00282BD101232A0020004E49FFF7AE
:1094900009FE002823D101233A0020004B49FFF7A1
:1094A00001FE00281BD10123062220004849FFF7B6
:1094B000F9FD002813D1A388102B66D849D10200EA
:1094C0000E3B20004349FFF7EDFD002807D10123A3
:1094D0002000019A4049FFF7E5FD002857D00FB062
:1094E000F0BDA0203D4B3E4D09933E4B0C950A9399
:1094F000294BC0000B9304AA09AB1882C2CBC2C28D
:10950000052315609080019302332A2700930023DE
:109510003D0003930226ED3356E7A022D200944685
:109520002E4B1E4D0993304B0C950A932F4B0B93EA
:1095300009AB1A8204AA83CB83C2634693800523B6
:10954000156007250193063300930F270395E23337
:109550003AE70320072BC2D91022DBB2591ED31AD7
:1095600000221000C9B2DBB206000125002E09D18D
:109570005219013092B28342F6DC8A40D243022370
:1095800092B29EE76D00013EF0E70320A7E7C046D8
:10959000A5E7C0461004FD0107000707070F0600F6
:1095A000349200003692000037920000389200009A
:1095B000FA920000FB920000FC920000FD92000075
:1095C000FE920000FF920000019300000293000051
:1095D0000393000004930000079300001004ED01C2
:1095E0002A2A060000020200000202070B000707F9
:1095F00030B5050089B00D220021684610F082FECA
:109600002B0030331B78012B06D0022B00D198E0C1
:109610000220002B00D091E04D4B04934D4B05935D
:109620004D4B0693752304A90B730D22684610F069
:109630007FFE6B4628001A8848490223FFF732FD57
:10964000002800D07BE06B469B7804AC2080237020
:109650002800012322884249FFF724FD00286ED10B
:109660006B46DB78208023702800012322883D4947
:10967000FFF718FD002862D16B461B79208023700C
:109680002800012322883849FFF70CFD002856D115
:109690006B465B79208023702800012322883349A0
:1096A000FFF700FD00284AD16B469B79208023708C
:1096B0002800012322882E49FFF7F4FC00283ED120
:1096C0006B46DB79208023702800012322882949FA
:1096D000FFF7E8FC002832D16B461B7A208023700C
:1096E0002800012322882449FFF7DCFC002826D12A
:1096F0006B465B7A208023702800012322881F4953
:10970000FFF7D0FC00281AD16B469B7A208023708B
:109710002800012322881A49FFF7C4FC00280ED133
:109720000B2102226944200010F002FE02232800CF
:1097300022881449FFF7B6FC002800D1C04609B0C2
:1097400030BD114B0493114B0593114B69E7C04693
:109750000000FCF480989000E4A080305F9200004C
:109760006192000062920000639200006592000026
:109770006692000067920000699200006A92000001
:109780006B920000739200000000BCF400989000FF
:10979000E4A00030030070B530331B780400012BC7
:1097A00007D0022B02D00220002B33D101252D221D
:1097B00001E000250D22012320001749FFF772FC6C
:1097C000002828D101232A0020001449FFF76AFC51
:1097D000002820D10200022320001149FFF762FC7B
:1097E000002818D10200022320000E49FFF75AFC7E
:1097F000002810D101230A2220000B49FFF752FC58
:10980000002808D10123192220000849FFF74AFC4B
:10981000002800D1C04670BD0893000009930000E5
:109820000A9300000C9300000E9300000F930000B9
:10983000030013B530331B780400012B0CD0022B2E
:1098400058D00220002B53D12E4B01AA13806A4618
:1098500013800123012105E02B4A01A90A806946F2
:109860000A800021294AC9020A431B031A436B4696
:1098700027491B8820000B401A436B4625491A8054
:10988000022392B2FFF70EFC002832D1FA22022303
:10989000200021495200FFF705FC002829D1FA22B7
:1098A000022320001D495200FFF7FCFB002820D1B5
:1098B0000123052220001A49FFF7F4FB002818D1E4
:1098C0000123102220001749FFF7ECFB002810D1DC
:1098D00004232000626B1449FFF7E4FB002808D141
:1098E0000200012320001149FFF7DCFB002800D112
:1098F000C04616BD0E4B01AA13806A461380002392
:10990000A8E7C04690DAFFFF90D2FFFF90C2FFFFAA
:109910006F2500006D92000010930000129300006C
:109920001493000043930000A891000044920000AB
:1099300090CAFFFF0300F7B530331D780400012DF6
:1099400009D0022D07D00220002D68D13C234626E5
:10995000344F019303E05026CE25334F0196012367
:10996000082220003149FFF79DFB002858D1012330
:109970002A0020002E49FFF795FB002850D1012333
:109980002000019A2B49FFF78DFB002848D10123C5
:10999000320020002849FFF785FB002840D1012331
:1099A000142220002549FFF77DFB002838D1012330
:1099B000082220002249FFF775FB002830D102233E
:1099C0003A0020001F49FFF76DFB002828D1012332
:1099D000282220001C49FFF765FB002820D1012325
:1099E000142220001949FFF75DFB002818D102233B
:1099F0003A0020001649FFF755FB002810D101233B
:109A0000282220001349FFF74DFB002808D101232D
:109A1000142220001049FFF745FB002800D1C04662
:109A2000FEBDC0463C0F00008813000035930000C7
:109A300036930000379300003893000039930000FC
:109A40003A9300003B9300003D9300003E930000DA
:109A50003F9300004193000042930000F0B54B1D7E
:109A6000DB7F05000C0091B0002B1CD1DB4BB42236
:109A70000B80DB4B4B80DB4B8B80DB4BCB8019238C
:109A80000B812D338B814A81D84A0A6141228B8216
:109A9000CA820A320A834B83583A513B8A83CB836A
:109AA0000A844B84C046208850221421D04B80B2B7
:109AB000FFF73BFC67880200BBB20093A388FF2737
:109AC0009BB20193E38806009BB20293238928008E
:109AD0009BB203936389C7499BB20493A3893A401D
:109AE0009BB20593236906932B0031331B780793B0
:109AF000A38A1BB20893E38A1BB20993238B1BB280
:109B00000A93638B1BB20B93A38B1BB20C93E38B57
:109B10001BB20D93238C1BB20E93638C1BB20F935D
:109B20000123FFF7BFFA041E00D073E204232800CC
:109B3000B14AB249FFF7B6FA041E00D06AE25022D9
:109B40001421AB4B0098FFF7F0FB821B0123280088
:109B5000AB49D2B2FFF7A6FA041E00D05AE26E2239
:109B60001421A34B0198FFF7E0FB0200060001233C
:109B70002800A4493A40FFF795FA041E00D049E2B4
:109B8000042328009C4AA049FFF78CFA041E00D049
:109B900040E26E221421964B0298FFF7C6FB321A60
:109BA000012328009949D2B2FFF77CFA041E00D0A5
:109BB00030E2039810F080FA0022954B0FF0DCFBA6
:109BC00010F03EFA80233E220221DB05FFF7ADFBB9
:109BD0000200012328008F493A40FFF763FA041E70
:109BE00000D017E20423592228008B49FFF75AFAC4
:109BF000041E00D00EE20200022328008749FFF76E
:109C000051FA041E00D005E2049810F055FA002223
:109C10007F4B0FF0B1FB10F013FA80236422022176
:109C2000DB05FFF782FB0200012328007C493A4054
:109C3000FFF738FA041E00D0ECE1042301222800CB
:109C40007849FFF72FFA041E00D0E3E1059810F0E1
:109C500033FA00226E4B0FF08FFB10F0F1F98023E6
:109C600064220221DB05FFF760FB0123C2B26E49CB
:109C70002800FFF717FA041E00D0CBE10423772257
:109C800028006A49FFF70EFA041E00D0C2E10798C7
:109C90000EF088FB2200031C65490698FFF745FB80
:109CA000022302B263492800FFF7FCF9041E00D02A
:109CB000B0E1012328001A005F49FFF7F3F9041E01
:109CC00000D0A7E10123052228005C49FFF7EAF94B
:109CD000041E00D09EE10123032228005849FFF70B
:109CE000E1F9041E00D095E1012328001A0055492E
:109CF000FFF7D8F9041E00D08CE1020002232800EF
:109D00005149FFF7CFF9041E00D083E1FE2328213B
:109D1000782208989B054942FFF707FB012342B2CE
:109D20004A492800FFF7BEF9041E00D072E1012362
:109D3000042228004649FFF7B5F9041E00D069E166
:109D4000FE232821782209989B054942FFF7EDFA66
:109D5000012342B23F492800FFF7A4F9041E00D0B6
:109D600058E1FE23282178220A989B054942FFF7F3
:109D7000DCFA012342B238492800FFF793F9041EA8
:109D800000D047E10123042228003449FFF78AF973
:109D9000041E00D03EE1FE23282178220B989B056B
:109DA0004942FFF7C2FA012342B22D492800FFF7CA
:109DB00079F9041E00D02DE101236E2228002949E3
:109DC000FFF770F9041E00D024E1012303222800CC
:109DD0002549FFF767F9041E48E0C046540B000010
:109DE0009F0B0000AE100000631000001802FFFF80
:109DF00066664A4275920000110C000076920000DF
:109E00007B92000078920000799200007C92000022
:109E10000000E03F809200008192000088920000E4
:109E200082920000839200008492000085920000DC
:109E30000080FFFF8A9200008C9200008692000052
:109E400087920000949200008D9200009A92000088
:109E50009B9200009C9200009D9200009E92000048
:109E60009F920000A0920000A1920000002C00D060
:109E7000D0E00123692228006849FFF713F9041E86
:109E800000D0C7E00123552228006549FFF70AF9F1
:109E9000041E00D0BEE00123022228006149FFF722
:109EA00001F9041E00D0B5E00123502228005E49CC
:109EB000FFF7F8F8041E00D0ACE0FE23282178223A
:109EC0000C989B054942FFF730FA012342B25749EB
:109ED0002800FFF7E7F8041E00D09BE001230422CE
:109EE00028005349FFF7DEF8041E00D092E0FE235D
:109EF000282178220D989B054942FFF716FA012385
:109F000042B24C492800FFF7CDF8041E00D081E092
:109F1000FE23282178220E989B054942FFF705FA77
:109F2000012342B244492800FFF7BCF8041E71D156
:109F30000123042228004149FFF7B4F8041E69D127
:109F4000FE23282178220F989B054942FFF7EDF95F
:109F5000012342B23A492800FFF7A4F8041E59D160
:109F600014220123280037495242FFF79BF8041EB0
:109F700050D10123022228003349FFF793F8041E31
:109F800048D10F220123280030495242FFF78AF8B6
:109F9000041E3FD10123022228002D49FFF782F839
:109FA000041E37D102233C2228002A49FFF77AF801
:109FB000041E2FD10200012328002749FFF772F861
:109FC000041E27D10223012228002449FFF76AF842
:109FD000041E1FD10223012228002149FFF762F845
:109FE000041E17D10223FA2228001E49FFF75AF84F
:109FF000041E0FD1E122022328001B49D200FFF7E3
:10A0000051F8041E06D1022328001A001749FFF751
:10A0100049F80400200011B0F0BDC046A292000033
:10A02000A3920000A4920000A5920000A692000056
:10A03000A7920000A8920000A9920000AA92000036
:10A04000AB920000AC920000AD920000AE92000016
:10A05000AF920000B2920000B4920000B5920000EE
:10A06000B6920000BA920000BC920000BE920000BE
:10A07000030010B52C331B7804000220002B4ED1B6
:10A080001E23E25E264903002000FFF70BF800289C
:10A0900045D11C23E25E200002232249FFF702F88B
:10A0A00000283CD11A23E25E200002231E49FEF75D
:10A0B000F9FF002833D11823E25E200002231B4958
:10A0C000FEF7F0FF00282AD11623E25E20000223CB
:10A0D0001749FEF7E7FF002821D12623E25E200082
:10A0E00002231449FEF7DEFF002818D12423E25E84
:10A0F000200002231049FEF7D5FF00280FD12223AC
:10A10000E25E200002230D49FEF7CCFF002806D1B5
:10A110002023E25E200002230949FEF7C3FF10BDA1
:10A12000EA910000EC910000EE910000F091000037
:10A13000F2910000F4910000F6910000F891000007
:10A14000FA9100007FB50F250E00110000226D442A
:10A150002A70012B1DD0022B2CD00624934203D150
:10A16000914204D001290FD0200004B070BD01231A
:10A170000A0001930B0002210095FFF7ACF8041EC2
:10A18000F2D12B783370EFE701911A00032100958B
:10A19000F3E7002903D0012907D00624E4E70A00E9
:10A1A000019300950B000421E7E7019113000521BD
:10A1B0000095E2E7002906D00129EED101911300B4
:10A1C00007210095D9E701230A00019300950B00B0
:10A1D0000621D2E70022022330B585B003AD2A80E4
:10A1E0000C000193122113000095FFF774F800286A
:10A1F00001D12B88238005B030BD7FB5130000222C
:10A2000003AD0E002A80012B11D0022B15D00224A1
:10A21000934209D11A00622101940095FFF75BF87F
:10A22000041E01D12B883380200004B070BD0223AE
:10A230006421019300951300F0E701936621130058
:10A240000095EBE730B587B003AD2980002105AB61
:10A250001980023104008A430620002A0AD12A8884
:10A260001030684402800191009320000123603186
:10A27000FFF731F807B030BD30B50F2500220123BC
:10A2800085B06D442A700C0001937F211300009566
:10A29000FFF721F8002801D12B78237005B030BDDD
:10A2A00030B502231500002285B003AC2280019353
:10A2B00000941300FFF70FF8002804D16278237888
:10A2C00012029B182B8005B030BD30B5022315005B
:10A2D000002285B003AC2280019300941300FEF7A6
:10A2E000FAFF002804D16278237812029B182B8091
:10A2F00005B030BDF0B500242C4D87B002AB039102
:10A30000070016002100202228009C810FF0FAFF90
:10A31000039B162B18D03A2B32D00620142B2DD1AC
:10A320002023220001937521230038000095FEF7B9
:10A3300039FF002822D16A7D2B7D12021A433B008F
:10A3400031331B7812B211E02023220001937521D2
:10A35000230038000095FEF725FF00280ED1EB7D85
:10A36000AA7D1B02313713433A781BB25343336043
:10A370003133622B01D800233360002007B0F0BDD9
:10A380000223019305AB00932200230038000399B8
:10A39000FEF7A1FF0028F1D102AB5B7B02AA127B82
:10A3A0001B02D21831373B7812B2DFE7480D00208C
:10A3B00010B589B2FEF7E4FE10BD07B50193002386
:10A3C000009289B21A00FEF7EDFE0EBD30B50F24E3
:10A3D000002585B06C442570012B04D0022B02D0DF
:10A3E000062005B030BD89B201930094FEF7DAFE75
:10A3F000F7E77047704770470022014B1A707047AB
:10A4000052FEFF1F70470000034B1878012802D14D
:10A4100002480261197170477C0B00205C0B002020
:10A42000034B59619A610122024B5A717047C04631
:10A430005C0B00207C0B002010B50BF083FE01F0BC
:10A4400073FC0122014B1A7010BDC046540B002052
:10A4500001280AD100220B4B1A700B4B197891423C
:10A4600002D00A4908701A7070470028FCD10122F6
:10A47000044B1A70054B19780029F5D01870024B5F
:10A48000F1E7C0467C0B0020640E0020540B002036
:10A49000064810B50478012C06D1541E012C02D8B0
:10A4A000034CE3602181427010BDC0467C0B00204C
:10A4B0005C0B0020094830B50378012B07D1084B0D
:10A4C000084C197000238B4202DB0123C37030BD9E
:10A4D000D55CE55401335BB2F5E7C0467C0B002048
:10A4E0006C0D00205C0B002010B5692801D05428A9
:10A4F0000AD10323094C802907D123700BF022FED7
:10A500002178C9B201F0DAFA10BD0A001A401942E6
:10A5100001D02170F2E72270F0E7C04652FEFF1F23
:10A52000EF2310B51B020C0086B0984200D1B2E0B8
:10A5300016D8D8231B0298420CD00BD8D6231B0266
:10A54000984207D00133FF33984203D0D3231B0234
:10A5500098426BD0002321001A0001F077F96EE0D9
:10A56000544B984200D16CE034D8534B984200D100
:10A5700099E0524B9842EDD10022514B1A701300D2
:10A5800001F064F90C224F4903A80FF0D1FE4E4CA4
:10A5900003A90C2220000FF0CBFE4C4B05224C49A6
:10A5A00001A800930FF0C4FE200014224949153081
:10A5B0000FF0BEFE20006946042222300FF0B8FEE4
:10A5C0002000052201A927300FF0B2FE200001F083
:10A5D00055FB27E0404B9842BCD100231A0001F004
:10A5E00035F908223D4903A80FF0A2FE3C4C082291
:10A5F000200003A90FF09CFE202301222375DF33E6
:10A600006375E3750023A2753F326277303A227694
:10A610002000043A2377A377E3776276A376E37684
:10A6200001F050FB2F4B18701B7808E000231A0034
:10A6300001F00CF901222C4BDC612C4B5A7106B055
:10A6400010BD00231A0001F001F90B232848112244
:10A650007D2403704371243B83712033C3714372A3
:10A6600016330321C3720023427021326442827088
:10A670000932C2704473333A7A3402718473073AF0
:10A68000633C017282720273C473027441748374F6
:10A6900001F008FBC6E700231A0001F0D7F8084BC9
:10A6A00001221A70CBE700231A0001F0CFF8114BFA
:10A6B000F6E7C046DAFE000097F10000C5FD000095
:10A6C000540B002024A70100170E002042617400E3
:10A6D00030A70100400B00200FFF000036A701004B
:10A6E000440E0020760D00205C0B00207C0B002027
:10A6F000F50D0020750D002010B503F099FA002823
:10A7000008D10F22054B1A705A709A70DA701A71BC
:10A710005A7110BD01204042FBE7C0467C0B00206F
:10A7200010B503F08DFA431E9841404210BD000061
:10A73000F7B50BF007FD00F0DDFE051E32D12E4C03
:10A74000A378D8B2052B0DD8F6F792FA032E0C0C8D
:10A750003134FF220021232001F032FA0F23A370AD
:10A76000002840D1E378022B27D06379022B19D13E
:10A7700001210023FF262148214D4942EF5C0A0AAE
:10A78000314079408900095801335140602BF5D19F
:10A790001C4BC943D8690022C0B201F03FFA0F2315
:10A7A000050063712800FEBDFF220121D3E7FF22CF
:10A7B0000421D0E7FF220521CDE700260322310046
:10A7C00001A800960FF09EFD31000E4B1A899142B0
:10A7D0000BDB1A8969462320D2B201F00BFA0F2352
:10A7E000E3700028C1D00500DCE768465A5C42549B
:10A7F000013149B2EAE7C0467C0B002040A70100C6
:10A80000650E00205C0B002010B50A4B0A4C1B782B
:10A81000002B09D1094B1B78002B05D1084B187868
:10A82000C0B201F015FA207000232370207840B2E6
:10A8300010BDC04608170020760D00200917002023
:10A84000540B002010B5024800F044FE10BDC04675
:10A8500054FEFF1F70B50C00CF210906051CF6F74A
:10A860000DFC00280BD09E21281CC905F6F7F2FB31
:10A87000002804D0281C0DF029FD206070BDCF21D8
:10A88000281C0906F6F7DCFB431E9841014BC01853
:10A89000F3E7C046FFFFFF7FF0B5394F85B03B7847
:10A8A000DAB20192012B65D1364C022220003649E2
:10A8B0000FF03EFD0222354935480FF039FD0422E4
:10A8C000344935480FF034FD344D02222900344814
:10A8D0000FF02EFD0222334933480FF029FD0222EA
:10A8E000324933480FF024FD00230393314B03A971
:10A8F0001868FFF7AFFF03A904222F480FF018FDD7
:10A900002A6B1426101C00920CF08CFD02AA5080B9
:10A91000022202A9891829480FF00AFD2A003432C0
:10A9200013780098267563750FF018FC244B0022ED
:10A930000EF022FD0CF004FC0CF08CFDE075688834
:10A940000A216438F6F728FA464302AA5680022202
:10A9500002A989181B480FF0EBFCC0460723200012
:10A96000A37501F0B3F8184B1870019803F0EEF8D6
:10A9700000233B70144B187840B205B0F0BDC046C0
:10A98000750D0020770D0020FA0A0020000B002032
:10A99000790D0020100B00207B0D0020F80A00200C
:10A9A0007F0D00201E0B0020810D0020220B0020B7
:10A9B000830D0020240C0020850D0020890D00202F
:10A9C0000000E03F8F0D0020760D00200022F0B542
:10A9D000E54B91B01B780192DEB2012B31D10BF027
:10A9E000B1FBE24D0422069006A928000FF0A0FC5E
:10A9F000DF4C07A9E36C1A0A2B716A711A0C1B0E43
:10AA0000EB710023079323008C331868AA71FFF7BA
:10AA100021FF042207A9D7480FF08AFC280001F083
:10AA200087F8D54D2870300003F090F82B785AB293
:10AA3000002B00D1BAE02B7800225BB20193CA4B05
:10AA40001A70CE4B03931B78DEB2012B49D10BF069
:10AA500079FBFF22CA4C05AB1A800690FB3A200016
:10AA600006A90FF065FCC24D0422AB6C06A9C548CF
:10AA700006930FF05DFC267200242022210008A816
:10AA800007940FF03FFC07AA6300E85A0134D05244
:10AA9000142CF9D10024BA4DBB4EA019022205A9ED
:10AAA00002340FF045FC242CF7D107AF2200390007
:10AAB00030000FF03DFC280001F014F8AE4C20707F
:10AAC000012003F043F823785AB2002B00D165E24D
:10AAD000C0462378019A5BB21A4300230192039A7D
:10AAE0001370AA4BA44D02931B78DFB2012B29D11E
:10AAF0000BF028FBA64B07901B889D4C07AEB3803C
:10AB000023006C331B883000F38023006E331B88D6
:10AB10003381230070331B88738101F021F8287082
:10AB20002B7838005BB22B7003F010F82B78002BD9
:10AB300000D1E9E22B78019A5BB21A43002301921B
:10AB4000029A1370934B02931B78012B00D0A2E35F
:10AB50000BF0F8FA904E0422059005A930000FF092
:10AB6000E7FB8E4B824CDB6F042206A98C480693D0
:10AB70000FF0DEFB2300883408332068D96F0CF017
:10AB8000DDFE88490DF0C0F80CF068FB8549041C17
:10AB9000F6F76AFA002800D039E30021201CF6F706
:10ABA00059FA002800D133E3002431E323007E4E1C
:10ABB000AF333270032219787378114093430B43FB
:10ABC000737023000C20AE3319787378114089001C
:10ABD00083430B4373702300C5331B78AC34012BC4
:10ABE00000D0BAE02378013B5A425341023303229A
:10ABF0003021134072785E4D8A431B0113432A00B3
:10AC000001247370694BBD321B78127810311343E5
:10AC1000727823408A439B01134373702B007F207B
:10AC2000BE331A787378D2010340134373702B003C
:10AC3000B7331A78B3782240A3431343B3702B0081
:10AC4000B4331A7802272240A240B3787738BB4346
:10AC50001343B3702B00C2331A78B3782240BA4042
:10AC6000FF19BB431343B3702B00C1331A78B37879
:10AC70002240D20083431343B3702B00BB331A78B6
:10AC8000B3782240BA40083083431343B3702B009B
:10AC9000BF331A78B37810302240520183431343F4
:10ACA000B3702B00C0331A78B378224092018B43E3
:10ACB0001343B3702B00C6331A78B3785F30D201D8
:10ACC00003401343B3702B00B9331A78F378224052
:10ACD000A3431343F3702B00B6331A78F378224062
:10ACE000A2403E398B431343F3702B00B8331A78DC
:10ACF000F37822408A40BB431343F3702B00B533F3
:10AD00001A78F37877382240D20083431343F370E4
:10AD10002B00B2331A784023BA405B421343F278D7
:10AD20000D310A40134331003A002148F3700FF00F
:10AD3000FFFA204B310018003A0001930FF0F8FAA7
:10AD4000019800F0E9FE0C4E3070200002F0FEFE8B
:10AD50003378002B30D033786EE62378013B5942AC
:10AD60004B41134043E7C046580B0020E90D00203B
:10AD70009C0B0020F10D0020760D0020570B0020C9
:10AD8000BC0D0020C00D0020C50D0020560B00207A
:10AD9000060C0020550B0020910D0020A00B002078
:10ADA000950D00200000C842710D0020580C0020B5
:10ADB000B80D0020680D00202B00CA4950330C70DC
:10ADC0001A784B782240A34313434B702B00022088
:10ADD00051331A784B7822405200834313434B700F
:10ADE0002B0052331A784B7822408240BB431343E6
:10ADF0004B702B0053331A784B7806302240D20028
:10AE0000834313434B702B0054331A784B7808302C
:10AE100022401201834313434B702B0055331A78A1
:10AE20004B78103022405201834313434B702B0068
:10AE300056331A784B7820302240920183431343D3
:10AE40004B702B0057331A784B783F30D2010340B8
:10AE500013434B702B0058331A788B782240A3434E
:10AE600013438B702B0059331A788B787D3822402E
:10AE70005200834313438B702B005A331A788B781C
:10AE800022408240BB4313438B702B005B331A7804
:10AE90008B7806302240D200834313438B702B0003
:10AEA0005C331A788B7808302240120183431343B5
:10AEB0008B702B005D331A788B7810302240520152
:10AEC000834313438B702B005E331A788B782030CA
:10AED00022409201834313438B702B005F331A7817
:10AEE0008B783F30D201034013438B702B006033CB
:10AEF0001A78CB782240A3431343CB702B006133E5
:10AF00001A78CB787D382240520083431343CB70AC
:10AF10002B0062331A78CB7822408240BB43134324
:10AF2000CB702B0063331A78CB7806302240D200E6
:10AF300083431343CB702B0064331A78CB780830EB
:10AF40002240120183431343CB702B0065331A78E0
:10AF5000CB7810302240520183431343CB702B0037
:10AF600066331A78CB782030224092018343134312
:10AF7000CB7067352A783F30DBB2D20103401343F0
:10AF800001983A00CB700FF0D3F9019800F0C4FD9E
:10AF90003070200002F0DAFD3378DCE602232B72F9
:10AFA00015007019022205A902350FF0C1F9242DF0
:10AFB000F7D1042210A94C480FF0BAF94B4800F021
:10AFC00091FD2070012002F0C1FD23785DB2002BBD
:10AFD00000D07EE50BF0B6F8454E06900422300016
:10AFE00006A90FF0A5F901233371424B02932B0000
:10AFF000029A18335B009A5A6B000135FA52072DFA
:10B00000F5D1FF230E22FB813B8239003A480FF035
:10B010008FF9300000F072FD2070012002F096FDE3
:10B0200023785DB2002B00D053E50BF08BF804229F
:10B03000069006A930000FF07BF9122004AB0C2219
:10B040002900C01835710FF05DF9029B07AD02337E
:10B05000DB8F3B80029BDB8F7B80284B1A880A2387
:10B060005343BB800323FF215A0001335153092B63
:10B07000F9D1234EF539F08F1E4C00B2F5F772FF6F
:10B08000F08F09B200B2052922DC0A21F5F784FE0F
:10B0900040B2E8710634E08F0A2100B2F5F762FF92
:10B0A000E08F09B200B2052917DC0A21F5F774FE1A
:10B0B00040B21222290028720F480FF039F90C48CB
:10B0C00000F01CFD0F4C2070012002F03FFD00E558
:10B0D0000A21F5F761FE0130DAE70A21F5F75CFE97
:10B0E0000130E5E76D0D0020C50D0020BC0D0020EE
:10B0F0009D0D00209C0B0020A20D0020AC0A00201A
:10B10000A00B0020760D00200BF01CF80790E06FDC
:10B110000DF048F963490CF011FC23007833071C4B
:10B12000188880B20DF0F2F8011C381C0CF006FCF7
:10B130005D490CF0E9FD5C49071CF5F795FF6423B8
:10B14000039000280AD10021381CF5F779FF039BF2
:10B15000002803D1381C0CF065F9C3B23371230009
:10B16000112278331B8804A9521813701B0A5370DC
:10B17000616F4E4A1300914205DC0023626F9A42D0
:10B1800001DB636F9BB2132204A9521813701B0AD0
:10B190005370300000F0F0FC28702B7801205BB277
:10B1A0002B7002F0D3FC2B78002B00D0C2E40AF005
:10B1B000C9FF2300E1219C33079009011868F5F7C6
:10B1C00061FD2300E121A033090170601868F5F7E3
:10B1D00059FD23009433B06018680CF023F9230064
:10B1E000A433F06018680CF01DF9A83430612068B1
:10B1F0000CF018F97061300000F0CAFC28702B7850
:10B2000001205BB22B7002F0A1FC2B7892E4264C5B
:10B21000FF272100220A230C3A40394012023B400A
:10B220000A431B04240E134324061C432049201CFC
:10B23000F5F71AFF002800D01B4C230A34727372F2
:10B240003000230C240EB372F47200F07DFC2870E1
:10B25000012002F07BFC0AF075FF164A0790127875
:10B2600007AB1A71144A18001278DF715A71134A29
:10B2700012789A7100F098FC28702B7801205BB24C
:10B280002B7002F063FC2B78019A5BB21A43002307
:10B290000192029A13702B78019B18002B7011B049
:10B2A000F0BDC046000061450000C8429411000096
:10B2B0000000BE424C0C00204D0C0020C60E0020A9
:10B2C00010B5064B802806D101221A700AF03AFF09
:10B2D000034B186010BD00221A70FBE7C70E002058
:10B2E0004417002010B5002806D0054B1960054B07
:10B2F000186000F08DF810BD01204042FBE7C04609
:10B30000940F0020980F0020F0B59BB003AD2800EB
:10B3100000F09CF8011E1ED12B7AAF79AE7A039C07
:10B320000193224B224DE218224B1A4215D12B00D9
:10B3300094331C602B00A2331F702B00A3331E70AC
:10B34000019BA0352B800F2302A95B18082219004E
:10B3500019480EF0EDFF1BB0F0BD38220BA80EF01F
:10B36000D1FF5F2302AA9B181F705E239B181E70DB
:10B370001E239B18019A02A9DA870F235B18190074
:10B38000082209A808940EF0D3FFE82301211B022C
:10B390009C4204D0094BE41863425C4161002B00DD
:10B3A000CC3328001B6808AA9847D4E70015FFFF94
:10B3B000CC0E0020FFFEFFFF640F00200016FFFFF1
:10B3C000F0B5124E030034787578B778052085B053
:10B3D000651BBD4218D00093FF23002501936B46E7
:10B3E00001A8039502951A730EF0A2FF706823015D
:10B3F00010226946C01801340EF09AFF3900E0B2FD
:10B40000F5F7C6FC2800317005B0F0BD98FEFF1FAF
:10B4100010B5FFF771F910BD010010B503684A7A45
:10B42000180AC0B28C7A48719206EF2809D8887938
:10B4300014431843000220430A7A0B31FFF770F9D6
:10B4400010BD180220431043F6E700007FB51B4EE5
:10B450000400757833780620AB422CD071682B013C
:10B46000C9181022013568460EF062FFB178E8B2C3
:10B47000F5F78EFC6B46200071701D7B01A92A0038
:10B480000B300EF055FF009B2572DA00520F6272EE
:10B49000A3721A0C1B0A9903D2B2890B6271216044
:10B4A000A371EF2A02D8064A1340236000202368C4
:10B4B0009B039B0F237104B070BDC04698FEFF1F15
:10B4C00000FF030010B5FFF70DFF10BD10B5FFF72B
:10B4D0001BFF10BD10B5040000F0AEFB034B0021B4
:10B4E00003485C60FFF7EEFF10BDC0469C110020D2
:10B4F000D9B6000010B5FFF7E9FF002010BD00002D
:10B50000F0B5060004000023463635786E4985B054
:10B51000CA5CAA4228D1D92223681202934200D1E0
:10B5200076E038D8D722694F1202934200D182E0E8
:10B530001FD8D3221202934200D1A1E0D6221202D8
:10B54000934200D18AE02068604B010AC9B25B686F
:10B55000EF2900D9ADE05D69002D08D0A21D337838
:10B56000D28F211DA84702E00133072BD0D105B0AF
:10B57000F0BDD82212029342E5D17023627920797E
:10B58000D1001940014378681207A379520F446A29
:10B590002800A047EBE74E4A934278D020D8DF221C
:10B5A0001202934227D0EF2212029342CBD1230002
:10B5B00047331B782179232BD9D1A379A0680F2495
:10B5C0001A092340102912D01829D0D1290000F0DF
:10B5D00097FB0028CBD13D4B5B681B699847C6E7BA
:10B5E0003C4A9342AFD12079FFF76AFEABE72900CE
:10B5F00000F07CFBBBE7237901201F2B03D03F3BEE
:10B600005A1E93415800314B5B68DB699847AEE79F
:10B610001F2023896179E2881B0413430A078143B1
:10B620002079648901432948520F40680094046AD4
:10B630002800A0479BE700212679032203A8029156
:10B640000EF060FE3200611D02A80EF071FE3100A6
:10B650007B6802AA9B6A2800984788E72179FF2225
:10B660008B1E012B09D8A279637912021A43E37960
:10B670001B041343227A12061A437B68DB6AEAE74B
:10B680007B6828001B6BA268616898476FE70F4BC7
:10B690005B689B68002B00D169E72179802902D182
:10B6A0002800984763E761794A1E022AF8D90021E9
:10B6B000F6E79D69002D00D159E7A31D221D3478BE
:10B6C000DB8F0094A84752E790FEFF1F9C110020DB
:10B6D0008CFF00008DFF000073B5080014000629E0
:10B6E0005ED8F5F7C5FA6F5E53805D5D8000157812
:10B6F0008D4251D1C0466079A37900021B041843E2
:10B7000023791843424B98421ED02CD8D9231B02D0
:10B71000984219D020D8D7231B02984214D019D8A8
:10B72000D3231B0298420FD0D6231B0298420BD082
:10B7300011780023012200F089F831E0354BC1185F
:10B74000354BCB40DB07F3D5344B11785B685B6B33
:10B75000984725E0D823E8E7314B3249C3180B421C
:10B76000F2D0314BE2E7314B98420DD8304B984242
:10B77000E4D8304B9842E7D004D82F4B9842E3D01E
:10B780002E4BD3E72E4BD1E72E4BCFE700232E488D
:10B790004632C15C0029AAD10133072BF9D1C0463A
:10B7A00073BD137A232BFBD1A07AE37A00021B042A
:10B7B0001843637A52791843184B21795B689B6B65
:10B7C0009847EDE71068154B010AC9B25B68EF298D
:10B7D00011D85D69002D0AD02300063246331B784C
:10B7E000D28F211DA8472000FFF78AFED8E720004E
:10B7F000FFF786FEF7E79D69002DF8D02600463654
:10B800003678931DDB8F04320096A847EBE7C046DD
:10B81000F5FB00005000FFFF210080009C1100207C
:10B820000021FFFFFFEFFFFF97F10000C7FF0000BF
:10B83000AFFF00000FFF0000C5FD0000DAFE0000B2
:10B840007EFF0000FCFF000090FEFF1FF0B51E0011
:10B85000E82389B01B0203930E4B050004930E4BA3
:10B860001120059300231700079302AB02220191D8
:10B87000C018FF210EF046FD03AC019B258220007D
:10B880002D0CE7722673E373A574FFF7C5FD09B0AD
:10B89000F0BDC04600E8FF0008002300F0B5050A2F
:10B8A0008DB00393EBB20600129F01910292EF2B31
:10B8B0005ED8030CDBB20093C3B20493FBB2EDB2CB
:10B8C000059307AC082F35D9EC231B0207932A4BAD
:10B8D000A27138000993A7810EF01CFC274B0022AF
:10B8E0000DF006F90BF0A2FB0BF0B4FD1025009B48
:10B8F000A073A3742000E5732682FFF78DFD431C1F
:10B9000016D01F4B1F4A029915709A1DD7871A002F
:10B9100047321170019A1E6046331A7003993A003B
:10B9200019480EF005FD194819490AF00FFE0020CC
:10B930000DB0F0BD0B2006AB0D220021C0180EF09B
:10B94000E1FC009B07962371049B0F20A371FBB2BF
:10B950002372019B3A0063722323A37206AB0399FF
:10B960006571C0180EF0E4FC2000FFF755FDDFE71D
:10B9700001204042DCE7C0460807231000001C40BD
:10B98000CC0E0020140F0020D00E00208C0F0020C1
:10B99000E2040000F0B506008BB0100001920391A4
:10B9A0000EF0B8FB2E4B00220DF0A2F80BF03EFB80
:10B9B0000BF050FDC3B20293EC231B020593FF234F
:10B9C0000025FF271B040693264B05AC0793019B1C
:10B9D0000995A381029B26822000360CA373E7738E
:10B9E000A674FFF719FD013003D1012040420BB0CE
:10B9F000F0BD1022290006A80EF084FCEB231B02E8
:10BA00000593E123DB0023812323A771A372072180
:10BA10000198F5F7BDF907240F00029BAB4201DC4A
:10BA20000020E4E70F2004AB0822FF21C0180EF02D
:10BA300069FC2B006343039901986A1C05AEC91881
:10BA400007331500F2723A00984200D3220008A88A
:10BA50000EF06EFC3000FFF7DFFC0130DDD1C4E7F3
:10BA600000001C400807232070B505000E001900D7
:10BA70002B0ADCB21000049AEF2C17D92843082AAD
:10BA800002D9FFF787FF70BD0A4C2D0C6371232389
:10BA90002060257122726672A372002A02D00648C5
:10BAA0000EF046FC2000FFF7B7FCECE70120404217
:10BAB000E9E7C046A4110020AF1100206922024B23
:10BAC0001A60586099607047A0FEFF1F07B51A22E0
:10BAD00003000092062102487D32FFF7C5FF0EBD2C
:10BAE00097F1000007B52D220300009206210248BD
:10BAF0009A32FFF7B9FF0EBDC7FF000007B5FF225E
:10BB0000C275E73A03000092062102486632FFF749
:10BB1000ABFF0EBD7EFF000007B5042203000092BC
:10BB200006210248F132FFF79FFF0EBDF5FB000032
:10BB300007B50C220300009206210248A432FFF749
:10BB400093FF0EBDB0FF000007B50C22030000926A
:10BB500006210248A932FFF787FF0EBDB5FF00009E
:10BB600007B50C220300009206210248C532FFF7F8
:10BB70007BFF0EBDD1FF000007B509220300009234
:10BB800006210248C932FFF76FFF0EBDD2FF000049
:10BB900007B518220300009206210248BB32FFF7C6
:10BBA00063FF0EBDD3FF000007B50822030000921B
:10BBB00006210248CC32FFF757FF0EBDD4FF00002C
:10BBC00030B54C00112185B002AB9A70FF220825D8
:10BBD0002143D824DA70064A59701D700392062159
:10BBE000020000952002FFF759FE05B030BDC046A7
:10BBF000FFFFF1F27FB505000920140002AE684492
:10BC000032700EF095FBD720013433002A00062154
:10BC100000940002FFF742FE04B070BD1FB5D324AC
:10BC200008230291039200930200062102AB200236
:10BC3000FFF734FE04B010BD034B044A1A609A604B
:10BC40001A619A611A627047ACFEFF1FFFFF000085
:10BC500030B50400092085B00722002168440EF0A9
:10BC600051FB0123FF2002AD2C70FC220093052123
:10BC70002B000002FFF7F8FE05B030BD07B52A2201
:10BC8000811C0275CA77C11DCA7725310A7003323B
:10BC900003000092062102489832FFF7E5FE0EBD30
:10BCA000C5FD000007B52A21821CD177222203009E
:10BCB00000920348B8322439FFF7D6FE0EBDC046C5
:10BCC000DAFE000007B5FF22C27503001000DF3A5C
:10BCD00000920621113A0002FFF7C6FE0EBD0000D9
:10BCE000014B18607047C046B811002010B5034CD6
:10BCF000606021736373A27310BDC046B811002049
:10BD000030B5084C257B8D4208D1617B994205D125
:10BD1000A37B934202D1A060002030BD01204042AD
:10BD2000FBE7C046B8110020034A116853689268C7
:10BD30009B185B1A18187047B8110020F7B5060059
:10BD400014001F00002806D180231B01994202D352
:10BD500001204042FEBD00236A46104D13809370BF
:10BD6000137128000B002100D67009F045FA002855
:10BD7000EED13B0022003100280009F0D5FA00285E
:10BD8000E6D114226243064B21002800D21809F0A4
:10BD9000A5FA0028DCD1C046DCE7C046C4AB0100F0
:10BDA000CC11002003685B0700D5C04603681B0761
:10BDB00000D5C04603685B0600D5C04603681B0675
:10BDC00000D5C0460368DB0500D5C04603689B0567
:10BDD00000D5C04603685B0500D5C0460368DB0498
:10BDE00000D5C04603689B0400D5C04603685B04C9
:10BDF00000D5C04603681B0400D5C0460368DB03BA
:10BE000000D5C04603689B0300D5C04603685B03AA
:10BE100000D5C04603681B0300D5C04603689B02DB
:10BE200000D5C04670470000F0B5002689B00C0070
:10BE3000150004900796B1420BD001292FD06B4614
:10BE4000187C04F09DFA079007A8FFF7ABFF09B034
:10BE5000F0BD14235343194E29009F193A00184886
:10BE6000039309F03BFA8023796805901B019942FE
:10BE700004D380239B0599426441013414236B430E
:10BE8000039AF3180832B6181B7C22000020009693
:10BE900001F08AFD059B002BD1D0C046CFE70AF008
:10BEA00051F9084B1B68C01A074B1860074B5E55C9
:10BEB000074B1A689042C2D91860C0E7CC11002025
:10BEC000C4AB01005C140020581400204C14002066
:10BED0005414002007B50122054B1A7004F050FAE3
:10BEE0000190C04601A8FFF75DFFC04607BDC046F0
:10BEF000C811002070B52F4E3368002B02D00120EE
:10BF0000404270BD2C4D2D49280009F0BDF8041E9B
:10BF1000F5D102002A49280009F03CFA6868012599
:10BF200022002849C0B204F03BFA02210B20356000
:10BF300006F022FD02210A2006F01EFD01231F2229
:10BF4000162120005B42FFF7F9FE002801D0C04611
:10BF5000D5E70423C0211E225B42C900FFF7EEFE95
:10BF60000028F4D1FF238C211D2228001B02890107
:10BF7000FFF7E4FE0028C2D11C222800124B13490F
:10BF8000FFF7DCFE0028BAD1FF238C211B222800FA
:10BF90001B028901FFF7D2FE0028B0D101231A222B
:10BFA00028000B495B42FFF7C9FE0028A7D1C04615
:10BFB000A7E7C04650140020C4AB010090AB0100BD
:10BFC00029BE0000D5BE0000FFFEFFFF698CFF18F0
:10BFD000548CFF1870B50A4D2B68012B02D001203C
:10BFE000404270BD074809F0B9F8041EF7D102229B
:10BFF000210005480EF086F920002C60F1E7C046CC
:10C0000050140020C4AB01004C140020F0B5140003
:10C010000D008DB007AE14220021039030000EF009
:10C0200071F9039B2200290009A8736034740EF093
:10C030007FF9032302933A4B1D78002D03D05A78E1
:10C04000002A3CD1012501215955002380211800E7
:10C05000039C09018C42584105AA13809370137107
:10C06000304BD07029001800019309F08FF832008E
:10C070002900019809F0FAF80AF064F82A4F3860AC
:10C080002900019809F068F9041E15D127492848AC
:10C090000AF08AFD0AF056F8264B010018000AF053
:10C0A00083FD210024480AF07FFD24480AF07CFD2E
:10C0B000C04620000DB0F0BD012829D1C046029B2A
:10C0C000013BDBB20293002BB5D11D4C2378012B31
:10C0D00007D101F0B1FD002801D101F0A9FD002335
:10C0E0002370C046114912480AF05EFD0AF02AF892
:10C0F000104B010018000AF057FD01211148494278
:10C100000AF052FD0D480AF04FFD01204042D1E7F0
:10C110000AF018F83B68C01A0128B1D9CEE7C0462A
:10C120004C140020C4AB01005C1400207AAB010069
:10C130005AA3010067A30100C2A401007EA301006D
:10C14000C811002074AB0100074B10B51C68002C0F
:10C1500007D10122202005491A6008F039FE20008D
:10C1600010BD01204042FBE760140020E4FFFF1FE8
:10C1700010B5D2B208F049FE10BD10B50C0008F0A1
:10C180004FFE0123E040184010BD01238B4010B545
:10C19000190008F043FE10BD284B70B55A68284DB1
:10C1A0008A4227D11B78834224D1012203212548CA
:10C1B00008F01EFE01220321234808F01DFE002284
:10C1C00003212148FFF7D4FF00242B789C4205D39C
:10C1D000032211001B4808F00BFE70BD0122032151
:10C1E000194808F012FE00220321174808F00DFE3E
:10C1F0000134EAE701220221144808F0F9FD012286
:10C200000221134808F0F8FD002202211048FFF730
:10C21000AFFF00242B789C4203D3052202210B4858
:10C22000D9E7012202210A4808F0EFFD002202218D
:10C23000074808F0EAFD0134ECE7C046C0160020CC
:10C24000D4FEFF1F0090044000F00F4000C00440E7
:10C25000C0F00F4013B50B4C2368002B01D0002019
:10C2600016BD094A094901AB09481A804B6109F01A
:10C27000CBF8002802D001204042F1E701232360DF
:10C28000EDE7C0466814002006070000C4FFFF1F4A
:10C29000DCFFFF1F10B5084C2368012B01D00020E4
:10C2A00010BD064809F06AF9002801D12060F6E7C0
:10C2B00001204042F4E7C04668140020DCFFFF1F65
:10C2C00010B5094C2368002B01D0002010BD074990
:10C2D000074809F099F8002802D101232360F4E708
:10C2E00001204042F2E7C0466C140020ACFFFF1F63
:10C2F000C016002010B5084C2368012B01D0002087
:10C3000010BD064809F03AF9002801D12060F6E78F
:10C3100001204042F4E7C0466C140020C016002003
:10C320000F4B73B55A680C00C5B291420DD11E78FF
:10C33000AE420AD1FFF7DEFF002803D12100300012
:10C34000FFF72AFFFFF7BCFF76BDFFF7A3FF00282A
:10C3500003D121002800FFF71FFFFFF77BFFF3E762
:10C36000C0160020F0B5160087B000930CAB1B88F8
:10C37000029003910022310002A80193032409F0E6
:10C380002DF90123019A009902A809F0B7F80023BA
:10C39000144D0593288009F0D5FE2B880700002B4B
:10C3A00010D003990298013CFFF7BAFFE4B20022D3
:10C3B000310002A809F012F9002CE2D1012040421C
:10C3C00007B0F0BD05A902A809F024F928800228C9
:10C3D00004D109F0B7FEC01B6328F3D928880028D0
:10C3E000DFD1EDE764140020F0B517260024012703
:10C3F00089B01D0004900591039209F0A3FE02ABE1
:10C40000F6183470AC4202D3012040420AE00134F5
:10C410003300039A049805990097E4B2FFF7A2FF4E
:10C420000028EFD109B0F0BDF0B58DB0039312AB89
:10C430001B880192049314AB1B880690079100227D
:10C44000019906A80593032709F0C8F80AAC06ADC0
:10C4500023002A0003CA03C30A21039B49190B8046
:10C46000049A0023200009F049F8214B188000238A
:10C47000099309F067FE0600200009A909F0CAF82F
:10C480001B4B1880022804D109F05CFE801B632836
:10C49000F2D90123059A1399200009F04FF8144BA3
:10C4A00018800023099309F04DFE0290200009A98D
:10C4B00009F0B0F80E4E3080022805D109F042FE96
:10C4C000029BC01A6328F1D9308800280ED0696811
:10C4D0000698013FFFF724FFFFB2002228000199D0
:10C4E00009F07CF8002FB2D1012040420DB0F0BD20
:10C4F000641400201A4B01229B6859080800104060
:10C5000011422CD199080220114228D1D908801853
:10C51000114224D119098018114220D159098018DB
:10C5200011421CD199098018114218D1D9098018DB
:10C53000114214D1190A8018114210D1590A8018D9
:10C5400011420CD1110080185A0508D4DA0A40189B
:10C550000A4204D15B0B0B400230C01AC0B27047D4
:10C5600000F0074010B5054C2378002B05D1044995
:10C57000044809F06BF80123237010BD70140020EB
:10C58000EC020020E402002010B5054C2378012BBA
:10C5900004D1044809F030F90023237010BDC046CF
:10C5A00070140020E402002070B50F4D2E68002E9C
:10C5B00001D0002070BD01211A2006F0DDF90B49E1
:10C5C0000B4809F05BF901230400320003210948FC
:10C5D00006F0EEFF0443A4B2002C02D101232B602D
:10C5E000E7E701204042E5E7741400201003002033
:10C5F000C816002000C00240F0B5042585B00190A7
:10C6000002910392154F039B029A0199380009F099
:10C610007DF9134C208009F095FD23880600002B3E
:10C6200007D0013DEDB2002DECD10120404205B014
:10C63000F0BD380009F08AF9208009F083FD801BE5
:10C64000632806D8380009F081F920800028F4D149
:10C65000C04620880028E4D1E9E7C046C81600207B
:10C660007214002070B50A4D2C68002C0AD10321E9
:10C670000C2006F081F90749074809F08FFA0123D9
:10C68000002802D001240023644220002B6070BDEA
:10C69000781400202C030020CCAB010010B500F072
:10C6A000F3FA10BD37B5002300220D4D009201931F
:10C6B00000216A46280009F093FB041E0CD1009A61
:10C6C000019B00210748F4F7E3FC05210200280044
:10C6D00009F030FB20003EBD01204042FBE7C04690
:10C6E000CCAB010000E1F5051E20042110B506F0D9
:10C6F00043F9074B01201A68002A07D10132054986
:10C7000005481A6009F026FC431E9841404210BDBE
:10C7100090140020D4AB0100F4AB01000A4B10B51B
:10C720001A68012A0DD1002408481C6009F064FC35
:10C73000074B0A22210007481C700DF0E3FD200082
:10C7400010BD01204042FBE790140020F4AB010033
:10C750007E1400207F14002070B50B4D0A000100EC
:10C76000280009F069FC09F0EDFC0400074E3100D7
:10C77000280009F06BFC002804D009F0E3FC001B42
:10C78000C728F4D9002070BDF4AB01008C14002040
:10C7900010B501220349044809F062FC034B1880DC
:10C7A000002010BD7F140020F4AB01007C14002099
:10C7B000114B10B51970002913D101220F4B1A70BB
:10C7C0000F4A13780133191CDBB2092B00D9092158
:10C7D0000C4B1170C9B201220B48C91809F04AFC70
:10C7E00010BD032906D1FFF799FFFFF77DFFFFF783
:10C7F000CFFFF5E7C046FAE789140020D5FEFF1FFA
:10C800007E1400207F140020F4AB010010B5084B0B
:10C810001B78002B09D00022064CA15C8154013208
:10C82000D1B28B42F9D858B210BD01204042FBE78B
:10C830007E1400207F140020014B18787047C046FA
:10C840007E14002070B50025074C084B29000A22F1
:10C8500020001D700DF056FD01222100044809F052
:10C8600009FC280070BDC0467F1400207E14002003
:10C87000F4AB010010B5084C2368002B02D0012056
:10C88000404210BD0549064809F0FEFB0028F6D1DC
:10C8900001232360F5E7C04694140020FCAB01009F
:10C8A00008AC010010B5024809F018FC002010BDCA
:10C8B00008AC0100024B98688006C00F7047C04664
:10C8C00000F00740C046704710B5002000F060F946
:10C8D0000338431E9841C0B210BD10B5002000F0CF
:10C8E00081F810BD37B50024084B0D0001AAC1180E
:10C8F00020000423019400F0BDF8041E04D104229A
:10C90000280001A90DF014FD20003EBD00C0FFFF6E
:10C9100013B56A46084B0C001B781371074B01AA2C
:10C92000C1180123002000F0A5F8002802D16B46B1
:10C930001B79237016BDC0467FA3010000C0FFFF16
:10C940007FB5002604001500012001910396042AFA
:10C950000AD801A903A80DF0EBFC044B3000E11844
:10C9600003AA2B0000F0A4F804B070BD00C0FFFFC4
:10C9700030B5002485B00500130001200191039417
:10C98000042A0AD801AAD11803AA01399C4206DB5D
:10C9900005490020691800F08BF805B030BD087813
:10C9A00010550134F1E7C04600C0FFFF37B5012242
:10C9B00005000C00FFF7C4FF002801D001203EBD98
:10C9C0006A46074B28001B7801A91371FFF7A0FFE7
:10C9D0000028F4D16B461B79A342EFD1EFE7C046A4
:10C9E0007FA30100034B185C0138431E9841C0B27D
:10C9F0007047C04698160020F0B5134F060120215D
:10CA0000F059C1B00AF04FF900240500BB19DB68EA
:10CA100000219C4205D3080001E0C046012041B03E
:10CA2000F0BDFC2201A800910DF06CFC802269464B
:10CA3000200252000AF068F905436DB2002DECD1D6
:10CA40000134E4B2E2E7C0469C160020084B000126
:10CA50001B1810B55C6802208C4208D89B688B427A
:10CA600005D352180133934280414042400010BD2B
:10CA70009C160020F8B51D0006000C001700FFF7FB
:10CA8000B1FF03000120002B07D12A002100300054
:10CA9000FFF7DCFF002801D0C046F8BD2A003900AE
:10CAA00020000AF0A5F9431E9841C0B2F5E7000046
:10CAB000F0B585B0039280220600334C01915200FC
:10CAC0000021200002930DF01DFC3000FFF78AFFCB
:10CAD0000125002807D13000029A0199FFF7B6FF1F
:10CAE000051E03D0C046280005B0F0BDFF268022F9
:10CAF000019F2100B743380052000AF079F9019BE9
:10CB0000029A3340181903990DF012FC8121380064
:10CB10000AF0C9F880222100380052000AF0F4F827
:10CB200080221A4C2900200052000DF0EBFB8022DD
:10CB30002100380052000AF05BF9C0468025022629
:10CB40006D000023104A0192019AE15CD25C91428F
:10CB500015D0812138000AF0A6F82A000199380082
:10CB60000AF0D2F82A00210038000AF041F9012E1B
:10CB700003D101256D426D42B5E70126E1E701339E
:10CB8000AB42E1D10025F6E798150020981400206B
:10CB9000F0B585B0002802D0042005B0F0BD354DB9
:10CBA000354B0122AB601023EB6002AB19001880FB
:10CBB000286068600AF01CF9012202AB0400991891
:10CBC000A8680AF015F9044364B2002CE4D102AB62
:10CBD0001B78AA2B0FD102AB5B78552B0BD101220E
:10CBE000264B1A702B689A18254903205B18214997
:10CBF0004A608B60D1E70020FFF7FEFE061ECBD116
:10CC00000125204B03AA1B4F13801C4B396801934D
:10CC10001D702B00FFF74CFF02AA04002B00300010
:10CC2000B9680532FFF744FF019B0443E4B21E706C
:10CC3000002CB1D102AB19002A0038681C800AF020
:10CC4000D7F802AB04002A00B86859190AF0D0F8E6
:10CC5000044364B2002C9FD102AB1B78AA2B9BD15A
:10CC600002AB5B78552B97D1019B1D703B685A191D
:10CC7000BAE7C0469C160020FF0F0000981600205F
:10CC8000FE0F0000AA550000F0B5F64991B0F64835
:10CC900009F08AFF09F056FAF44B0100180009F078
:10CCA00083FFF34809F080FFF24809F07DFF00267A
:10CCB00009F048FAF04BF14D1E70049000F0D0FFDF
:10CCC000EF4BF04C1A78F04B1A7022006632127853
:10CCD0005A702200623212789A70220064321278FE
:10CCE000DA702200653212781A71220063321278EB
:10CCF0005A712200783212789A71220077321278B3
:10CD0000DA713300E14E5A00915B0133A952142BC2
:10CD1000F9D12B00B26CC0331A602A00DC4BAF3261
:10CD20001978DC4F11702A005978B03211702A003E
:10CD30009978B13211702A00D978B23211702A0074
:10CD40001979B33211702A005B79B4321370D24B67
:10CD50001B785A1E93412A00A5321370CF4B1A78C4
:10CD60002B00B6331A703B78012B09D100F0F2FE8C
:10CD7000CB4B1B68C01ACB4B984201D900233B70A8
:10CD80002B003A78B5331A7023005D331A78C64BFE
:10CD9000C64F1A70C64B1A782B00A1331A702A009E
:10CDA0000023A63213702A00B73213702A00C14B39
:10CDB000AE321B7813703300AE331A782B009D33DC
:10CDC0001A703300AF331A782B009E331A70BA4BA7
:10CDD0003A7801930123002A02D1019B1B78DBB230
:10CDE0002A00AD321370B54A019B197813780B43B2
:10CDF0001370B34A397813780B43591E8B41DBB259
:10CE00001370B04A3B7811780B4313703300AE4A6D
:10CE1000C5331B7811780B431370F6F723F8B36C06
:10CE2000002B00D144E2B26CA84B9A4200D93FE2F9
:10CE30003121B06CF3F726FF0DF06CF9A44AA54B35
:10CE40000CF09AFA0022A44B0BF0EEFA8023029029
:10CE50000391029A1B061000039AD1180DF0F0F806
:10CE60000023BC352860894DE15CEA18503201335B
:10CE70001170142BF8D15E222B00A256B0331A7019
:10CE80005F222B00A256B1331A702A00934B6A32EC
:10CE9000598B606A11802A00198B6C3211802C2208
:10CEA000995E2A006E3211802A229A5E2B0070331E
:10CEB0001A800BF00BFA8A4B68671A682B1DDA6729
:10CEC000884B1A682B0088331A60A36AEB67864B7D
:10CED0001A682B008C331A602B00226D9C331A6069
:10CEE0002B00626DA0331A602B00A26DA4331A6070
:10CEF0002B00E26CA8331A6023002C331B785A1ED7
:10CF000093412A00DBB2B232137023002D331B7819
:10CF10005A1E93412A00DBB2B332137023002E3322
:10CF20001B785A1E93412A00DBB2B43213702300DF
:10CF30002F331B785A1E93412A00DBB2B53213708F
:10CF4000230030331B785A1E93412A00DBB2B732DC
:10CF50001370230031331B785A1E93412A00DBB231
:10CF6000B8321370230032331A782B00BA331A7098
:10CF7000230033331B785A1E93412A00DBB2BB32A5
:10CF80001370230034331B785A1E93412A00DBB2FE
:10CF9000BC321370230035331B785A1E93412A008C
:10CFA000DBB2BE321370230036331B785A1E934116
:10CFB0002A00DBB2BF321370230037331B785A1EAE
:10CFC00093412A00DBB2C0321370230038331B7840
:10CFD0005A1E93412A00DBB2C13213702300393349
:10CFE0001B785A1E93412A00DBB2C2321370631CB5
:10CFF000DA7F2B00C5331A702A00019BC6321B78DA
:10D00000DBB213703B785A1E93412A00DBB2C73261
:10D01000137023002A0060331B78C832137023007A
:10D0200079331B78591E8B412900DBB2C9310B7053
:10D0300023007A331B78591E8B412900DBB2CA3199
:10D040000B7023007B331B78591E8B412900DBB208
:10D05000CB310B7023007C331B78591E8B41290088
:10D0600044E0C04631AC01005AA3010067A30100AF
:10D0700010AC01007EA30100C007002014070020AF
:10D08000E506002084060020241700209C0B0020C9
:10D090007C0B0020C70E0020B10A002008170020DA
:10D0A000441700203F9C0000C60E00202C170020D3
:10D0B000540B0020FE160020C40A0020C90E0020D8
:10D0C000C80E0020F4160020F31600208F5F010028
:10D0D000EC51B81E85EBC13F00408F400408002092
:10D0E000F40A0020EC0A0020F00A0020DBB2CC3168
:10D0F0000B7023007D331B78591E8B412900DBB256
:10D10000CE310B7023007E331B78591E8B412900D2
:10D11000DBB2CF310B7023007F3319782B00D13372
:10D120001970230080331B78591E8B412900DBB214
:10D13000D2310B70230081331B78591E8B4129009B
:10D14000DBB2D3310B70230082331B78591E8B4125
:10D150002900DBB2D5310B70230083331B78591EB5
:10D160008B412900DBB2D6310B70230084331B784E
:10D17000591E8B412900DBB2D7310B702300853358
:10D180001B788634591E8B412900DBB2D8310B70D5
:10D190002378591E8B412900DBB2D9310B701178ED
:10D1A0004C4A13780B431370FDF776FB08F0CAFF67
:10D1B000494E4A4C3368C01A494B1A78FA239B00EF
:10D1C0005343984205D90122464B1A6008F0BAFF32
:10D1D0003060454B45491A78454E0191012A10D1DE
:10D1E00000221A70F4F75EF8424B1860019B1B781E
:10D1F000012B06D03378012B03D035342178F4F796
:10D200006FF8C04633783C4C012B1BD100211E2205
:10D2100008A821700DF076F8384F364B39681B6836
:10D22000994247D8002945D02B00B0331B78002BFA
:10D2300047D0C046324B1868F4F760F800233370CB
:10D2400001332370019B2E4A1B7800210592012B8C
:10D2500000D059E31E2208A821700DF053F8284F82
:10D26000284E3A6833689A4200D98BE0264B1C78E6
:10D27000264B1B780293012B0AD1254B1868F3F734
:10D28000E5FF013000D002940022204B029C1A706E
:10D29000184A33681268934201D8002B3CD1C0462B
:10D2A000B0352B78002B00D0C046C046386859E016
:10D2B0001848D5E5C0462B00B0331B78002BB8D1F9
:10D2C000B8E708A8F3F79CFF396808A8F3F7FAFF56
:10D2D000B0E7C046C50E00201C170020F80A002049
:10D2E0002D0B002020170020181700200817002001
:10D2F0000917002010170020480300200C170020F9
:10D300000417002014170020F6160020FC16002039
:10D31000F816002070FEFFFF2B00B0331B78002BA7
:10D32000C2D1002C00D0DDE21E22210008A80CF0A2
:10D33000E9FF08A8F3F752FFE94B08A81968013183
:10D340001960F3F7BFFFE74B002800D0B7E21A6877
:10D3500001321A60E44A1470C04618683368984273
:10D3600000D2C8E2F3F7CAFF0023059A1360DF4A30
:10D370001360019A1370DA4A1360F3F783FF0122F6
:10D38000DB4B1A70DA4B1B78012B00D071E1D94BC3
:10D390001E68012E00D06CE10022D74C1A600021DB
:10D3A0001E3220000CF0AEFFE121D44D0901E86FE0
:10D3B000F3F768FC0AF0F6FF2B007833071C188897
:10D3C00080B20AF0A3FF011C381C0AF0B7FACC495E
:10D3D0000AF09AFC2B000290B2331A78637D324037
:10D3E000B343134363752B000221B3331A78637D73
:10D3F000324052008B43134363752B00B4331A78C9
:10D40000042032408A40637D0E31834313436375A9
:10D410002B00B5331A78637D00183240D200834365
:10D42000134363752B00B7331A78637D32401201C2
:10D430008B431343B34A63752B001278B833571EDE
:10D44000BA411B7892015B011A43AF4B01931B78E1
:10D450005F1EBB411F27DB011343627D3A4013432C
:10D4600063752B00BA331A781D3F531E9A41A37D72
:10D47000B3431343A3752B00BB331A78A37D32400B
:10D480005200BB431343A3752B00BC331A78A37D12
:10D490003240BA400237BB431343A3752B00BE335F
:10D4A0001A78A37D3240D20083431343A3752B0027
:10D4B000BF331A78A37D3240BA408B431343A37520
:10D4C0002B00C0331A78A37D1031324052018B43B8
:10D4D0001343A3752B00C1331A78A37D203132404A
:10D4E00092018B431343A3752B00C2331A78A37D9B
:10D4F0003F31D2010B401343A37508F023FEFA21FC
:10D50000030A20706370030C000E8900A370E070A2
:10D51000E86CF3F741FC83B21B0A63742B002074A0
:10D520006A331B88AF1CA3711B0AE3712B006C3399
:10D530001B8823711B0A63712B006E331B88A37237
:10D540001B0AE3722B0070331B8823721B0A637261
:10D55000EB8F23731B0A6373FB8F0227A3731B0AD2
:10D56000E3732B00AE331A78E37D3240B3431343A9
:10D57000E3752B00AF331A78E37D32405200BB4392
:10D580001343E3752B00AC331A78E37D3240BA4085
:10D59000FF19BB431343E375EB19D86F09F042FF42
:10D5A0002B002A0008338832A0741068D96F0AF063
:10D5B000C5F953490AF0A8FB09F034FFE07402985A
:10D5C00009F030FFFA2120758900A86CF3F75AFBA7
:10D5D00083B21B0A637600232076A676E676A27EC7
:10D5E0005800013A52002E5AAA5A591CC9B2964202
:10D5F00001D2A176C046E27E285A013A5200AA5AC8
:10D60000904201D9E176C0460133142BE7D1133B98
:10D610006377237700233848190018314A00AF5A3E
:10D62000627F3FB217325200AE5A5A1C36B2D2B2A3
:10D63000B74201DD6277C04649006E5A017F36B2BB
:10D6400017314900695A09B28E4201DA0277C046A1
:10D650000133072BE0D1C046F3F7AEFD2B4B00287A
:10D6600000D15EE101221A70294A13780133137048
:10D67000C0460027FA21214D08AE06ABA86CDF7129
:10D6800089003780F3F7FEFA224C06AB0122991D80
:10D690009871200000F052FB2B1DD86F09F0C2FEDC
:10D6A0002B00C0B26E33607018880A2100B2F3F705
:10D6B00073FBFA2140B2A070E86C8900F3F76CFBB1
:10D6C00006ABD91D0122D871134800F037FB2B009F
:10D6D000A433186809F0A6FE0222310030801DE054
:10D6E0000017002004170020F51600201417002052
:10D6F0004803002020170020D41600209C0B002097
:10D700000000C842F3160020F4160020FE16002088
:10D71000FD16002075170020781700208E4800F0B5
:10D720000DFB2B00A833186809F07CFE02223100A3
:10D7300030808A4800F002FB06AB9F712B00BC339F
:10D7400019780123227A19409A430A4322722A0047
:10D75000C1321178022019409940227A82430A434B
:10D7600022722A00C2321178227A194081400018B0
:10D7700082430A4322722A00BB321178227A19406E
:10D780000430C90082430A4322722A00B832117859
:10D790001A00B94203D12A00B7321278D2B210204F
:10D7A000217A1A40814312010A4322722A00B532BB
:10D7B0001178227A19400018490182430A432272E3
:10D7C0002A00BE321078217A1840402399430B007A
:10D7D0008001034323722B007F20B4331978237A0E
:10D7E000C90103400B4323721378DAB2002B00D136
:10D7F000A1E002236372FA21594B89009869F3F77B
:10D80000CBFA02220523574C40B220706270A370FD
:10D81000554B31005548338000F090FA6279392237
:10D820006271A2792B0030220833A27188352868F2
:10D83000D96F0AF083F84E490AF066FA09F0F2FD52
:10D84000C0B214214B4AE0714B4800F0F5FA08F0E1
:10D8500079FC049B494AC41A1168494B1C60494B26
:10D860008C4203D91968002900D11460464A18680F
:10D8700011688C4202D9032800D91460434A116808
:10D880008C4200D21460461C414D1E600AF08AFD95
:10D8900029680AF039FA071C20000AF083FD011CF0
:10D8A000381C09F0C1FE041C30000AF07BFD011C8D
:10D8B000201C0AF043F82860C04611B0F0BD35497D
:10D8C00030680A780A240132D2B20A70642800D87B
:10D8D000093C3149A24201DB1860C046C0461868C5
:10D8E0000B683CE5C04638683368984200D339E598
:10D8F000012C00D136E508F025FC049BC01A5A28FB
:10D9000000D8ACE4C0463DE5059B1960224B196088
:10D91000019B1970214B1960F3F7B4FC01232370AC
:10D9200030E5019A187010701D4A10701D4A136876
:10D93000013313609DE62B00AF331B78D9B2012B66
:10D9400001D1617257E72B00B0331B78012B00D057
:10D9500051E762724FE7C046791700207B1700201D
:10D96000F80A00206D170020682F000070170020B3
:10D970000000C842F2160020400B00203C17002097
:10D980003417002030170020401700204C030020DF
:10D9900038170020F516002014170020001700206B
:10D9A000F3160020D0160020F7B50D00484849496D
:10D9B00016001F00089C09F0F7F808F0C3FB464B5F
:10D9C0000100180009F0F0F82900444809F0ECF8CB
:10D9D000434809F0E9F800233A0021006846009323
:10D9E00001930CF0A5FCEF223E4B12042B40934216
:10D9F00010D16B461B78102B07D0012E04D10822C2
:10DA000069462800FDF7DCFCF7BD08F09BFBFEF73C
:10DA100067F9F2E7012E04D1082269462800FDF7D4
:10DA2000CFFC314BE81803284DD8F3F721F9020A4F
:10DA300038472E4B1B78002BE6D12D4B01221A7054
:10DA4000E2E72A4B1B78002BDED1C046294D042289
:10DA5000210028000CF06CFC274E04223000211D10
:10DA60000CF066FC33682A689342CDD801219942B4
:10DA7000A4412248644201701D480170204804708E
:10DA8000002B00D10B000132D21A336000232A6030
:10DA90001C4A13601C4A13601C4A1370B4E7C0464A
:10DAA000164B1B78002B09D10422210018480CF0DA
:10DAB0003FFC0122174B1A700D4B1A70E379FF2BB4
:10DAC000A2D1124BBAE7162D9ED1134BB6E7C04632
:10DAD0005AA301001BAC010067A3010015AC0100B3
:10DAE0007EA301000000FF0300FAFFFF4C0C0020A2
:10DAF0001817002014170020F8160020081700201F
:10DB0000FC1600200017002004170020F616002045
:10DB10000C170020091700207C0C002010B50023F2
:10DB20000121044A044801F073F90021080001F0C2
:10DB30007BF910BDBC160020D8FEFF1F10B5FFF703
:10DB4000EDFF012008F0F0FA002010BD10B508F03C
:10DB5000EBFA10BD10B508F0F5FA10BD10B5FEF7E0
:10DB6000F3FA10BD10B5FEF703FB10BD10B501228E
:10DB7000FEF7FEFA10BD10B50022FEF7F9FA10BD4F
:10DB800010B5FEF7FAFA10BD10B5FEF7FEFA10BD9B
:10DB900010B5034C02000B0003CCFEF725FC10BDB2
:10DBA000DCFFFF1F13B5044C00920B00020003CCF6
:10DBB000FEF7D8FB16BDC046DCFFFF1F1FB5029362
:10DBC0000123054C0192009302000B0003CCFEF7E9
:10DBD0002BFC04B010BDC046DCFFFF1F10B5FEF7E4
:10DBE0006FFB10BD10B5034C02000B0003CCFEF719
:10DBF000FBFB10BDC016002013B5044C00920B00B7
:10DC0000020003CCFEF7AEFB16BDC046C0160020D6
:10DC10001FB502930123054C0192009302000B00F3
:10DC200003CCFEF701FC04B010BDC046C0160020B6
:10DC300010B5FEF75FF910BD10B5FEF7CBF910BDBA
:10DC400010B5FEF7E3F910BD10B5FEF70BFD10BDE2
:10DC500010B5FEF727FD10BD10B5FEF70BFE10BD89
:10DC600010B5FEF71FFE10BD10B5FEF723FE10BD68
:10DC700010B5FEF727FE10BD10B5FEF735FD10BD3F
:10DC800010B5FEF769FD10BD10B5FEF781FD10BDA2
:10DC900010B5FEF7BBFD10BD10B5FEF7CDFD10BDF4
:10DCA00010B5FEF7CFFD10BD10B5FEF75BFC10BD43
:10DCB00010B5FEF769FC10BD10B5002804D10B218A
:10DCC0000548FFF758FF10BD0128FCD10B21024881
:10DCD000FFF74CFFF7E7C04600F00F4010B50028F3
:10DCE00004D10C210548FFF746FF10BD0128FCD1E7
:10DCF0000C210248FFF73AFFF7E7C04600F00F405B
:10DD000070B5094D002228000B2107F075F8280096
:10DD10000B21FEF732FA0400012228000B2107F044
:10DD20006BF8E0B270BDC04600F00F4010B5FEF7D2
:10DD30003BFC10BD10B5FEF75FFC10BD002310B515
:10DD4000891801399A4200DC10BD0C78C4540133A3
:10DD5000F7E7002310B59A4200DC10BDCC5CC45438
:10DD60000133F8E710B5FEF7C5FB10BD10B5184C30
:10DD7000FFF7E4FEFFF770FFFFF7F0FE200001223F
:10DD80000221FFF7EFFE002201211248FFF7EAFE11
:10DD9000012205211048FFF7E5FE012209210F4865
:10DDA000FFF7E0FE200000220821FFF7DBFE002243
:10DDB00007210B48FFF7D6FE01220E212000FFF7B6
:10DDC000D1FEFFF70BFFFFF73FFFFFF7AFFF10BDDF
:10DDD00080F00F40C0F00F4040F00F4000F10F40C6
:10DDE00000F00F4010B5FFF733FF10BD10B5FCF782
:10DDF00029FD10BD10B5FFF73FFF041E03D1FFF74B
:10DE000043FF200010BD01246442FAE710B5C9B2F7
:10DE1000FFF736FF10BD10B5FFF73AFF10BD10B584
:10DE2000FFF73AFF10BD10B5FFF73AFF10BD10B570
:10DE3000FFF7E0FF10BD000070B5364E364C33687A
:10DE40002168364A364D5B1813602B78022086B065
:10DE5000002B5DD0334B5A79C046997901309142FD
:10DE600054D15B79DAB2972B29D001309A2A4DD15F
:10DE70002D4B0822019309206B462C491A726844E5
:10DE80000CF056FA00231A0001A9C9184979013388
:10DE90004A40092BF8D1C0466B461120D91C0A70A4
:10DEA00068440122FFF74AFF0D236A460F2193744D
:10DEB00001A8FFF7ABFF23680133236025E01A4B6D
:10DEC0000A22019309206B4619491A7268440CF022
:10DED0002FFA00231A0001A9C918497901334A40D1
:10DEE0000B2BF8D1C0466B461320D91C0A7068442E
:10DEF0000122FFF723FF0D236A461121137501A8A4
:10DF0000FFF784FF336801333360C04600232B7072
:10DF100006B070BD5817002054170020501700207D
:10DF20006417002065170020B66BAA5A6D170020F1
:10DF3000751700201FB50021062202A8019101AC2F
:10DF40000CF0E0F9FFF76BFF07281DD9344A0A21CE
:10DF50001368200001331360FFF75DFF072813DD0E
:10DF6000FFF761FFC0462378C52B0DD163785C2B8A
:10DF70000AD1A3785A2B07D1E378AA2B04D163796D
:10DF8000972B03D09A2B29D004B010BD2100082272
:10DF900024480CF0CDF90222234802A9FFF7CEFE57
:10DFA0000122224B224C1A70224A2349136823482B
:10DFB0000133136023680133236008F0F5FD08F096
:10DFC000C1F81F4B0100180008F0EEFD1D48216844
:10DFD00008F0EAFD1C4808F0E7FDD5E7210008221B
:10DFE00010480CF0A5F902220F4802A9FFF7A6FE7F
:10DFF00001220E4B154C1A700E4A0F4913680F4838
:10E000000133136023680133236008F0CDFD08F06D
:10E0100099F80B4B0100180008F0C6FD0C48D6E734
:10E0200060170020651700206B1700206417002080
:10E030004C1700205C17002074AC01005AA30100AB
:10E0400067A301003AAC01007EA30100481700203D
:10E0500055AC01001249134A70B5521A12480CF01F
:10E0600067F91249124A1348521A0CF061F9124A20
:10E0700012480021121A0CF045F91149114A1248B0
:10E08000521A0CF055F9114C1149124D8C4205D021
:10E09000114A2000920892000CF04AF92C6070BDE1
:10E0A00010B001006CB60100C0FDFF1F6CB601008E
:10E0B0006CB601001C040020F42100206005002043
:10E0C0006CB6010014B7010000FCFF1F00FDFF1F2C
:10E0D0000008000008ED00E0C0000000044B054A05
:10E0E0005A605A68044A1A60044A9A607047C046E7
:10E0F0000020054020C528D920210000FFFF000096
:10E1000003480449044B425892B2134343507047AA
:10E1100000E000E00C0D00000400FA05064B0220B0
:10E120005B69DBB2042B06D00130802B03D01800D2
:10E13000012B00D00420704700E00740054B5A68CF
:10E14000802310005B0418401A4201D0024B18686B
:10E150007047C046FC400640801700208022094BD3
:10E16000920099588022080052041040114208D0B1
:10E17000822292009A580123100018401A4200D0BF
:10E18000014870470040064000127A00C022074B49
:10E19000920099588022080052041040114203D086
:10E1A000C22292009B5802487047C0460040064079
:10E1B000006CDC0270B5144C050023691B011B0FB9
:10E1C000022B12D0032B13D00020012B01D1FFF71B
:10E1D000B5FF0F262169090C31400131F2F752FDDC
:10E1E000012D08D0022D0DD070BDFFF7B7FFF0E76D
:10E1F000FFF7CCFFEDE72169090931400131F2F762
:10E2000041FDF1E72169F8E70040064010B501291A
:10E210001ED0052807D0062814D0FFF79FFF8123C2
:10E220000200184904E0FFF7B1FFC12302001549BD
:10E230009B00C85807231840002802D00138C2406C
:10E24000100010BDFFF77AFF0F4B02009868F1E74E
:10E25000052807D006280FD0FFF780FF8123020092
:10E26000084904E0FFF792FFC123020005499B0023
:10E27000CB585B05580FDFE7FFF760FF024B02004A
:10E280009B68F6E700400640FC4006400C4A1369D4
:10E290001B079B0F022B07D0032B0DD00020002B58
:10E2A00009D1FA20400206E01269100018401A4213
:10E2B00001D0FA20C001704702231269F5E7C04679
:10E2C000008004400C4B00201B6A10B51B011B0F83
:10E2D000032B07D81800F2F7CBFC0206090C02202A
:10E2E000FFF768FF10BDFFF729FFFBE7FFF736FFD9
:10E2F000F8E7FFF74BFFF5E7004006400F4A10B57F
:10E3000013699B069B0F022B11D0032B12D0012BFC
:10E3100004D000210620FFF779FF07E012690223ED
:10E32000100018401A4201D0FA20C00110BD044B61
:10E330001868FBE700210520EDE7C0460080044097
:10E340008417002010B51E4C802362681B0110004A
:10E3500018401A4216D060680006000F0E282CD80C
:10E36000F2F786FC112B142B192B1C1F2B23082BC7
:10E37000252B2800FA20400261684905490F013128
:10E38000F2F780FC10BDFFF79DFFF5E701210620A5
:10E39000FFF73CFFF0E701210420F9E70121052008
:10E3A000F6E70020FFF706FFE6E70120FAE7FFF7B0
:10E3B0006DFFE1E7FFF7A2FFDEE70020DCE7C046E4
:10E3C00000800440154B4000C35A154A9B0070B5AD
:10E3D0009B1801260F221C681D6824090020344068
:10E3E0001540A54214D31A68920F324210D01B6810
:10E3F0005B015B0F022B0CD0032B0CD0B34202D17C
:10E400000630FFF703FF691CF2F73CFC0134604360
:10E4100070BD0420F5E70520F3E7C0467EAD01009E
:10E4200000500640F0B5060085B000290AD16B46C1
:10E4300019732F4B6A4600932E4B694601930223B2
:10E44000FF3313812C4B01245A680220520E17000F
:10E45000274022420BD15A682848294D02405A6071
:10E460008022D2045A602F60002E02D1002005B015
:10E47000F0BDE02007264A7AC00012020240087A66
:10E480003040024330209A60CA79013612010240BE
:10E490008879C000304002434879043E8000304013
:10E4A0000243DA600A79012A12D0022A16D0002A21
:10E4B00003D10A7BD20514435C600B68114C2B60BE
:10E4C000FFF73CFE00280FD1002C0BD10330CEE724
:10E4D000087B0D4AC00502435A60EEE7087B0B4AF1
:10E4E000C005F8E7013CEBE7002CBFD10320BEE7F5
:10E4F00000127A0000010002FC400640FFFF7FFF8F
:10E500008017002088E730000100010001000300AF
:10E51000F7B5060000290BD180236A465B00938083
:10E52000022391716946FF331380013BFF3B9370D7
:10E5300080221F4B92009D5801246D0E2F00022057
:10E540002740254207D198581A4D284098509F508F
:10E55000002E01D10020FEBDE02007258A78C000F2
:10E5600012020240487828400243812080001A505D
:10E570000A78043022401A5048798A7909790029AA
:10E5800000D003248021D20580000243224364246A
:10E5900089005A50FFF7E2FD002805D1002C01D177
:10E5A0000330D8E7013CF5E7002CD3D10320D2E7B4
:10E5B00000400640FFFF7FFF37B50400002908D167
:10E5C0006A460123917153718022694652000A8084
:10E5D0008B70C0221E4B92009D580220AD0109D4C1
:10E5E00098581C4D284098508020C0049850002C0A
:10E5F00001D100203EBDE02007248A78C00012022D
:10E600000240487820400243C12080001A50032075
:10E610000A780240C22080001A5048798A7909217C
:10E62000002800D00839D2050A43C02114248900EB
:10E630005A50FFF7ABFD002805D1002C01D1033063
:10E64000D8E7013CF5E7002CD3D10320D2E7C04640
:10E6500000400640FFFF7FFFF0B585B001930AAB95
:10E660001C78019B07005E1C130001337343029367
:10E670004B1C73430D0000920393022C3ED0032CDD
:10E680003FD0012C06D0012856D00020022F10D0F8
:10E69000002049E0FFF752FD0009012F34D0022F7E
:10E6A000F6D10C2262432F4BD3581B095E43B04274
:10E6B00039D80C2262432B4B02999B185A681209D5
:10E6C000514381422FD39B68039A1B095A438242CC
:10E6D00029D3F02324061B051C400F23FF221D40D5
:10E6E000009B2C431B011340F0221C43019B12038F
:10E6F0001B0413401C431C4B9C61C9E7FFF72EFD14
:10E70000CAE7FFF743FDC7E70C216143174BCA581F
:10E7100012097243904206D85B185A68029912098E
:10E720005143884202D9012005B0F0BD9B68039A8D
:10E730001B095A439042F6D8F02324061B051C40BF
:10E740000F23FF222B401C43009B1B011340F02290
:10E750001C43019B12031B0413401C43024B5C61CE
:10E7600096E7C04690AC010000400640E4AC0100D2
:10E7700037B50400FFF7D2FCE578A37862782178FA
:10E780000095FFF769FF00280FD10A220F25E178D5
:10E79000064C2369013A1B0E2B408B4203D0002A02
:10E7A000F7D1032001E0002AFBD03EBD0040064027
:10E7B000F0B50700A7B0002823D0CE4E3C00336947
:10E7C0001B011B0F032B0FD0FFF7E0FC011E04D130
:10E7D0000120FFF7F1FE051E10D1C74B07A80793D4
:10E7E000FFF7C6FF051E09D1FB782100180003932F
:10E7F000FFF78EFE051E4ED0FFF790FC280027B0D5
:10E80000F0BD8024012208AB640009949C83BB4CBA
:10E8100014AD0C94BA4C2A700D9412AC22700AAC50
:10E82000E777C02424031094B64C04AD1594B64C7D
:10E8300002211694B54CFF319C87B54C9A812494E3
:10E84000162423943D3464192270B24C9A731A949E
:10E850001BAC22707B24641922701CAC19922270AC
:10E8600021AA11807622AC48521913971D971E9742
:10E870001F9708901981198399842090118022AAEA
:10E8800017807A225219177025AA118086225219F0
:10E8900017701F0091E739007B7F10311800049337
:10E8A000FFF7C0FD3C0005000590FFF737FC36344C
:10E8B000012803D00434022800D00024059B002B3B
:10E8C0009CD1E378032B00D001E1049B002B00D006
:10E8D000EFE0039B0125002B00D18FE78F4B07A8AA
:10E8E0000793FFF745FF0500002D00D086E7B87BB2
:10E8F000F91DFFF761FE051E00D07FE7032307A87F
:10E90000C370A37883706378437023780370FFF734
:10E910002FFF051E00D071E73B0030331B78002B22
:10E9200002D07F4BFA6A1A603B0035331B78002B0C
:10E930000BD0326A7B4BF0211A403B0034331B78FA
:10E9400009051B060B40134333623B0043331B781E
:10E95000002B00D0F4E03B6F002B00D017E13B0010
:10E9600044331A78002A12D0FF246F486F4A416856
:10E9700011405A78D2020A43997809012140E024D3
:10E980001143DA78E400120222400A4342601A7905
:10E99000002A13D03F210C24634802698A43197A64
:10E9A0001143DA7952000A439979890021401143D1
:10E9B0005A792434120122400A4302611A7F002A44
:10E9C00026D00121584A106C8843597F01431164B5
:10E9D0000221106C8843997F49000143116404218E
:10E9E000106C8843D97F8900014311640821106CA1
:10E9F000884339004531C97FC900014311641021A2
:10EA0000106C884339004631C97F09010143116404
:10EA10001B7B002B06D0464B7A6D1A60BA6D5A608C
:10EA2000FA6D9A603B004733DB7F002B23D0002038
:10EA30003D4A8024936E906651683E4B64011940B4
:10EA40003B004933DB7F1B0323400B4353603B00F8
:10EA500090664833DB7F83420DD03B000E214A3362
:10EA6000DB7F5B000B4039004B31C97F0B438021BA
:10EA700049050B439366380074300378002B00D1AE
:10EA8000BCE67F212C4A447893780B407E39614064
:10EA9000C9010B43DBB293700223C356002B01DA8A
:10EAA00020335BB21F201179034081430B43137164
:10EAB000A4E6224B07A80793FFF75AFE039B050025
:10EAC000002B00D110E7012800D00DE706E707A8CA
:10EAD000C370A37883706378437023780370FFF763
:10EAE00047FE051E00D089E6B87BF91DFFF764FDDF
:10EAF0000FE7C046004006400301000300127A0001
:10EB000000010002030101010003030001020000F3
:10EB10005003002001000001010101010100000279
:10EB200084170020FFFFFFF0008004400FF0FFFF7C
:10EB300088170020FFEFFFFF00D007400101000110
:10EB400038003B003A00390039300078383337322A
:10EB500036311B781278097800900120FFF77CFD90
:10EB6000002812D138003B003A0039003D300078CF
:10EB70003C333B323A311B781278097800900220FE
:10EB8000FFF76AFD002800D1E5E6050036E605211D
:10EB90001026FA6E4A439A189446114A03929C45ED
:10EBA00000D1DCE61A7803995200515A0D4A8900C7
:10EBB00089180A680C48E02402400F200A601A797C
:10EBC000E404024058788007024398780006204009
:10EBD0000243D87805330001304002430A60DEE783
:10EBE0007EAD010000500640FFFFFFBFF8B50600F4
:10EBF0000D00112835D80F2800D9ABE0F2F738F80E
:10EC0000080D0F55111417AA1A1D2025272A2C2F7D
:10EC10000020FFF7CFFA00243EE00120F9E70220B0
:10EC2000F7E7FFF79BFAF6E7FFF7B0FAF3E7FFF72E
:10EC300085FAF0E76E4B1868EDE7FFF743FBEAE76C
:10EC400000210420FFF7E2FAE5E70121F9E70021BE
:10EC50000520F7E70121FBE700210620F2E701216B
:10EC6000FBE7212800D978E015380C2800D971E09D
:10EC7000F1F7FEFF07171B1E212B3D4F59616569F8
:10EC80006D005C4BDB689B0100209B0F0400032B95
:10EC900002D0594A9B009858002D00D028602000CF
:10ECA000F8BD544BDB681B01EEE7FFF74BFBB2E707
:10ECB000FFF724FBAFE70020504B04009B78DB09F3
:10ECC000012BE9D0FFF7E2FAE6E700204B4B040006
:10ECD0009B78DB09012BDFD0464B1A69012310001A
:10ECE000184004001A42D7D0FA20800093E7002091
:10ECF000424B04009B78DB09012BCDD03D4B1A69B8
:10ED00000223100018401A4200D184E7FA20C00103
:10ED100081E70020394B04009B78DB09012BBBD035
:10ED2000FA204002B8E7334B1B6C1B0901249C43BB
:10ED300000202402B0E72F4B1B6CDB08F6E72D4BBD
:10ED40001B6C9B08F2E72B4B1B6C5B08EEE7294B17
:10ED50001B6CEBE7002004249EE7042443289ED884
:10ED60000020222E98D03200323AD2B2112A04D892
:10ED7000234BD340DB0700D58EE7224B7200D35ADA
:10ED8000214A9B009B585B0003D480240020640030
:10ED900082E71E4B9F5D2023380018401F4218D089
:10EDA0000120FFF707FA0028EFD018233800184099
:10EDB0001F4200D12FE710243C403F0710D4002C05
:10EDC000E3D001213000FFF7FDFA44424441240220
:10EDD00062E77B06E5D47BB2002BE6DA0220E0E7AF
:10EDE00000213000FFF7EEFA002CEED0E9E7C04634
:10EDF00084170020008004408817002000D00740BE
:10EE0000290102007EAD01000050064038AD01002E
:10EE100010B5044C206021710020A260237363733D
:10EE200010BDC04694170020F0B585B003AE009029
:10EE300001913070717003F097FD2E4D00242B7BF3
:10EE40006B730123B3702B7BA34214D8009A2B68F9
:10EE50009200D058FFF7ACFC009B071E6B7121D1CC
:10EE600002230400B3702B7BA3422AD803F070FD69
:10EE7000380005B0F0BDAB68A200D358002B02D11A
:10EE80000134E4B2DFE71A79022AF9D030001A68B7
:10EE9000996890470028F3D0019B6C73002BEFD149
:10EEA0000427FF370023A400B370AB681B59002B65
:10EEB00003D030001A6899689047043C231DF4D1B0
:10EEC000D4E7AB68A200D358002B02D10134E4B2DE
:10EED000C9E71A79012AF9D030001A689968904771
:10EEE0000028F3D0019B6C73002BEFD182277F00A9
:10EEF000BCE7C0469417002010B5FFF777FE10BDA1
:10EF000010B50A0000210BF0FDF910BD10B5054C3D
:10EF100083002068C01803685960036800209A6065
:10EF200010BDC046A4170020094B82001B6810B515
:10EF3000D35803221040074A1077D077002B06D011
:10EF40005A68002A03D0197B9868C9B2904710BD4F
:10EF5000A41700200080004070B5032405000D4E6A
:10EF6000044000222100300000F0EEFA0A4BAD0010
:10EF70001B68EB58002B0BD001223477F477B47761
:10EF80001A735A68002A03D0197B9868C9B290474F
:10EF900070BDC04600800040A4170020F0B50124D9
:10EFA0008BB0099310AB1B78089205932300059A48
:10EFB0000690934004936B4607911198197CF1F7E2
:10EFC000E7FE20000D1E5CD10323069A334F1A4042
:10EFD00011003800039200F0BDFA8021039B090262
:10EFE0005C012F4BE619E218138838009B049B0C38
:10EFF0000B43138080223B68039993433B6080233B
:10F00000089A5B01F250274B099AE3181A60059B96
:10F010002A00019300932B0000F0D4FA079B032BE6
:10F0200017D81800204AF1F723FE020B2E346B4646
:10F030001B7CB5525BB29BB21C4AA218138008E03D
:10F040006B461B7C5BB29BB2B3520022174BE3189A
:10F050001A80119A0399114800F0CCFA01220F4846
:10F06000039900F047FB0E4B0020E418022322888E
:10F070009A43134323800E4B1A68069B9B009B58B0
:10F0800018730BB0F0BD6B461B7C5BB29BB2B352E6
:10F09000D2E7064BB552E3181D80DAE70080004046
:10F0A0001C9000401090004004100000149000409C
:10F0B000A417002073B5040009AD06A800782E78C7
:10F0C000079D009001952000FFF768FF051E0FD1F6
:10F0D00003231C402100089A064800F00BFB08227D
:10F0E000054B6401E4182388F60093431E432680F1
:10F0F000280076BD008000401C900040032110B520
:10F1000001400122024800F01FFA002010BDC04655
:10F1100000800040032110B501400022024800F0A9
:10F1200013FA002010BDC0460080004070B57F2556
:10F130003F260B4B31401C5C92012C401C541C5C44
:10F14000B4430C431C544024195CA1431143C9B27D
:10F15000195480211A5C2A400A431A54002070BDB9
:10F1600000100240032318408030024B4001C15080
:10F170007047C0460080004003231840024B400106
:10F1800089B2C01881807047009000400323184066
:10F19000024B4001C01801607047C0460C9000400F
:10F1A00003231840024B4001C01801607047C0465D
:10F1B0001090004003231840024B400189B2C01850
:10F1C00001807047149000400A00032110B50140EF
:10F1D000014800F08FFA10BD00800040032110B5F7
:10F1E0000140024800F0B0FA10BDC0460080004067
:10F1F000032308221840044B4001C0180388C900AB
:10F2000093430B43038070471C90004070B504008B
:10F210000D00002835D0002933D020212800FFF729
:10F220006FFE0721637A227E0B40E021D202134356
:10F23000227AC90012020A40FF211343627ED200E3
:10F240000A4013432200EB80236828322B60638935
:10F25000AB80E369AB602369EB6063682B61A389D2
:10F26000AB82E36A1968631C89B2E982DB7F002BF9
:10F2700008D0636AAB611023127852001343AB834A
:10F28000E98370BD6069A86112785200F6E700005A
:10F29000F0B5032606400C0085B03100504800F060
:10F2A00059F980224E4B7501EF184E4B1202EB18A4
:10F2B00003931B884A489B049B0C1343039A1380B7
:10F2C000802322685B01FA50474B6268EB181A6092
:10F2D000617A637E227E0191217A0091310000F0F3
:10F2E00071F96289414BFA52414BA289EB181A809D
:10F2F000404B2269EB181A60631CDA7F384F1023E9
:10F30000002A5CD0039A3100128838009A431343D4
:10F31000039A1380626A00F0B3F90222314BE918B4
:10F320000B88934322002832127852001343E26A7A
:10F330000B80002A4DD03B681B0608D52E4BE918E0
:10F340000868137940004008DB0703430B603B6803
:10F350001B0608D5284BE8180168284B194053793B
:10F360009B070B430360310092681D4800F066F96B
:10F37000E26931001A4800F03DF9E26A3100137B7E
:10F380001748527B00F084F9E26AF024154B2401FF
:10F39000ED18D37B28881B022340194C917B204019
:10F3A000034320202B802B88490183430B431268A1
:10F3B00031000B482B8000F09DF905B0F0BD039A99
:10F3C00012889A43039B1A800E4B6269EB181A60ED
:10F3D000A3E73100E269024800F00CF9EDE7C0460E
:10F3E000008000401C90004010900040041000007D
:10F3F000149000400C90004008900040FFFFFFBFB9
:10F40000FFF0FFFF18900040F0B50024012799B0ED
:10F41000039320AB1B7816000793434B82001B68B5
:10F420000690D35803981C733B00B34001936B467E
:10F4300002919988F1F7ACFC0CAD280005913021C0
:10F44000FFF75EFD102108A8FFF75AFD039B08AAED
:10F45000139316AB1F70112317929B18948014738B
:10F4600094731F22DF772700029B2E721F33934372
:10F470006E722C83203B1E9E1F9D1094119402934C
:10F48000079B9F4240D10598431E984180B248E0B7
:10F490002A7A337A04929A4242D10399F1F7F2FB25
:10F4A000049B0890032B08D81800F1F7E1FB021D1C
:10F4B000212600236381019BA381079B00215A1E03
:10F4C000D2B2FBB29A4201D0029920311591002F9D
:10F4D00015D106980CA9FFF7DBFE029B01372033FC
:10F4E00002930C360C35CBE7019B63810023E3E7E5
:10F4F0006B4604229B5E6381DEE70023FBE70299F3
:10F500000CA8FFF783FEE8E7059B002B08D13368C2
:10F510000CAC0C932B68706863606B689842B7D032
:10F52000012019B0F0BDC046A4170020034B800095
:10F530001B68C358187BC0B27047C046A417002090
:10F540000048704700800040002A01D0C176704713
:10F550008176FCE7114B49014018C2180023136063
:10F560008022520183500E4A83520E4A83520E4A21
:10F57000821813600D4A821813600D4A8218138096
:10F580000C4A821813800C4A821813600B4A8218A6
:10F5900013800B4A801803807047C0460810000093
:10F5A00004100000061000000C10000010100000F5
:10F5B0001410000016100000181000001C100000AD
:10F5C0001E10000070B5FF2604AC257805AC247829
:10F5D000DB003340F83E34401C43E023D202DB0022
:10F5E0002D021D40144380312C434901A4B2401820
:10F5F000C48070BD036810B549011B0617D50E4CB9
:10F6000043181B191C68002C06DB1C68640003D41B
:10F61000920092081A6010BD074B4118C9180B6878
:10F6200092059B0A9B02920D1A430A60F3E7024B74
:10F630004018C0180260EEE708100000036810B51B
:10F640001B0609D50B4C490143181B191C681B6884
:10F65000002C02DB5B0000D410BD064B4018C01824
:10F660000368054992020B4004490A401A430260AC
:10F67000F2E7C04608100000FF0300C000FCFF3F97
:10F68000024B49014018C018026070471810000072
:10F6900049014018134930B545182C8812496404B3
:10F6A000640C4018002B17D0104B52021C43A4B21C
:10F6B0002C8001884904490C0B43F0219BB2038044
:10F6C00049012B880A400A490B4013432B800388C9
:10F6D0000B401A43028030BD2C8003885B045B0C16
:10F6E0000380F8E71E100000161000000080FFFFE6
:10F6F000FFE1FFFF124B4901401810B5C4182188E3
:10F7000013B2104A09B28018228800290BDADB05EF
:10F71000520AD90D52020A43228003885B0A5B0217
:10F720000B43038010BDD20B5B045B0CD2031A4366
:10F7300022800288D20BD2031A430280F2E7C0462D
:10F740001E10000016100000084B49014018C31895
:10F750001B88074A1BB280180088002B02DAC005FC
:10F76000C00D70474004400CFBE7C0461E1000006F
:10F770001610000010B50020FFF7D6FB10BD10B525
:10F780000120FFF7D1FB10BD10B50220FFF7CCFB25
:10F7900010BD10B50320FFF7C7FB10BD70B50020EA
:10F7A000FFF7CEFE00240126C56A354202D02000B4
:10F7B000FFF7D2FB0134E4B26D08042CF5D170BD23
:10F7C000F0B5364B87B005928200D45803902500DF
:10F7D0000491FF35AF7C012F16D16379032B13D130
:10F7E0002F4E336B5B093B420CD0300000F0F8FF2A
:10F7F00020232C4937630A68326B1A42FBD1284810
:10F8000000F0DCFF0023637163790220002B20D11C
:10F81000234E33689B0027D50127059B6771A37191
:10F82000049B2360AB7C002B0ED13A0006213000F4
:10F8300000F080FF3A000721300000F07BFF3A0023
:10F840000521300000F076FFAB7C0493012B02D041
:10F85000002007B0F0BD1449687C039AFFF756FBFF
:10F86000071E03D0002363710120F2E71023022159
:10F87000687C0193009123680C4AFFF78FFB061EFA
:10F8800001D06771F0E7687C0499FFF7B1FC687CF0
:10F89000FFF734FC0028DBD06671E5E7A8170020ED
:10F8A000004002408C40024051F90000804002407C
:10F8B000F8B5254B8200D45806002700FF37BD7CE1
:10F8C000002D2AD12A000521204800F033FF2A000C
:10F8D00006211E4800F02EFF2A0007211B4800F0D9
:10F8E00029FF002263792260032B0CD02300627170
:10F8F000FC335D68954206D0BB7C012B03D123000D
:10F9000008213000A847A379002B05D06379002B8C
:10F9100002D1201D06F022FCF8BD6379032BE0D054
:10F920002568787CFFF7F6FB2B689A0202D46A6898
:10F93000920C6A601B031B0F2B74AB681BBAAB6085
:10F94000EB681BBAEB60CCE7A81700200040024030
:10F9500070B5C4B201290DD10322084B8000C358F1
:10F960005A711A00FC325568002D03D00022200085
:10F970000831A8472000FFF79BFF70BDA8170020A3
:10F9800070B50C00094B8000C558E40000220848FF
:10F990002E1900F0CFFEB379002B03D004342819C0
:10F9A00006F0DCFB0023737170BDC046A817002071
:10F9B000004002401F2803D801238340014A1363FB
:10F9C0007047C04600400240F0B58BB0039310ABC7
:10F9D000150004CB80001B780E0005931A4B04928F
:10F9E000C4581A4800F05AFD86422AD20227F30072
:10F9F000E41863793800002B21D13000FFF7DAFFDB
:10FA0000059B6771A371EB7A297806AA6868E37190
:10FA10001171A97A90602889917390810C21002B33
:10FA200000D010310193049B069100933100039B99
:10FA3000064800F0EFFF002801D0002363710BB0EF
:10FA4000F0BDC0208000FAE7A81700200040024067
:10FA50001149124A70B58B58114C07262340F824DF
:10FA60008B500368E4019B02234084688D58344026
:10FA70002C43FF252343446864012C402343C4687E
:10FA8000084D24052C402343E0240069E4020004CF
:10FA9000204003438B5070BD00400240040C000026
:10FAA000188308C00000F03F30B51F250F4A136DC2
:10FAB000DB0FDB0713658168146D29402143F824AF
:10FAC0000368A4009B061B0C0B43416849012140BD
:10FAD0000B43C168064C490521400B430169F820DE
:10FAE0000904400301400B43136530BD0040024050
:10FAF0000000E07F104A1149536810B50B40072100
:10FB00005360036854680B40C16809060B432343E4
:10FB1000E0248168E40209042140E0240B434168A9
:10FB2000A403C90421400B430169C02089050004D6
:10FB300001400B43536010BD00400240F8FF00003D
:10FB4000F7B5164E0193164B8000C75830000C00D5
:10FB5000150000F0A3FC84421DD233689B0006D53B
:10FB6000736B1B011B0F5B0007339C4213D9E6002C
:10FB7000BE1973790220DFB2002B0BD10122019B49
:10FB80002100064872713560B37100F0D3FD002882
:10FB900000D07771FEBDC0208000FBE7004002402E
:10FBA000A817002070B5114C0D002368DB0106D5A5
:10FBB000002916D123680E4A134023600BE0200071
:10FBC00000F00EFE002D07D12368094A13400748B4
:10FBD000236000F0F3FD70BD802322685B021343B5
:10FBE000F5E7802322685B021343E6E7004002400A
:10FBF000FFFFFEFFF7B5394E140032681D00802369
:10FC00000F0011005B04194001911A4209D07F22B4
:10FC100033681340A34201D31F2C10D9C0208000A9
:10FC200037E0300000F0DCFD7F22336813409C4257
:10FC300001D81F2C03D9294800F0C0FDEEE7336836
:10FC40009B000AD4002F3FD1254BAD041D408823D3
:10FC50009B00E418A400355117E01E22736BDB0DE6
:10FC6000134007339C42EDD833689B05D34088226C
:10FC700000939200013BA418022B0BD92A0000210B
:10FC8000380000F0E3FBA4003051019B002B20D092
:10FC90000020FEBD6B462A001978380000F0D6FB24
:10FCA000009B012B05D0022B08D00123A4005B424E
:10FCB00002E0030C0343A4003351E6E7030E020CF9
:10FCC00013430343000AF5E7012FDED1ED00ED08F1
:10FCD000BDE7024800F072FDDAE7C046004002408E
:10FCE0000000FC1FF0B55E4E89B033680D001400B3
:10FCF0000190002B05DB300000F072FD300000F0B9
:10FD0000EFFB8021637A89015B0372680B405549E0
:10FD100053480A401343736000F0C8FB504800F09A
:10FD20005FFD4F4800F0EAFB237A002B02D0012050
:10FD300009B0F0BDA379022B04D08022336892026F
:10FD4000134333606379002B5AD12300343300937B
:10FD50001B78012B5BD133689B00E8D58022336888
:10FD6000120213433360E1793D4800F01BFE216825
:10FD70003B4800F0FFFF0028DAD1230032680C3343
:10FD800003AE120549D5320083CB83C203CB03C235
:10FD90003000FFF789FE23003200203383CB83C27B
:10FDA00003CB03C23000FFF753FEA1792C4800F0CB
:10FDB000ADFDA379032B02D0294800F0FFFC0A20F7
:10FDC00002F0AEFD0A2002F0ABFD0A2002F0A8FD11
:10FDD0000B2002F0A5FD0B2002F0A2FD2E00002753
:10FDE0000021301D06F0CBF9FB0000281ED00435A1
:10FDF0005C19AC429BD0280006F0CBF90835F8E737
:10FE00002179174800F0AEFB00289ED090E7002B28
:10FE1000A9D13368144A1340A4E7320083CB83C2CC
:10FE200003CB03C23000FFF765FEBEE7EB180137D6
:10FE3000B071306058710836202FD1D12B00009A54
:10FE4000FF33127835349A742278033B1A75019A7D
:10FE500058609860D8601861044B9200D55067E7ED
:10FE600000400240FFDFFFFFFF7FFFFFA8170020D9
:10FE700070B5104886B00D0014001E0000F07EFD25
:10FE8000002814D1237802AA1371A37A61689373AE
:10FE900008239160218902939181E37A29000193DB
:10FEA00000903300034800F0B5FD06B070BDC020DF
:10FEB0008000FAE700400240F7B505000D480C004D
:10FEC00016001F0000F05AFD002810D1089B019079
:10FED000009332003B0021002800FFF775FD002849
:10FEE00004D101222100034800F024FCFEBDC02003
:10FEF0008000FBE7004002407FB51C480D00140065
:10FF00001E0000F03BFD00282CD16A4663682800E3
:10FF1000029323781371237A1373FFF74BFD0F239A
:10FF20006A46009329003300104800F057FE041E73
:10FF300015D1009033006A4629000C4800F04EFEAF
:10FF4000041E0CD104236A4600932900330007489D
:10FF500000F044FE041E02D12800FFF72BFD200014
:10FF600004B070BDC024A400F9E7C04600400240C0
:10FF700070B50B4C0D0023681600DB0103D5200083
:10FF800000F020FB70BD200000F02AFC20003200B1
:10FF9000290000F017FB200000F010FCF2E7C0463B
:10FFA0000040024070B5050007480C00160000F044
:10FFB000E5FC031E05D1320021002800FFF7C0FD3B
:10FFC00070BDC0208000FBE70040024010B5002259
:10FFD000FFF7F6FB10BD0000F7B5294B8600F5587A
:10FFE0000193002D1CD02B00FC33DB68002B17D0B5
:10FFF000802100222348C90100F0ACFB80210022AF
:020000021000EC
:100000002048C90000F0A6FB802100221D480901FC
:1000100000F0A0FB802100221A48090200F09AFBA0
:100020000A2002F089FC0A2002F086FC0A2002F075
:1000300083FC144C0B2002F07FFC0B2002F07CFCB4
:100040002368002B05DB200000F0CAFB200000F035
:1000500047FA002D04D10024019B9C512000FEBDD5
:1000600000242F1D0535FF35380006F092F80028D2
:1000700000D001240837BD42F6D1002CEBD0EDE7CB
:10008000A817002000400240074B8200D25810B54C
:100090001300FC33DB68002B01D00A21984703488A
:1000A00000F0ECFB10BDC046A81700200040024045
:1000B000F7B5174B174C8200D658236801905B04A4
:1000C00024D5154D63599B030ED5802362599B029D
:1000D000134363513300FC335B681F1E04D03300AD
:1000E000002205210198B8476359DB030ED5802310
:1000F00062595B02134363513300FC335C68002C8C
:1001000004D03300002206210198A047F7BDC04665
:10011000A817002000400240080B0000F0B58B4BF0
:100120008B4D8200D758AA6A2B6B00241340012202
:100130008BB001901340002B44D02B689B004BD414
:10014000E600BB1902935B79012B39D1210080486D
:1001500000F0AAFD029B21001A687D4800F0A9FD6D
:100160002000FFF727FC2B689B0000D49BE0029B3C
:100170001B681B681B011B0F00D094E02100744812
:1001800000F02FFC734A0368134003608023026869
:10019000DB04134303600021029B59713B00FC33D5
:1001A0005B681E008B4203D03B0022000198B047E1
:1001B000029B5B79002B03D121000198FFF7E0FB44
:1001C000029B5FE00134202C00D1A5E0A96A2B6BD3
:1001D0000B40E3401340AEE7072CB1D8052C39D1D2
:1001E0003E007B792D36DAB203920296012B16D0AF
:1001F00033001B78022B08D0AA6A2B6B1340E34014
:10020000DB0700D577E00BB0F0BDE600BB19029329
:10021000DB79002B49D12000FFF7CCFB54E0396893
:100220004B4800F033FB202300222B633B007A7104
:10023000FC335B681E00934203D03B000399019896
:10024000B0477B79002B01D0029BD2E70198FFF7E2
:100250002FFBF9E7062C11D140232B633B003E0016
:10026000FC335B6835369C460296002BC0D03B00C1
:100270000022022166460198B047E5E7072C03D02B
:10028000E300FB185B79B5E780232B633B003E005E
:10029000FC335B683D369C460296002BA8D03B00A1
:1002A00000220321E6E7AB6875E72100284800F04B
:1002B000FBFC2100264805AA00F0FBFCAB68059B6F
:1002C0001B011B0F042BA6D00023029A53713B0085
:1002D000FC335B681E1E04D03B0022000421019801
:1002E000B047029B5B79002B00D085E72100019885
:1002F000FFF746FB80E72B689B0009D5072C07D842
:100300007B79002B00D07EE72000FFF753FB7AE7D4
:10031000E300FB185B79F4E7019B002B0AD10E4B3D
:10032000EA58EB58520C1B0C1343DB0702D501981B
:10033000FFF7BEFE0221EA692B6A0B40134300D18E
:1003400061E70198FFF7A0FE5DE7C046A81700200F
:1003500000400240FFFFFFF0080B0000074A80004A
:10036000CB0081580020C9184B79834204D04879CA
:100370000338431E984101307047C046A81700203B
:10038000014B186A7047C04600400240034B800092
:10039000C358FC3359609A607047C046A8170020C4
:1003A000224B8000C3582248FC3370B51A610268A2
:1003B000D960802315005B040C001D401A4201D156
:1003C00000F00EFA002C1DD0802101221848C9012E
:1003D00000F0C0F9802101221548C90000F0BAF9E7
:1003E000802101221248090100F0B4F90122802184
:1003F0000F48090200F0AEF9002D02D10C4800F0C0
:10040000DDF970BD802122000948C90100F0A2F980
:10041000802122000648C90000F09CF980212200BA
:100420000348090100F096F92200E0E7A817002030
:1004300000400240082806D90938C3B20020062B24
:1004400001D8014AD05C704708AE010003000129C1
:1004500012D00020022918D081420CD1900F8007C1
:10046000002B03D10B4BD2041A4003E0012B02D125
:10047000D200920810437047900F8007002BF1D0F4
:10048000012BF8D1044B1204EEE7012BF3D8100630
:10049000F1E7C0460000F83F0000FF3F024BC018E4
:1004A000434258414001704700C0FDBF0368DB0272
:1004B00010D50368084A5B005B08036003681340BB
:1004C00003600368054A1340036080231B0502682C
:1004D0001A42FCD17047C046FFFFFFBFFFFFFFEF8E
:1004E0000368002B09DB802302681B0613430360AB
:1004F00080235B0302681A42FCD07047802370B5EA
:10050000040002689B041A430260226815001D4023
:100510001A42FAD1802322685B0113432360200032
:10052000FFF7BCFF2300020180339A18934212D1D7
:10053000882300221B01E3188000181883420CD185
:10054000012300225B4223616361A361A2622363F2
:10055000034B236270BD20C3E8E704C3EEE7C04647
:1005600006003B000268802370B516001B010400E2
:100570000D0001201E401A4218D12000FFF78EFF07
:10058000802322689B051343F022236012052D0669
:10059000636B1540094A80B213401D430123084A8A
:1005A0005B426563A364864201D3002070BD88234B
:1005B0009B00F3189B001A510136F4E7FFFFFFF090
:1005C000FFFFFF1FF7B50400636B08001B011B0F43
:1005D00003291ED8F0F74CFB02215A9F216851488D
:1005E000802501402000013321609B014E4CE0300A
:1005F000D318ED05167857785168F607002F09D003
:10060000C90089082E4389190832016004309342D9
:10061000F0D1F7BDC9042140F5E7206841498026A3
:100620000840802149000143802720000133DB017D
:10063000D3182160E0300193F605FF011378147A96
:1006400055785168DB07E403002D16D0374D49007B
:1006500029403343C9180160517AD368002910D06A
:10066000DB0001689B0C3C431B190B430360019B9F
:10067000103204309342E1D1CBE72B4DC90429401D
:10068000E8E72B4DDB0001682B40EDE720682549AA
:10069000FF25084080218900014321602000FF24BC
:1006A00001331B02E030D318240456785168002E21
:1006B00025D00668490D09063143567A0160D16894
:1006C000002E1FD00668490921403143567C016045
:1006D0005169002E19D00668490D0906090C3143ED
:1006E000567E0160D169002E12D00668490D29405E
:1006F00031432032016004309A42D6D189E706683E
:10070000C908D8E706684903DEE70668C908E4E7D0
:100710000668C908EBE7C02322689B0013432360E7
:1007200077E7C046FFFCFFFF0000F83F0000FF3FF7
:10073000F83F00001F2906D801238B40002A04D06F
:10074000826A1343836200207047826A9A438262FE
:10075000F9E70000002A1AD08023DB00994208D173
:10076000802302689B031343036043680B43436089
:10077000704780231B019942F2D08023DB0199420C
:10078000F3D18023426B1B0613434363EDE74368B9
:100790008B4343608023DB01994203D1436B5B00B1
:1007A0005B084363C02342681B011A42E0D103681F
:1007B000014A13400360DBE7FFFFDFFF0368064ADF
:1007C000134003600368054A1340036080235B0401
:1007D00002681A42FCD17047FFFFFFEFFFFFFFBF27
:1007E00080230268DB0513430360802302685B05F6
:1007F000134303600368012230B5002B04DA036859
:100800009340D34000220360002383600568802466
:10081000290024012140254222D180235B04046861
:100820001C4201D1B32925D90368DB010BD48021F7
:10083000856A0468036889040B43036003680B42FC
:10084000FCD185620460002A09D1802302681B065E
:100850001343036080235B0302681A42FCD030BD5F
:1008600080240549640405682542DDD18B42DBD82C
:100870008368F8E78168D2E7D9020000026A024B78
:100880001A4200D00362704706003B000300F0B537
:10089000071D0400F86F85B000038833000F0D00BA
:1008A0000E000193FFF7C6FD2874FB6F0836009019
:1008B0002B6008349B0212D5E36F03226B60330078
:1008C0001340164220D1009A9A421BD901999A08E6
:1008D00092008918096809BAB1500433F3E7E36F4D
:1008E0009B0CEAE7019AA3089B00D3181B681BBA6C
:1008F0000422301903A9039309F01AFD0434009B64
:10090000A342EFD805B0F0BD0024F8E7030010B50E
:100910000800042907D8F0F7ABF90D1A1E030700E9
:100920001800FFF75DFF10BD8022196812060A4308
:100930001A60F8E71A680E490A4008211A605A68D6
:100940008A435A605A680B490A405A60EBE708220A
:1009500059680A43F9E78022596852010A4308217D
:100960005A605A688A435A601A6803490A40DFE7A6
:10097000FFFF7FFFFFEFFFFFFFFFFDFF02680300A8
:100980007F2002407E388A420BD31A6800209200F2
:1009900007D55B6B1B011B0F5B0007338B4240418C
:1009A000C0B27047036810B51B0507D5C0221201FD
:1009B0008358034C090423401943815010BDC0469D
:1009C000FFFFFCFF02680823120508D5C0231B01A6
:1009D000C35801209B039B0F033398400300D8B2F8
:1009E000704770B50E000400FFF7ECFF0830C5B289
:1009F000802029008000F0F745F9C1B23000F0F7FF
:100A0000C7F9AD086943C001091820318900601891
:100A100070BD0000F0B585B001930AAB150004CBA2
:100A200006001B78009202930F00FFF7DAFF7F2287
:100A300033680400134080229205BB423BD33368E5
:100A4000134249D133681B0509D5AB7B002B06D077
:100A5000C02280231201B1581B060B43B350AB6870
:100A6000FF27DAB2402A02D8594A3B40D75C009BA4
:100A7000002B33D10023236063602B79012B7CD1C1
:100A800063685B0F5B076360019B6268DB00DB08E8
:100A90001343C0226360D2032B680F2B00D193E075
:100AA000F0213F0409030F4017431C2B75D180220E
:100AB0005203174374E0336813420AD0C0229200F5
:100AC000736B1B011B0F5B0007339F4201D9002A88
:100AD000B8D0C020800078E00022F1E7F8B2FFF73C
:100AE000A9FC260003900320009B009A08360340CF
:100AF000024238D1AA688243934225D29A089200D2
:100B0000B1188C4600998A5812BA614604330A60BB
:100B1000F0E70099009A8C469C4461464978D25C83
:100B20000902114362469278120411436246D27858
:100B300012060A4399088900711812BA0A60043330
:100B4000AA6882439342E4D30321AA689A420CD84C
:100B50000321039B93428DD90B00687B5340F3180C
:100B600018700132F5E70023EAE70A0000985A40BE
:100B7000C05CB21810700133E7E7002B01D00022EF
:100B80008AE76368134A144913406360019B6268F3
:100B90009B040B4013436360F1E7029A002A86D15D
:100BA000F0221B06120513402A7B3B43002A02D089
:100BB000802212061343AA7B002A02D08022D2058B
:100BC0001343226813432360002005B0F0BDC046E4
:100BD0000FAE0100FFFF03E00000FC1FF8B50500A9
:100BE00016001C000F00FFF7FCFE7F222B6813404D
:100BF00080229205BB422BD32B68134239D10023AC
:100C0000036043603379012B35D1802302689B0355
:100C10001343036003681F4AE40013400360436802
:100C2000E4085B0F5B07436043681C434460336820
:100C30000F2B0BD0F0210368174A090513400360FE
:100C4000336802681B060B40134303600020F8BDA5
:100C50002B6813420AD0C02292006B6B1B011B0F42
:100C60005B0007339F4201D9002AC8D0C020800012
:100C7000EDE70022F1E7002BD9D10368074AA4046D
:100C8000134003604368064A1340064A43604368C2
:100C90001440CAE7FFFFBFFFFFFFFFF0FFFF9FFF0A
:100CA000FFFF03E00000FC1F10B5FFF79AFE03688A
:100CB00010BDF0B5150085B00400FFF792FE2B00C3
:100CC0000700006808330003000F0193FFF7B2FB31
:100CD00006002000FFF776FEB04203D22000FFF7A7
:100CE00071FE06002E743B682B609B0217D57B6853
:100CF0006B600323019C019A1C401A422CD13100E5
:100D000099438C4221D2A3089B001A000832BA18DA
:100D1000126812BA01980434C250E4B2F1E77B6859
:100D20009B0CE5E7A3089B000833FB181B681BBA64
:100D3000200008300422281803A9039309F0F8FAC8
:100D40000434E4B2019B9C42ECD303222D190135FB
:100D5000B44206D305B0F0BD32009A43002401929C
:100D6000F0E7130063400833FB181B780134EB7184
:100D7000E4B2ECE7F8B50E000400FFF723FE751EA1
:100D8000070029002000FFF72CFEA023C0199B00BC
:100D9000E318083083422AD32000FFF77FFBB042DC
:100DA00025D37F2321681D40994329432160226870
:100DB000802315009B051D401A4212D00020F8BD6B
:100DC00029002000FFF70DFE082100220300494200
:100DD000026008334260081AC1188F4204D80135F6
:100DE000EDB2B542ECD3E9E71A700133F4E7C02065
:100DF0008000E4E710B50020FFF790F910BD10B5B2
:100E0000FFF7F8FF10BD0000F7B5104B8700FD5845
:100E10000C000193002D16D1481C05F09DF902220B
:100E20000B4E1920B3681343B360B56001F078FD31
:100E30000122B3681343B360019B25706560A56010
:100E4000E5602561FC500020FEBDC046AC170020C7
:100E500000A00540F0B501243E4E87B0830003900A
:100E60009859019303783C4D05930B7A0F00029338
:100E70006B680121DBB20493029B01309C40494224
:100E800005F066F9029B049A013CE4B2934230D823
:100E90000023059A14420CD0029A0133DBB2D21817
:100EA00004996400D2B2E4B28A42F2D9039B9B0057
:100EB00020E07B72019BF05803781C4304700130E2
:100EC00005F048F9019BF258131D143219680029E6
:100ED00017D11F6003223B7A787A0193944603006E
:100EE000019A8218934210DB0020039B38607B60DC
:100EF00005E0019BF058013005F02CF9012007B006
:100F0000F0BD04339A42E1D1E4E7072412499A0084
:100F1000561812495218D16FA1438024D1676146F7
:100F2000E40032598A43325101229A402E6AD1B2EA
:100F30008E432E626E6A01338E436E62AE6ADBB2FE
:100F40008E43AE622E6B8E432E632A616A61AA6164
:100F5000C6E7C046AC17002000A0054004A005402D
:100F600070B54568124EAD000300A8590100021D7E
:100F7000143114689C4216D10021116001241A7AA0
:100F8000012194405B7A013CE4B29C40494201302B
:100F900005F0DEF870590378A3430370013005F0C3
:100FA000D9F8002070BD04329142E2D1E6E7C04694
:100FB000AC170020F7B50127134B196A1A695D6A4F
:100FC00011405A699E6A9B6900911E400F4B154063
:100FD0001B681C1D14330193206800280FD0026881
:100FE000002A0CD03900037A99400B00417A013B6A
:100FF0008B40009929433143194200D09047019B0F
:1010000004349C42E8D1F7BD00A00540AC17002095
:10101000F7B54268434B477A9200D458BB00E318B7
:101020001A1DD16F06004048019301400720D16787
:10103000D16F8143D167791CC9B28A00A218151DEE
:10104000EB6F83438020EB67019BC0001D58032397
:101050009C469D43019B1D50634615589D4315506A
:1010600001252B008D40BB4030216361FC3265615E
:101070002561A36150681F00884384462020634691
:101080001843019B5060FC335A688A4311435960EE
:1010900033002C33256101931B78002B1FD0022BCA
:1010A0002AD03300012232331A7002331B78002B0E
:1010B00003D03000333005F051F8B369002B0DD068
:1010C000F38D002B0AD1330030331B78002B05D071
:1010D000019B1B78022B01D0144BF385F7BD236ACB
:1010E0003D43EDB2AB432362636AFFB2AB4363623D
:1010F000A36ABB43A362D4E7FF232900626A1940B5
:101100008A436262A26A3B409A43A262707FFEF702
:1011100001F8307FFDF7FEFF3D43236BEDB2AB439B
:101120002363BEE758AE0100FFFFFCFF0202000090
:1011300070B542682C4B0400457A9200407FD65827
:10114000FEF7F4F9012802D10123E38541E0207F75
:10115000FEF7ECF90128F7D071696B1CDBB2D940BE
:101160000122114204D09A40802372619B00ECE777
:10117000B369EB40134212D0AA40638D013B9BB28E
:101180006385B261022B0BD1A021AD007519C90096
:101190003E346A582378D2B21B0213436B5070BDA1
:1011A000012B09D19021AD007519C9000F4B6A5868
:1011B0001A4080239B01F0E7002BF0D19021AD0075
:1011C0007619C9007258094802407250E28D022A0D
:1011D000BBD02000FFF71CFF236A002BDFD00420C8
:1011E000616A9847DBE7C04658AE0100FF8FFFFFFA
:1011F000724BF7B59C466246436804009B009A58C0
:10120000437A50690121D840084203D099406C4884
:10121000E08551615569591CC9B2CD400120054294
:1012200014D01569DD4005420CD180239B00E38575
:101230002000FFF7EDFE236A002B6DD00420616AC9
:10124000984769E088405F4DE58550611069012548
:10125000C840284239D0A020890051188000085881
:101260002600019020003136377830300578002F85
:101270001DD101203070002D27D030259800101886
:10128000FC304668AE43103D35434560A0690128F7
:101290001BD19D005519FC356E682F3086430643DF
:1012A0006E60FC314D688543284348600DE0A669B7
:1012B000013EA661002D08D02569019E2E7025698A
:1012C0000135256100780028E0D11169D940C907AE
:1012D0000DD560466168890045586069617A0028CB
:1012E0001BD101219940106AC9B2884310629169EB
:1012F0000120D94001420FD0210032310978002964
:101300002CD090219B00D318C9005A582E48024077
:101310005A502000FFF77CFEF7BD01386061A03114
:10132000002809D12600353636788900002E01D1F3
:10133000FF2000064851D4E7200030300078002814
:1013400004D0FF20890000064851D0E7E0688900FA
:10135000067801303606E0604E51C8E79840618D4E
:10136000013989B26185906102290BD1A0209B00CF
:10137000D318C0003E3419582278C9B212020A4369
:101380001A50C9E7012909D190209B00D318C00049
:101390000D4A1958114080229201F0E70029BBD173
:1013A00090209B00D218C0001358074D2B401350BB
:1013B000E38D022B00D03BE7E18539E758AE010011
:1013C0000102000002020000FF8FFFFFF0B5B7B07E
:1013D000099242680893A84B9200D5580122030055
:1013E0000591110036331B78040099400B00010071
:1013F000373109788A401343EA68DBB21A409342D6
:1014000000D0ECE1437A12260793059B002183610B
:101410005A1C0223C38503005643426109983233A4
:10142000B71CD870FF37089819703F0A023B013685
:1014300018705970F0193900EFF724FCA022079BAF
:10144000D2009B00EB189A589446421E12021100DB
:101450006246D2B211438AB2A021C9005A507A1E04
:101460004243B61A22003E3267851670012F08D11A
:101470009020C0001958814A1140802292010A43ED
:101480001A50072602221F1DF96FB1430A43FA675B
:10149000079A0132D2B20A929200AA18101DC16FA7
:1014A000B143063E3143C1678021C90058588C467C
:1014B00003218843614630435850505803218843E4
:1014C000014360461150F96F6D4A1140802252026B
:1014D0000A43FA6722002C321278B24226D0022A3E
:1014E0002DD0002A1FD101F03FFA2200238D303287
:1014F000B34012789B18627A3400A0321B06920027
:101500005351079B0A9A9C4096402B6A2643F6B299
:1015100033432B6201F01CFA6B6AE4B233436B6213
:10152000AB6A1C43AC62002037B0F0BD228D089935
:1015300052008A18A021120689005A50F3E72300AE
:101540001F225E3393430693089B002B00D08DE04F
:10155000E3681293059B079A13930123A03292002C
:1015600005982700AA18033224AE249225903372DE
:1015700027920222099812A9013839370B72387064
:1015800016932893159733750B75607F029200911F
:10159000002206990196FDF737FF230030331B78B0
:1015A000002B03D00021607FFDF7E6FD069BA669B6
:1015B0009A8B08231343069A938362682E4B9200FA
:1015C000D3580893237F0B933A239C46A444634645
:1015D0000593637A0C930133DBB20E93A0339B0027
:1015E0000F930F9A089B944663440993230030336A
:1015F0001F780123002F45D1F6183900039301937A
:10160000099A059B0B9802960097FDF753FD390048
:101610000B98FDF7CFFD01273E00607FFDF76EFDC3
:10162000207FFDF76BFD0A9B696A9E40FF23320015
:101630001A400A436A62079A9740AA6A3B401343DA
:10164000AB6201F091F92200238D303212785B00F9
:101650009B18627A1B06A032920053512A6B3E43BC
:10166000F3B213432B6301F073F95CE72300FF220D
:1016700038331A706DE7C04658AE0100FF8FFFFF88
:10168000FFFFFCFF0020059F099A2497771E0D9706
:101690002769129212A924AA139325930872107233
:1016A00010970593012E3FD90C9B30279E00089B75
:1016B0009E19FC36736811962026BB4333431B36B4
:1016C000B446A44466463370059B159616930C9B4E
:1016D000089E40339B00F318059E08752896099EC6
:1016E000279318960D9E0493199611260EABF618A3
:1016F000F077109E10752A960D9E1DA92B965926DF
:10170000F618F077119E7668BE433E4327003C37BB
:101710003E70059E1B971C960870049B2E962D9379
:101720002FAB187004230593069B089A20330C9363
:101730000E9B12A840339B009A583023134322007B
:101740003D3213700C239C466146059B01264B439A
:101750001A500022C1180A724E600F99089A8139F6
:10176000FF395118002224AFD951FB181A72624672
:101770005E60059B9B195343099AC1181A500022B9
:101780000A720D9A4E609446002210996144D95114
:10179000FB181A725E60059B0090023302930C994D
:1017A00033000B980197FDF72FFE069B069A9B8F3F
:1017B00033439387A369B34208D96032938B334391
:1017C0009383069B80339A8B16439E83059B0C9ACA
:1017D0005B01D3180822998B0A439A831BE70148BF
:1017E000A2E6C04605020000F0B55D4B8BB0039049
:1017F0000D00185C09A91400FDF77EFB02232100EF
:1018000003982372FFF726FB0490002800D086E09F
:10181000AB78012B04D001002000333004F0AFFC82
:10182000AB78012701932300019A2C331A702B887F
:101830000998238523002E7A36331E706B7A059320
:101840002300059A37331A70EB68002223622B6954
:1018500069686362230034331A70023B1F70E285AB
:101860006268404B9200D35808180693637AB940D7
:101870000293EFF791FA0238FF2853DDFF20029B15
:10188000069A9B009C46624413003221FC33596047
:10189000029BC0270133D9B20791E021BF04C900E0
:1018A00036021B063B400E401E438023171D334368
:1018B000FB67079B069F9B00FB181F002021FC373E
:1018C000796080273F043E431F1DFE67A026F60077
:1018D000905190206146244FC00017504F1CF021BA
:1018E0000905080005993F0638400F02E021C900AC
:1018F0003940C127014380203F04C0000F431750E7
:101900000F2284469A51194A80301A50184A0A43C5
:1019100061465A50019B002B08D0022B09D0049835
:101920000BB0F0BD0028AADC3800A8E7114B2360FB
:10193000F5E7687D039A60772B7D920023770E4B45
:101940009B18079A9E5C029A995C0022FDF7EEFBB9
:1019500000223100287DFDF7E9FB084BE7E7C04690
:1019600054AE010058AE0100220202011211200003
:101970008000C000F111010050AE010031110100E2
:10198000030010B532331B7804000220002B0BD06B
:1019900023002C331B78012B03D02000333004F0BC
:1019A000F8FB2000FFF7DCFA10BD0200323212789B
:1019B00003000220002A01D000201985704770B56D
:1019C0000D0011001A00030032331B7804000220BE
:1019D000002B04D000232000E560FFF7F7FC70BD6A
:1019E00070B50D0011001A00030032331B7804009B
:1019F0000220002B04D0012320002561FFF7E6FC24
:101A000070BDF8B5070032373B7804000D008669D9
:101A1000002B18D103002C331B78012B04D0022B90
:101A20000CD0002904D107E0FFF7E2FB002D00D025
:101A30002E603B78002B08D10220F8BD007FFDF717
:101A4000CDFB0600F2E70029F2D1E08DF5E70000BA
:101A5000044B10B58400E05800F046FA0020024B19
:101A6000E05010BD74AE0100B017002070B55A4BA5
:101A70004C788000C3580A78002C03D1887800285D
:101A800000D172E00120002A6ED11A0080258C322C
:101A90001068ED0228438025106010682D0328434C
:101AA0008025106010686D03284380251060106841
:101AB000AD0228431060C87A1568461EB041474EF3
:101AC00000043540284380251060106828431060CA
:101AD000002C00D174E01022986D02439A6588783A
:101AE0002022002800D16FE0986D02439A65C878E3
:101AF0004022002800D16BE0986D02439A650224D1
:101B0000986D0A79A0435200024301209A659A6DAC
:101B10004C79824322439A650A7A9C6D551EAA41EC
:101B20000825D200AC4322439A658A798C331C681D
:101B30006D191201AC432A4022431A60CA791C680D
:101B400010355201AC432A4022431A604A7A1C687D
:101B50001C3D92002A40AC4322431A601A68897ADD
:101B6000824300200A431A6070BDC878002800D064
:101B700088E70130002AF7D01A0080248C321068E0
:101B8000E400204380241060106824012043802456
:101B90001060106864012043802480251060106864
:101BA000A40020431060C87A6D0000021468284029
:101BB0000B4D2C402043802410601068204310609F
:101BC00010209A6D824389E7986D904398658EE75F
:101BD000986D9043986592E774AE0100FFFFFEFF99
:101BE000FFFEFFFFF8B51E4B820005000E00D45823
:101BF000CFB28B0508D5802223685200134323609F
:101C0000184B185600F08CFEF30507D58022636D43
:101C100013436365144B585700F082FE760507D5D1
:101C20004022236813432360104B585700F078FE7E
:101C30000026002F01D13800F8BD01231F420BD030
:101C40004021F300E318DA680A43DA60084BEA003F
:101C50009B18985700F064FE0136F6B27F08E8E75B
:101C600074AE010060AE010062AE01005EAE010024
:101C700064AE0100F8B51D4B820005000E00D4587B
:101C8000CFB28B0507D52368194A13402360194B3F
:101C9000185600F051FEF30507D58022636D93437B
:101CA0006365154B585700F047FE760507D540226F
:101CB000236893432360114B585700F03DFE0026E4
:101CC000002F00D1F8BD01231F420BD04021F300AB
:101CD000E318DA688A43DA60094BEA009B189857E0
:101CE00000F02AFE0136F6B27F08E9E774AE010083
:101CF000FFFEFFFF60AE010062AE01005EAE0100BC
:101D000064AE0100114B8000C15830B508684B6DBE
:101D1000C005C00F40021B0602D580235B0018439C
:101D20000B685B0602D58023DB00184307234024A1
:101D300001255A1CD2008A185268224202D02A0079
:101D40009A401043013BF4D230BDC04674AE01004E
:101D50008022154B8000C35892001868596F1040BC
:101D6000813AFF3A70B5114202D080214900084300
:101D70001968114202D08022D2001043DA6E120696
:101D800002D5802212011043002280250126541C16
:101D9000E10059184968294202D0310091400843B6
:101DA0002200082CF3D170BD74AE01000F4A13B5A8
:101DB00081008A58030014680722002014400C4A4E
:101DC00001908A581278022A08D0032A03D0012AE7
:101DD00008D101A904E0074AD05CFAE7182001A95C
:101DE000FDF78AF80198E04016BDC04674AE0100C8
:101DF000B01700205CAE0100F7B50D000121160000
:101E0000294A83009F5800900191002F44D130004F
:101E100026490C305C58A97B77703170B780390047
:101E20009E50582208F06EFA200000F05DF8200065
:101E3000697B00F04DF80098FFF7B8FFB0602B7B8E
:101E40009A1E022A02D90197082B04D12900009872
:101E5000FFF70CFE01904021E26E6B7C8A439B01F0
:101E600013432200FF20E366EB7B0832D16F9B0116
:101E700003403F3881430B43D3670D4B009A0D4914
:101E800098562B7C002B09D0802322685B000A40E7
:101E90001343236000F044FD0198FEBD23680B400E
:101EA000236000F049FDF7E7B017002074AE010091
:101EB00060AE0100FFFEFFFF044B8000C35810B569
:101EC0009868EEF7DFFE80B210BDC046B017002064
:101ED0000122436D13434365036806329343114067
:101EE0000B43036070470000436F042200234367E5
:101EF00042650268036043608360C364026D0365EA
:101F00008365C365036643668366C26E021DC3664E
:101F100030B50367043283671049C3679367D3679B
:101F20008032136053609360D360136153618842C1
:101F300002D180229200835000231C00DA00821814
:101F4000D568D4601461884204D11A0080329200AE
:101F5000821854600133082BF0D130BD009003404B
:101F60001023012903D9052908D8012302398B4000
:101F7000002A07D0C26E1343C36670478023063918
:101F80005B00F4E7C26E9A43C266F6E7F8B5294BE8
:101F90008000C3585A78012A01D0082A36D1264A2F
:101FA000145804224800C9008A401100656EC0B26E
:101FB000421C0D422BD0D2B2C500D2006519A21826
:101FC0002F691669BFB2B6B2F11B8C4689B2B7420F
:101FD00002D35988614489B2061D76009E19B180EA
:101FE0008026E968B143E960D168B143D160A26855
:101FF0005A8082009A18D46B002C07D01B185C33CF
:102000001B78002B02D00020D169A047F8BDD10079
:1020100061184968090600D4D0B2C1006118021DD8
:102020000D6952009A1895808025CA68AA43CA6033
:10203000DDE7C046B017002074AE0100F8B50020FF
:10204000FFF786FE05000020FFF75CFE0024060077
:10205000012733002B4018006200511CC840D340B8
:1020600003433B4203D00020E1B2FFF78FFF01346E
:10207000042CEED1F8BDF8B50120FFF769FE05008C
:102080000120FFF73FFE00240600012733002B400C
:1020900018006200511CC840D34003433B4203D0A8
:1020A0003800E1B2FFF772FF0134042CEED1F8BD25
:1020B000F0B5464A83009A5885B00E000120009280
:1020C000002A36D05578002D33D1414A9C58182229
:1020D0002368934323602368083293432360236873
:1020E0003C4A13402360E36C1B0C1B04E364A368AD
:1020F0004A881B0C1B041343A3606368221D1B0C3E
:102100001B046360D36F8343D3673378AB4212D829
:10211000802218210020A36D1343A3657378009AD1
:102120005370009B22681B788A43DB000B401343EB
:10213000236005B0F0BD062380206B437268013533
:10214000D1180191D15C626E4B08DB00984082434C
:10215000012098406266626EEDB28243042084469C
:10216000984067466266626ECB0082436266E318FF
:10217000DA680292019A52789000384003900298EF
:102180009200B8430700039838430827D860D868FE
:102190003A40B84302431020DA60DA680243DA605A
:1021A000DA6800188243DA60019A1F3852881A618F
:1021B0000B00103398400300226820001343236073
:1021C000019B1A79FFF7CCFE9FE7C046B0170020AD
:1021D00074AE0100FFFDFFFFF0B50F4D80004059C8
:1021E00005AC476824788568002B09D11600ABB28E
:1021F000D219BFB292B2DB1B9E4201DD521B92B2DA
:102200000131C90041188A608022836DE401934343
:10221000234383650020F0BD74AE010010B5042493
:10222000C9004018C1689300A14323400B43082113
:10223000C360C36852088B43D2001A43C26010BD0A
:1022400001238B40002A03D1026F9A430267704733
:10225000026F13430367FAE7F7B518220026364BDF
:102260008000C458354BC3580193236893432360BF
:102270000023F700E719F5B21A00290020003B619E
:10228000FFF7CCFF1022FB689343FB60FB689218BA
:102290009343FB6023689343236001231900B140FB
:1022A000226F18008A433100DD4010318840202120
:1022B000ED00A94022672268AB4082432260626E33
:1022C00001368A43626680221000A840616E814315
:1022D0006166616E994361661021A940636E8B430C
:1022E000636640231800A840616E81436166082E32
:1022F000BED1A16E12480140C020A166A16E8143EB
:102300000B433F21A366A36E8B430021A366E167C5
:10231000636D080093436365636D203A934363657F
:10232000A3681B0C1B04A36063681B0C1B04636085
:10233000019B5970FEBDC04674AE0100B01700206D
:10234000FFFFF0FFF0B585B08C460AA90D880BA9F8
:102350000978800003913549445835494158019125
:102360000198A168467889B2042E46D14900002020
:1023700089B2002A48D180263602B34248D8B542F5
:1023800046D80A004D435A43ED13D21392B2ADB270
:10239000B3423FD1013293B200282CD16246666E1F
:1023A000520800923200009EF7000126BE403242E1
:1023B00032D08026BE40626E0292009A5200009295
:1023C000571C029A324203D02668F606B60F02D195
:1023D000FF00E719BB60009A0132D2B20132D2008D
:1023E000A21895608022A36D9343039AD2011343F0
:1023F000A365019B998005B0F0BD032E02D001209A
:10240000082EB6D10131B2E7994201D3A942C3D215
:102410000120F0E71300BFE7624625680132AD06F0
:1024200000D55B08D200A2189360DBE774AE010010
:10243000B0170020F0B5BD4B8200D3588DB0069088
:102440000F0001200593002B00D1CBE05B780493B3
:10245000002B00D0C6E0B64BD45818222368934313
:1024600023602368B34A134023600423626D13433F
:1024700063658B78059A5370049B0393039A3B78AA
:10248000934200D9B0E0002307937B78079A9342E8
:1024900000D953E10222636D134363657B69DA78E7
:1024A0000392002A50D01A78002A00D1F3E180224A
:1024B000E16F12020A43F020E2679A7800011202EB
:1024C000E16F02409C4801400A43E2670422079200
:1024D000069A032A01D90222079201202500002230
:1024E0008446191D88350878002818D06046904029
:1024F000E66F029006436046E667161DB0404E78D0
:10250000002E00D1CBE1E66F30430600E6678E78FF
:10251000012E00D0C6E12E68029886432E6001325B
:10252000079ED0B20331B042DDD35B78002B03D0DD
:102530008022636D134363656021039B626D5B01C1
:102540000B408A4313436365BB782268043B5942BE
:102550004B4120215B018A4313432360B9680698ED
:10256000FFF7AAFC059B9880E36C1B0C1B04E3643B
:10257000BB78042B00D09AE1A36840081B0C1B0415
:1025800000251843A0600A2628003B78AB4200D9FA
:1025900093E17B78049A934200D99DE1002800D012
:1025A000ACE13F21A26EFB788A430B401343A36644
:1025B0003B79A26EC0319B010B403F398A431343E4
:1025C0000122A366636DA83913436365636D073207
:1025D00013436365059B22681B788A43DB000B402D
:1025E000134323600DB0F0BD0A23039A2000534328
:1025F0000793079AFB689A180292079A9E5C029BBF
:1026000031005B79750808935A1E9341DBB21A00BA
:102610000A93FFF715FE029B089A5B78934277D1E5
:10262000012231002000FFF7F9FD0223ED00AB404D
:102630000B93029B9B79002B6FD01022029BAA4028
:102640001B7A002B66D0636E13436366731CDBB288
:102650000222190020000993FFF7E0FD636E0B9A38
:1026600013436366029B0A9ADB79012B03D0089A15
:1026700053425A41D2B220000999FFF7E1FD0422EA
:10268000AA40636E102193430122AA406366636EE1
:1026900093438022AA406366636E9343F2006366AD
:1026A000A218D3688B430B43D360D36849180B43FC
:1026B000D36040237A69AB40D278002A32D0626E70
:1026C000134363662023AB40626E3100134363669D
:1026D000029B20001A79FFF743FC01213300080018
:1026E000103398400300226813432360079AFB6865
:1026F0009B189B79002B07D07318DBB210339940DD
:102700000B00226813432360039B0133DBB2B4E662
:10271000022286E7636E934397E7636E0B9A9343B7
:102720006366ACE7626E9A436266CBE7B01700203F
:1027300074AE0100FFFDFFFFFFF0FFFF079B2000CD
:102740001B010893089A3B699E189B5C02935D08E5
